{
  "contractName": "Basketball",
  "abi": [
    {
      "constant": true,
      "inputs": [
        {
          "name": "player",
          "type": "address"
        }
      ],
      "name": "inqReferrer",
      "outputs": [
        {
          "name": "",
          "type": "address"
        }
      ],
      "payable": false,
      "stateMutability": "view",
      "type": "function"
    },
    {
      "constant": false,
      "inputs": [
        {
          "name": "value",
          "type": "uint256"
        },
        {
          "name": "toPlayer",
          "type": "bool"
        }
      ],
      "name": "distribute",
      "outputs": [],
      "payable": false,
      "stateMutability": "nonpayable",
      "type": "function"
    },
    {
      "constant": true,
      "inputs": [],
      "name": "inqTeam",
      "outputs": [
        {
          "name": "",
          "type": "address"
        }
      ],
      "payable": false,
      "stateMutability": "view",
      "type": "function"
    },
    {
      "constant": true,
      "inputs": [],
      "name": "rand",
      "outputs": [
        {
          "name": "",
          "type": "uint256"
        }
      ],
      "payable": false,
      "stateMutability": "view",
      "type": "function"
    },
    {
      "constant": true,
      "inputs": [],
      "name": "manager",
      "outputs": [
        {
          "name": "",
          "type": "address"
        }
      ],
      "payable": false,
      "stateMutability": "view",
      "type": "function"
    },
    {
      "constant": false,
      "inputs": [
        {
          "name": "profit",
          "type": "uint256"
        },
        {
          "name": "bet",
          "type": "uint256"
        },
        {
          "name": "to",
          "type": "address"
        }
      ],
      "name": "checkAndSend",
      "outputs": [],
      "payable": false,
      "stateMutability": "nonpayable",
      "type": "function"
    },
    {
      "constant": true,
      "inputs": [],
      "name": "LCTadr",
      "outputs": [
        {
          "name": "",
          "type": "address"
        }
      ],
      "payable": false,
      "stateMutability": "view",
      "type": "function"
    },
    {
      "constant": true,
      "inputs": [],
      "name": "totPool",
      "outputs": [
        {
          "name": "",
          "type": "uint256"
        }
      ],
      "payable": false,
      "stateMutability": "view",
      "type": "function"
    },
    {
      "constant": true,
      "inputs": [
        {
          "name": "player",
          "type": "address"
        }
      ],
      "name": "inqRegistered",
      "outputs": [
        {
          "name": "",
          "type": "bool"
        }
      ],
      "payable": false,
      "stateMutability": "view",
      "type": "function"
    },
    {
      "constant": false,
      "inputs": [
        {
          "name": "newChip",
          "type": "address"
        }
      ],
      "name": "setChip",
      "outputs": [],
      "payable": false,
      "stateMutability": "nonpayable",
      "type": "function"
    },
    {
      "constant": true,
      "inputs": [],
      "name": "chip",
      "outputs": [
        {
          "name": "",
          "type": "address"
        }
      ],
      "payable": false,
      "stateMutability": "view",
      "type": "function"
    },
    {
      "constant": false,
      "inputs": [
        {
          "name": "to",
          "type": "address"
        },
        {
          "name": "value",
          "type": "uint256"
        }
      ],
      "name": "sendToPlayer",
      "outputs": [],
      "payable": false,
      "stateMutability": "nonpayable",
      "type": "function"
    },
    {
      "constant": false,
      "inputs": [
        {
          "name": "_new_manager",
          "type": "address"
        }
      ],
      "name": "transferownership",
      "outputs": [],
      "payable": false,
      "stateMutability": "nonpayable",
      "type": "function"
    },
    {
      "payable": true,
      "stateMutability": "payable",
      "type": "fallback"
    },
    {
      "anonymous": false,
      "inputs": [
        {
          "indexed": true,
          "name": "player",
          "type": "address"
        },
        {
          "indexed": false,
          "name": "no",
          "type": "uint8"
        },
        {
          "indexed": false,
          "name": "PAType",
          "type": "uint8"
        },
        {
          "indexed": false,
          "name": "PResult",
          "type": "uint8"
        },
        {
          "indexed": false,
          "name": "AIAType",
          "type": "uint8"
        },
        {
          "indexed": false,
          "name": "AIResult",
          "type": "uint8"
        }
      ],
      "name": "noResult",
      "type": "event"
    },
    {
      "anonymous": false,
      "inputs": [
        {
          "indexed": true,
          "name": "player",
          "type": "address"
        },
        {
          "indexed": false,
          "name": "playerTotal",
          "type": "uint8"
        },
        {
          "indexed": false,
          "name": "oppTotal",
          "type": "uint8"
        },
        {
          "indexed": false,
          "name": "result",
          "type": "uint8"
        }
      ],
      "name": "finalResult",
      "type": "event"
    },
    {
      "constant": false,
      "inputs": [
        {
          "name": "_type",
          "type": "uint8"
        }
      ],
      "name": "StartGame",
      "outputs": [],
      "payable": false,
      "stateMutability": "nonpayable",
      "type": "function"
    },
    {
      "constant": false,
      "inputs": [],
      "name": "BetGame",
      "outputs": [],
      "payable": true,
      "stateMutability": "payable",
      "type": "function"
    },
    {
      "constant": false,
      "inputs": [
        {
          "name": "_atkType",
          "type": "uint8"
        }
      ],
      "name": "Attack",
      "outputs": [],
      "payable": false,
      "stateMutability": "nonpayable",
      "type": "function"
    },
    {
      "constant": true,
      "inputs": [],
      "name": "inquireETH",
      "outputs": [
        {
          "name": "",
          "type": "uint256"
        }
      ],
      "payable": false,
      "stateMutability": "view",
      "type": "function"
    },
    {
      "constant": true,
      "inputs": [
        {
          "name": "_address",
          "type": "address"
        }
      ],
      "name": "inquireProcess",
      "outputs": [
        {
          "name": "",
          "type": "uint8"
        }
      ],
      "payable": false,
      "stateMutability": "view",
      "type": "function"
    },
    {
      "constant": true,
      "inputs": [
        {
          "name": "_address",
          "type": "address"
        },
        {
          "name": "no",
          "type": "uint8"
        }
      ],
      "name": "inquireGame",
      "outputs": [
        {
          "name": "_no",
          "type": "uint8"
        },
        {
          "name": "_PScore",
          "type": "uint8"
        },
        {
          "name": "_PAType",
          "type": "uint8"
        },
        {
          "name": "_PResult",
          "type": "uint8"
        },
        {
          "name": "_AIScore",
          "type": "uint8"
        },
        {
          "name": "_AIAType",
          "type": "uint8"
        },
        {
          "name": "_AIResult",
          "type": "uint8"
        }
      ],
      "payable": false,
      "stateMutability": "view",
      "type": "function"
    },
    {
      "constant": true,
      "inputs": [
        {
          "name": "_address",
          "type": "address"
        }
      ],
      "name": "inquireSelf",
      "outputs": [
        {
          "name": "_type",
          "type": "uint8"
        },
        {
          "name": "_speed",
          "type": "uint8"
        },
        {
          "name": "_shooting",
          "type": "uint8"
        },
        {
          "name": "_jumping",
          "type": "uint8"
        },
        {
          "name": "_defense",
          "type": "uint8"
        },
        {
          "name": "_avatar",
          "type": "uint8"
        },
        {
          "name": "_PtotScore",
          "type": "uint8"
        }
      ],
      "payable": false,
      "stateMutability": "view",
      "type": "function"
    },
    {
      "constant": true,
      "inputs": [
        {
          "name": "_address",
          "type": "address"
        }
      ],
      "name": "inquireOpp",
      "outputs": [
        {
          "name": "_type",
          "type": "uint8"
        },
        {
          "name": "_speed",
          "type": "uint8"
        },
        {
          "name": "_shooting",
          "type": "uint8"
        },
        {
          "name": "_jumping",
          "type": "uint8"
        },
        {
          "name": "_defense",
          "type": "uint8"
        },
        {
          "name": "_avatar",
          "type": "uint8"
        },
        {
          "name": "_AItotScore",
          "type": "uint8"
        }
      ],
      "payable": false,
      "stateMutability": "view",
      "type": "function"
    },
    {
      "constant": false,
      "inputs": [],
      "name": "withdraw_allETH",
      "outputs": [],
      "payable": false,
      "stateMutability": "nonpayable",
      "type": "function"
    }
  ],
  "bytecode": "0x608060405260008054600160a060020a031916331790556126b3806100256000396000f3fe6080604052600436106101085760e060020a60003504630eb700c0811461010a5780632a66ae22146101595780632fcea6c4146101865780633abfcbde146101b85780633b3dca76146101cd57806345fcdf9e146101f4578063481c6a751461026c578063497a09df146102815780634d78ae55146102bd5780635ec3b9f21461030657806364ff6269146103455780636730345b1461035a578063778a6f53146103625780637c96d6981461037757806395ebe8a7146103aa57806396e156c2146103bf578063a43c249614610406578063ac5e3a3a14610439578063b61500e414610466578063dd09adef1461047b578063dfdeccfc14610490578063e8b5b796146104c9575b005b34801561011657600080fd5b5061013d6004803603602081101561012d57600080fd5b5035600160a060020a03166104fc565b60408051600160a060020a039092168252519081900360200190f35b34801561016557600080fd5b506101086004803603602081101561017c57600080fd5b503560ff16610592565b34801561019257600080fd5b50610108600480360360408110156101a957600080fd5b50803590602001351515610b71565b3480156101c457600080fd5b5061013d610be9565b3480156101d957600080fd5b506101e2610c60565b60408051918252519081900360200190f35b34801561020057600080fd5b506102276004803603602081101561021757600080fd5b5035600160a060020a0316610cd1565b6040805160ff988916815296881660208801529487168686015292861660608601529085166080850152841660a084015290921660c082015290519081900360e00190f35b34801561027857600080fd5b5061013d610d34565b34801561028d57600080fd5b50610227600480360360408110156102a457600080fd5b508035600160a060020a0316906020013560ff16610d43565b3480156102c957600080fd5b506102f0600480360360208110156102e057600080fd5b5035600160a060020a0316610f4a565b6040805160ff9092168252519081900360200190f35b34801561031257600080fd5b506101086004803603606081101561032957600080fd5b5080359060208101359060400135600160a060020a0316611029565b34801561035157600080fd5b5061013d6110fa565b61010861113f565b34801561036e57600080fd5b506101e26111da565b34801561038357600080fd5b506102276004803603602081101561039a57600080fd5b5035600160a060020a031661121f565b3480156103b657600080fd5b506101e261127c565b3480156103cb57600080fd5b506103f2600480360360208110156103e257600080fd5b5035600160a060020a0316611281565b604080519115158252519081900360200190f35b34801561041257600080fd5b506101086004803603602081101561042957600080fd5b5035600160a060020a03166112e3565b34801561044557600080fd5b506101086004803603602081101561045c57600080fd5b503560ff16611312565b34801561047257600080fd5b5061013d611830565b34801561048757600080fd5b506101086118a5565b34801561049c57600080fd5b50610108600480360360408110156104b357600080fd5b50600160a060020a038135169060200135611957565b3480156104d557600080fd5b50610108600480360360208110156104ec57600080fd5b5035600160a060020a03166119d1565b60006105066110fa565b600160a060020a0316630eb700c0836040518263ffffffff1660e060020a0281526004018082600160a060020a0316600160a060020a0316815260200191505060206040518083038186803b15801561055e57600080fd5b505afa158015610572573d6000803e3d6000fd5b505050506040513d602081101561058857600080fd5b505190505b919050565b3360009081526002602081905260409091200154610100900460ff1615156105b957600080fd5b60008160ff16101580156105d0575060038160ff16105b15156105db57600080fd5b336000908152600260208190526040909120015460056201000090910460ff161061060557600080fd5b3360009081526002602081905260408220018054600160ff62010000808404821692909201160262ff0000199091161790556003610641611a62565b81151561064a57fe5b336000908152600260205260408120805460019091015493909206935060ff6101008304811693620100008404821693630100000090048216926401000000009091048216918190819081908a1615156106b3576106aa88888888611a9c565b945091506106e8565b8960ff16600114156106cb576106aa88888888611c05565b8960ff16600214156106e8576106e388888888611d39565b945091505b3360009081526002602052604090206001810154905460ff610100830481169a5062010000830481169950630100000090920482169750640100000000900481169550891615156107485761073f88888888611a9c565b9350905061077d565b8860ff16600114156107605761073f88888888611c05565b8860ff166002141561077d5761077888888888611d39565b935090505b3360008181526002602081815260409283902090910154825160ff62010000909204821681528e821692810192909252858116828401528c811660608301528416608082015290517fc1b0dfbd919ba086fcb2dbed7328b44e74e13c729661c9fdb3e28220c19ae0aa9181900360a00190a2336000908152600260205260409020600901546108159060ff168563ffffffff611e2d16565b336000908152600260205260409020600901805460ff191660ff9283161790819055610848916101009091041684611e2d565b6002600033600160a060020a0316600160a060020a0316815260200190815260200160002060090160016101000a81548160ff021916908360ff1602179055506002600033600160a060020a0316600160a060020a0316815260200190815260200160002060030184908060018154018082558091505090600182039060005260206000209060209182820401919006909192909190916101000a81548160ff021916908360ff160217905550506002600033600160a060020a0316600160a060020a031681526020019081526020016000206005018a908060018154018082558091505090600182039060005260206000209060209182820401919006909192909190916101000a81548160ff021916908360ff160217905550506002600033600160a060020a0316600160a060020a0316815260200190815260200160002060070182908060018154018082558091505090600182039060005260206000209060209182820401919006909192909190916101000a81548160ff021916908360ff160217905550506002600033600160a060020a0316600160a060020a0316815260200190815260200160002060040183908060018154018082558091505090600182039060005260206000209060209182820401919006909192909190916101000a81548160ff021916908360ff160217905550506002600033600160a060020a0316600160a060020a0316815260200190815260200160002060060189908060018154018082558091505090600182039060005260206000209060209182820401919006909192909190916101000a81548160ff021916908360ff160217905550506002600033600160a060020a0316600160a060020a0316815260200190815260200160002060080181908060018154018082558091505090600182039060005260206000209060209182820401919006909192909190916101000a81548160ff021916908360ff160217905550506002600033600160a060020a0316600160a060020a0316815260200190815260200160002060020160029054906101000a900460ff1660ff1660051415610b6557610b65611e94565b50505050505050505050565b610b79611830565b600160a060020a0316632fcea6c483836040518363ffffffff1660e060020a028152600401808381526020018215151515815260200192505050600060405180830381600087803b158015610bcd57600080fd5b505af1158015610be1573d6000803e3d6000fd5b505050505050565b6000610bf36110fa565b600160a060020a0316633abfcbde6040518163ffffffff1660e060020a02815260040160206040518083038186803b158015610c2e57600080fd5b505afa158015610c42573d6000803e3d6000fd5b505050506040513d6020811015610c5857600080fd5b505190505b90565b6000610c6a6125f7565b60208160008073c327ff1025c5b3d2deb5e3f0f161b3f7e557579a600019fa1515610c9457600080fd5b425a915160408051602081810194909452808201949094526060808501929092528051808503909201825260809093019092528151910120919050565b600160a060020a03166000908152600260205260409020600181015460099091015460ff80831693610100808504831694620100008104841694630100000082048516946401000000008304811694650100000000009093048116939091041690565b600054600160a060020a031681565b600160a060020a03821660009081526002602052604081206003015481908190819081908190819081108015610d7c575060058760ff16105b1515610d8757600080fd5b600160a060020a0389166000908152600260205260409020600301805489985060ff8916908110610db457fe5b600091825260208083208183040154600160a060020a038d168452600290915260409092206005018054601f9092166101000a90920460ff90811698508a16908110610dfc57fe5b600091825260208083208183040154600160a060020a038d168452600290915260409092206007018054601f9092166101000a90920460ff90811697508a16908110610e4457fe5b600091825260208083208183040154600160a060020a038d168452600290915260409092206004018054601f9092166101000a90920460ff90811696508a16908110610e8c57fe5b600091825260208083208183040154600160a060020a038d168452600290915260409092206006018054601f9092166101000a90920460ff90811695508a16908110610ed457fe5b600091825260208083208183040154600160a060020a038d168452600290915260409092206008018054601f9092166101000a90920460ff90811694508a16908110610f1c57fe5b90600052602060002090602091828204019190069054906101000a900460ff16905092959891949750929550565b600160a060020a03811660009081526002602081905260408220015460ff16158015610f985750600160a060020a03821660009081526002602081905260409091200154610100900460ff16155b15610fa55750600061058d565b600160a060020a0382166000908152600260208190526040909120015460ff1615610fd25750600161058d565b600160a060020a03821660009081526002602081905260409091200154610100900460ff16801561101c5750600160a060020a038216600090815260026020526040902060030154155b1561058d5750600261058d565b8183106110725761103a8184611957565b600061104533611281565b156110615761105c611056336104fc565b82611957565b61106c565b61106c611056610be9565b506110f5565b61107c8184611957565b600061108e838563ffffffff6120ea16565b905060006110a382600a63ffffffff61213316565b905060006110b883605a63ffffffff61213316565b90506110c5816001610b71565b6110ce33611281565b156110ea576110e56110df336104fc565b83611957565b610be1565b610be16110df610be9565b505050565b6000611104611830565b600160a060020a03166364ff62696040518163ffffffff1660e060020a02815260040160206040518083038186803b158015610c2e57600080fd5b336000908152600260208190526040909120015460ff16151561116157600080fd5b3360009081526002602081905260409091200154610100900460ff161561118757600080fd5b670de0b6b3a764000034101580156111a75750678ac7230489e800003411155b15156111b257600080fd5b33600090815260026020819052604090912034600a82015501805461ff001916610100179055565b60006111e4611830565b600160a060020a031663778a6f536040518163ffffffff1660e060020a02815260040160206040518083038186803b158015610c2e57600080fd5b600160a060020a03166000908152600260205260409020805460099091015460ff80831693610100840482169362010000810483169363010000008204841693640100000000830481169365010000000000909304811692911690565b303190565b600061128b6110fa565b600160a060020a03166396e156c2836040518263ffffffff1660e060020a0281526004018082600160a060020a0316600160a060020a0316815260200191505060206040518083038186803b15801561055e57600080fd5b6001805473ffffffffffffffffffffffffffffffffffffffff1916600160a060020a0392909216919091179055565b336000908152600260208190526040909120015460ff161561133357600080fd5b60008160ff161015801561134a575060048160ff16105b15156113a0576040805160e560020a62461bcd02815260206004820152601260248201527f596f757220747970652069732077726f6e670000000000000000000000000000604482015290519081900360640190fd5b60008060008060008060046113b3611a62565b8115156113bc57fe5b0690506113c887612156565b809650819750829850839950849a505050505050866002600033600160a060020a0316600160a060020a0316815260200190815260200160002060000160000160006101000a81548160ff021916908360ff160217905550856002600033600160a060020a0316600160a060020a0316815260200190815260200160002060000160000160016101000a81548160ff021916908360ff160217905550846002600033600160a060020a0316600160a060020a0316815260200190815260200160002060000160000160026101000a81548160ff021916908360ff160217905550836002600033600160a060020a0316600160a060020a0316815260200190815260200160002060000160000160036101000a81548160ff021916908360ff160217905550826002600033600160a060020a0316600160a060020a0316815260200190815260200160002060000160000160046101000a81548160ff021916908360ff160217905550816002600033600160a060020a0316600160a060020a0316815260200190815260200160002060000160000160056101000a81548160ff021916908360ff16021790555061157d81612156565b809650819750829850839950849a505050505050806002600033600160a060020a0316600160a060020a0316815260200190815260200160002060010160000160006101000a81548160ff021916908360ff160217905550856002600033600160a060020a0316600160a060020a0316815260200190815260200160002060010160000160016101000a81548160ff021916908360ff160217905550846002600033600160a060020a0316600160a060020a0316815260200190815260200160002060010160000160026101000a81548160ff021916908360ff160217905550836002600033600160a060020a0316600160a060020a0316815260200190815260200160002060010160000160036101000a81548160ff021916908360ff160217905550826002600033600160a060020a0316600160a060020a0316815260200190815260200160002060010160000160046101000a81548160ff021916908360ff160217905550816002600033600160a060020a0316600160a060020a0316815260200190815260200160002060010160000160056101000a81548160ff021916908360ff16021790555060006002600033600160a060020a0316600160a060020a031681526020019081526020016000206003018161175e9190612616565b5033600090815260026020526040812061177b9060040182612616565b503360009081526002602052604081206117989060050182612616565b503360009081526002602052604081206117b59060060182612616565b503360009081526002602052604081206117d29060070182612616565b503360009081526002602052604081206117ef9060080182612616565b5050336000908152600260208190526040822060098101805461ffff191690559081018054600a9092019290925562ff00ff19166001179055505050505050565b600154600090600160a060020a03161515611895576040805160e560020a62461bcd02815260206004820152601760248201527f706f6f6c2061646472657373206973206e6f7420736574000000000000000000604482015290519081900360640190fd5b50600154600160a060020a031690565b600054600160a060020a03163314611907576040805160e560020a62461bcd02815260206004820152600c60248201527f4973206e6f74206f776e65720000000000000000000000000000000000000000604482015290519081900360640190fd5b60005461191c90600160a060020a0316610c5d565b604051600160a060020a039190911690303180156108fc02916000818181858888f19350505050158015611954573d6000803e3d6000fd5b50565b61195f611830565b604080517ffde1c413000000000000000000000000000000000000000000000000000000008152306004820152600160a060020a038581166024830152604482018590529151929091169163fde1c4139160648082019260009290919082900301818387803b158015610bcd57600080fd5b600054600160a060020a03163314611a33576040805160e560020a62461bcd02815260206004820152600c60248201527f4973206e6f74206f776e65720000000000000000000000000000000000000000604482015290519081900360640190fd5b6000805473ffffffffffffffffffffffffffffffffffffffff1916600160a060020a0392909216919091179055565b6000611a6c6125f7565b60208160008073c327ff1025c5b3d2deb5e3f0f161b3f7e557579a600019fa1515611a9657600080fd5b51919050565b600080611aa761264a565b611aaf611a62565b8152611ab9611a62565b6020820152611ac6611a62565b6040820152611ad3611a62565b606082015280516000908190611b2b90611b1a90606490611b0a9060339061ffff1660ff8f1691601e91060163ffffffff6122b916565b61ffff169063ffffffff61233d16565b61ffff84169063ffffffff6123b516565b9150611b64611b1a6064611b0a601f876001602002015161ffff16811515611b4f57fe5b60ff8e1691603c91060163ffffffff6122b916565b9150611b9d611b1a6064611b0a6033876002602002015161ffff16811515611b8857fe5b60ff8d1691601e91060163ffffffff6122b916565b9150611bd36064611b0a601f866003602002015161ffff16811515611bbe57fe5b60ff8b1691604691060163ffffffff6122b916565b9050606461ffff8284031610611bf0576002935060019450611bf9565b60009350600094505b50505094509492505050565b600080611c1061264a565b611c18611a62565b8152611c22611a62565b6020820152611c2f611a62565b6040820152611c3c611a62565b606082015280516000908190611c7390611b1a90606490611b0a9060299061ffff1660ff8f1691600a91060163ffffffff6122b916565b9150611cac611b1a6064611b0a603d876001602002015161ffff16811515611c9757fe5b60ff8e1691602891060163ffffffff6122b916565b9150611ce5611b1a6064611b0a601f876002602002015161ffff16811515611cd057fe5b60ff8d1691601491060163ffffffff6122b916565b9150611d1c6064611b0a601f8660035b602002015161ffff16811515611d0757fe5b60ff8b1691603291060163ffffffff6122b916565b9050606461ffff8284031610611bf0576003935060019450611bf9565b600080611d4461264a565b611d4c611a62565b8152611d56611a62565b6020820152611d63611a62565b6040820152611d70611a62565b606082015280516000908190611da790611b1a90606490611b0a90601f9061ffff1660ff8f1691603291060163ffffffff6122b916565b9150611de0611b1a6064611b0a600b876001602002015161ffff16811515611dcb57fe5b60ff8e1691601491060163ffffffff6122b916565b9150611e19611b1a6064611b0a6033876002602002015161ffff16811515611e0457fe5b60ff8d1691603291060163ffffffff6122b916565b9150611bd36064611b0a601f866003611cf5565b81810160ff8084169082161015611e8e576040805160e560020a62461bcd02815260206004820152600960248201527f616464206572726f720000000000000000000000000000000000000000000000604482015290519081900360640190fd5b92915050565b336000908152600260208190526040909120015462010000900460ff16600514611ebd57600080fd5b3360009081526002602052604081206009015460ff8082169261010090920416908082841415611f6e5733600081815260026020526040808220600a0154905181156108fc0292818181858888f19350505050158015611f21573d6000803e3d6000fd5b506040805160ff808716825285166020820152600381830152905133917f4b0393c6d2a2f50ea9cac1ffae674697662019efadf011ed0baf66dc410511db919081900360600190a26120c8565b8260ff168460ff16111561208057828403915060048260ff161015611f9557506001611fe1565b60078260ff161015611fa957506002611fe1565b600a8260ff161015611fbd57506003611fe1565b600d8260ff161015611fd157506004611fe1565b60108260ff161015611fe1575060055b6040805160ff808716825285166020820152600181830152905133917f4b0393c6d2a2f50ea9cac1ffae674697662019efadf011ed0baf66dc410511db919081900360600190a2336000818152600260205260409020600a01546108fc906120529060ff851663ffffffff61241716565b6040518115909202916000818181858888f1935050505015801561207a573d6000803e3d6000fd5b506120c8565b6040805160ff808716825285166020820152600281830152905133917f4b0393c6d2a2f50ea9cac1ffae674697662019efadf011ed0baf66dc410511db919081900360600190a25b505033600090815260026020819052604090912001805461ffff191690555050565b600061212c83836040805190810160405280601e81526020017f536166654d6174683a207375627472616374696f6e206f766572666c6f7700008152506124b3565b9392505050565b600061212c606461214a858563ffffffff61241716565b9063ffffffff61254d16565b600080600080600080612167611a62565b90506000612173611a62565b9050600061217f611a62565b9050600061218b611a62565b905060ff8a1615156121cc57601560ff8516066046019850601560ff8416066046019750601560ff8316066046019650601560ff821606604601955061228b565b8960ff166001141561220d57601560ff851606603c019850601560ff8416066050019750601560ff831606603c019650601560ff821606602801955061228b565b8960ff166002141561224e57601560ff851606603c019850601f60ff8416066028019750601560ff8316066050019650600b60ff821606605001955061228b565b8960ff166003141561228b57601560ff8516066050019850600b60ff841606603c019750601560ff831606603c019650601560ff821606603c0195505b600a61229d858263ffffffff61254d16565b60ff168115156122a957fe5b0694505050505091939590929450565b81810261ffff831615806122e757508161ffff168361ffff168261ffff168115156122e057fe5b0461ffff16145b1515611e8e576040805160e560020a62461bcd02815260206004820152600960248201527f6d756c206572726f720000000000000000000000000000000000000000000000604482015290519081900360640190fd5b600061ffff8216811061239a576040805160e560020a62461bcd02815260206004820152600960248201527f646976206572726f720000000000000000000000000000000000000000000000604482015290519081900360640190fd5b8161ffff168361ffff168115156123ad57fe5b049392505050565b81810161ffff8084169082161015611e8e576040805160e560020a62461bcd02815260206004820152600960248201527f616464206572726f720000000000000000000000000000000000000000000000604482015290519081900360640190fd5b600082151561242857506000611e8e565b82820282848281151561243757fe5b041461212c576040805160e560020a62461bcd02815260206004820152602160248201527f536166654d6174683a206d756c7469706c69636174696f6e206f766572666c6f60448201527f7700000000000000000000000000000000000000000000000000000000000000606482015290519081900360840190fd5b600081848411156125455760405160e560020a62461bcd0281526004018080602001828103825283818151815260200191508051906020019080838360005b8381101561250a5781810151838201526020016124f2565b50505050905090810190601f1680156125375780820380516001836020036101000a031916815260200191505b509250505060405180910390fd5b505050900390565b600061212c83836040805190810160405280601a81526020017f536166654d6174683a206469766973696f6e206279207a65726f0000000000008152506000818184116125df5760405160e560020a62461bcd0281526004018080602001828103825283818151815260200191508051906020019080838360008381101561250a5781810151838201526020016124f2565b50600083858115156125ed57fe5b0495945050505050565b6020604051908101604052806001906020820280388339509192915050565b8154818355818111156110f557601f016020900481601f016020900483600052602060002091820191016110f59190612669565b6080604051908101604052806004906020820280388339509192915050565b610c5d91905b80821115612683576000815560010161266f565b509056fea165627a7a723058207b2d033d5559ed648285aa2279c2363240bad68234f89ddc5b32a7841830b8600029",
  "source": "pragma solidity >=0.5.0 <0.6.0;\r\n\r\nimport \"./connectChips.sol\";\r\n\r\ncontract Manager{\r\n\r\n    address public manager;\r\n\r\n    constructor() public{\r\n        manager = msg.sender;\r\n    }\r\n\r\n    modifier onlyManager{\r\n        require(msg.sender == manager, \"Is not owner\");\r\n        _;\r\n    }\r\n\r\n    function transferownership(address _new_manager) public onlyManager {\r\n        manager = _new_manager;\r\n    }\r\n}\r\n\r\nlibrary Address {\r\n    \r\n    function isContract(address account) internal view returns (bool) {\r\n\r\n        bytes32 codehash;\r\n        bytes32 accountHash = 0xc5d2460186f7233c927e7db2dcc703c0e500b653ca82273b7bfad8045d85a470;\r\n        \r\n        assembly { codehash := extcodehash(account) }\r\n        return (codehash != 0x0 && codehash != accountHash);\r\n    }\r\n\r\n    \r\n    function toPayable(address account) internal pure returns (address payable) {\r\n        return address(uint160(account));\r\n    }\r\n}\r\n\r\ncontract Basketball is Manager, ConnectChips{\r\n    \r\n    using SafeMath for uint;\r\n    using SafeMath16 for uint16;\r\n    using SafeMath8 for uint8;\r\n    using Address for address;\r\n    \r\n    mapping(address => role) private player_Info;\r\n    \r\n    //\r\n    event noResult(address indexed player,uint8 no,uint8 PAType, uint8 PResult, uint8 AIAType, uint8 AIResult);\r\n    event finalResult(address indexed player,uint8 playerTotal, uint8 oppTotal, uint8 result); //  result => 1 =   2 =   3 = \r\n     \r\n    struct info{\r\n        uint8 _type;\r\n        uint8 speed;\r\n        uint8 shooting;\r\n        uint8 jumping;\r\n        uint8 defense;\r\n        uint8 avatar;\r\n    }\r\n    \r\n    struct role{\r\n        info self;             //\r\n        info opponent;         //\r\n        bool starGame;\r\n        bool betGame;\r\n        uint8 count;           //\r\n        uint8[] PScore;\r\n        uint8[] AIScore;\r\n        uint8[] PType;\r\n        uint8[] AIType;\r\n        uint8[] PResult;\r\n        uint8[] AIResult;\r\n        uint8 PtotScore;       //\r\n        uint8 AItotScore;      //\r\n        uint betMoney;\r\n    }\r\n    \r\n    function() external payable{}\r\n\r\n    function getRandom() private view returns (uint256) {\r\n        uint256[1] memory m;\r\n        assembly {\r\n            if iszero(staticcall(not(0), 0xC327fF1025c5B3D2deb5e3F0f161B3f7E557579a,0, 0x0, m, 0x20)) {\r\n                revert(0, 0)\r\n            }\r\n        }\r\n        return m[0];\r\n    }\r\n    \r\n    function StartGame(uint8 _type) public {\r\n        require(!player_Info[msg.sender].starGame);\r\n        require(_type >= 0 && _type < 4,\"Your type is wrong\");\r\n        uint8 _speed;\r\n        uint8 _shooting;\r\n        uint8 _jumping;\r\n        uint8 _defense;\r\n        uint8 _avatar;\r\n        uint8 oppType = uint8(getRandom() % 4);\r\n        \r\n        (_speed, _shooting, _jumping, _defense, _avatar) = typeToInfo(_type);   //\r\n        player_Info[msg.sender].self._type = _type;\r\n        player_Info[msg.sender].self.speed = _speed;\r\n        player_Info[msg.sender].self.shooting = _shooting;\r\n        player_Info[msg.sender].self.jumping = _jumping;\r\n        player_Info[msg.sender].self.defense = _defense;\r\n        player_Info[msg.sender].self.avatar = _avatar;\r\n        \r\n        (_speed, _shooting, _jumping, _defense, _avatar) = typeToInfo(oppType); //\r\n        player_Info[msg.sender].opponent._type = oppType;\r\n        player_Info[msg.sender].opponent.speed = _speed;\r\n        player_Info[msg.sender].opponent.shooting = _shooting;\r\n        player_Info[msg.sender].opponent.jumping = _jumping;\r\n        player_Info[msg.sender].opponent.defense = _defense;\r\n        player_Info[msg.sender].opponent.avatar = _avatar;\r\n        \r\n        player_Info[msg.sender].PScore.length = 0;\r\n        player_Info[msg.sender].AIScore.length = 0;\r\n        player_Info[msg.sender].PType.length = 0;\r\n        player_Info[msg.sender].AIType.length = 0;\r\n        player_Info[msg.sender].PResult.length = 0;\r\n        player_Info[msg.sender].AIResult.length = 0;\r\n        \r\n        player_Info[msg.sender].PtotScore = 0;\r\n        player_Info[msg.sender].AItotScore = 0;\r\n        player_Info[msg.sender].count = 0;\r\n        player_Info[msg.sender].betMoney = 0;\r\n        \r\n        \r\n        player_Info[msg.sender].starGame = true;\r\n    }\r\n    \r\n    \r\n    function BetGame() public payable {                         //\r\n        require(player_Info[msg.sender].starGame);\r\n        require(!player_Info[msg.sender].betGame);\r\n        require(msg.value >= 1 ether && msg.value <= 10 ether);\r\n        player_Info[msg.sender].betMoney = msg.value;\r\n        player_Info[msg.sender].betGame = true;\r\n  \r\n    }\r\n    \r\n    function Attack(uint8 _atkType) public {                    //\r\n        \r\n        require(player_Info[msg.sender].betGame);\r\n        require(_atkType >=0 && _atkType < 3);\r\n        require(player_Info[msg.sender].count < 5);\r\n        \r\n        player_Info[msg.sender].count++;                        //+1\r\n        \r\n        uint8 opp_atkType = uint8(getRandom() % 3);             //\r\n        uint8 _speed;\r\n        uint8 _shooting;\r\n        uint8 _jumping;\r\n        uint8 _def;\r\n        uint8 _PScore = 0;\r\n        uint8 _AIScore = 0;\r\n        uint8 pResult;\r\n        uint8 aiResult;\r\n         \r\n        _speed = player_Info[msg.sender].self.speed;\r\n        _shooting = player_Info[msg.sender].self.shooting;\r\n        _jumping = player_Info[msg.sender].self.jumping;\r\n        _def = player_Info[msg.sender].opponent.defense;\r\n        \r\n        if(_atkType == 0){\r\n            (pResult,_PScore) = TwoShooting(_speed,_shooting,_jumping,_def);\r\n        }else if(_atkType == 1){\r\n            (pResult,_PScore) = ThreeShooting(_speed,_shooting,_jumping,_def);\r\n        }else if(_atkType == 2){\r\n            (pResult,_PScore) = SlamDunk(_speed,_shooting,_jumping,_def);\r\n        }\r\n        \r\n        _speed = player_Info[msg.sender].opponent.speed;\r\n        _shooting = player_Info[msg.sender].opponent.shooting;\r\n        _jumping = player_Info[msg.sender].opponent.jumping;\r\n        _def = player_Info[msg.sender].self.defense;\r\n        \r\n        if(opp_atkType == 0){\r\n            (aiResult,_AIScore) = TwoShooting(_speed,_shooting,_jumping,_def);\r\n        }else if(opp_atkType == 1){\r\n            (aiResult,_AIScore) = ThreeShooting(_speed,_shooting,_jumping,_def);\r\n        }else if(opp_atkType == 2){\r\n            (aiResult,_AIScore) = SlamDunk(_speed,_shooting,_jumping,_def);\r\n        }\r\n        \r\n        emit noResult(msg.sender,player_Info[msg.sender].count,_atkType, pResult, opp_atkType, aiResult);\r\n        \r\n        player_Info[msg.sender].PtotScore = player_Info[msg.sender].PtotScore.add(_PScore);     //\r\n        player_Info[msg.sender].AItotScore = player_Info[msg.sender].AItotScore.add(_AIScore);  //\r\n        \r\n        player_Info[msg.sender].PScore.push(_PScore);           //\r\n        player_Info[msg.sender].PType.push(_atkType);\r\n        player_Info[msg.sender].PResult.push(pResult);\r\n        \r\n        player_Info[msg.sender].AIScore.push(_AIScore);         //\r\n        player_Info[msg.sender].AIType.push(opp_atkType);\r\n        player_Info[msg.sender].AIResult.push(aiResult);\r\n        \r\n        if(player_Info[msg.sender].count == 5){\r\n            EndGame();\r\n        }\r\n        \r\n\r\n    }\r\n    \r\n    function TwoShooting(uint8 _speed,uint8 _shooting, uint8 _jumping, uint8 _def) private view returns(uint8 result, uint8 caller_score){ \r\n    //2    \r\n        uint[4] memory random;\r\n\r\n        random[0] = getRandom();\r\n        random[1] = getRandom();\r\n        random[2] = getRandom();\r\n        random[3] = getRandom();\r\n           \r\n\r\n        uint16 caller_Atk = 0;\r\n        uint16 opp_Def = 0;\r\n        \r\n        caller_Atk = caller_Atk.add(uint16(_speed).mul(uint16(random[0]) % 51 + 30).div(100));\r\n        caller_Atk = caller_Atk.add(uint16(_shooting).mul(uint16(random[1]) % 31 + 60).div(100));\r\n        caller_Atk = caller_Atk.add(uint16(_jumping).mul(uint16(random[2]) % 51 + 30).div(100));\r\n        \r\n        opp_Def = uint16(_def).mul(uint16(random[3]) % 31 + 70).div(100);\r\n        if((caller_Atk - opp_Def) >= 100){\r\n            caller_score = 2;\r\n            result = 1;\r\n        }else{\r\n            caller_score = 0;\r\n            result = 0;\r\n        }\r\n\r\n    }\r\n    \r\n    function ThreeShooting(uint8 _speed,uint8 _shooting, uint8 _jumping, uint8 _def) private view returns(uint8 result, uint8 caller_score){ \r\n    //3   \r\n        uint[4] memory random;\r\n\r\n        random[0] = getRandom();\r\n        random[1] = getRandom();\r\n        random[2] = getRandom();\r\n        random[3] = getRandom();\r\n\r\n        uint16 caller_Atk = 0;\r\n        uint16 opp_Def = 0;\r\n        \r\n        caller_Atk = caller_Atk.add(uint16(_speed).mul(uint16(random[0]) % 41 + 10).div(100));\r\n        caller_Atk = caller_Atk.add(uint16(_shooting).mul(uint16(random[1]) % 61 + 40).div(100));\r\n        caller_Atk = caller_Atk.add(uint16(_jumping).mul(uint16(random[2]) % 31 + 20).div(100));\r\n        \r\n        opp_Def = uint16(_def).mul(uint16(random[3]) % 31 + 50).div(100);\r\n        if((caller_Atk - opp_Def) >= 100){\r\n            caller_score = 3;\r\n            result = 1;\r\n        }else{\r\n            caller_score = 0;\r\n            result = 0;\r\n        }\r\n\r\n    }\r\n    \r\n    function SlamDunk(uint8 _speed,uint8 _shooting, uint8 _jumping, uint8 _def) private view returns(uint8 result, uint8 caller_score){ \r\n    //   \r\n        uint[4] memory random;\r\n\r\n        random[0] = getRandom();\r\n        random[1] = getRandom();\r\n        random[2] = getRandom();\r\n        random[3] = getRandom();\r\n\r\n        uint16 caller_Atk = 0;\r\n        uint16 opp_Def = 0;\r\n        \r\n        caller_Atk = caller_Atk.add(uint16(_speed).mul(uint16(random[0]) % 31 + 50).div(100));\r\n        caller_Atk = caller_Atk.add(uint16(_shooting).mul(uint16(random[1]) % 11 + 20).div(100));\r\n        caller_Atk = caller_Atk.add(uint16(_jumping).mul(uint16(random[2]) % 51 + 50).div(100));\r\n        \r\n        opp_Def = uint16(_def).mul(uint16(random[3]) % 31 + 50).div(100);\r\n        if((caller_Atk - opp_Def) >= 100){\r\n            caller_score = 2;\r\n            result = 1;\r\n        }else{\r\n            caller_score = 0;\r\n            result = 0;\r\n        }\r\n\r\n    }\r\n    \r\n    function EndGame() private{\r\n        require(player_Info[msg.sender].count == 5);\r\n        uint8 PtotScore = player_Info[msg.sender].PtotScore;\r\n        uint8 AItotScore = player_Info[msg.sender].AItotScore;\r\n        uint8 subScore;\r\n        uint8 winRate;\r\n        \r\n        if(PtotScore == AItotScore){                        //\r\n            msg.sender.transfer(player_Info[msg.sender].betMoney);\r\n            emit finalResult(msg.sender,PtotScore,AItotScore,3);\r\n        }else if(PtotScore > AItotScore){                   //\r\n            subScore = PtotScore - AItotScore;\r\n            if(subScore < 4){\r\n                winRate = 1;\r\n            }else if(subScore < 7){\r\n                winRate = 2;\r\n            }else if(subScore < 10){\r\n                winRate = 3;\r\n            }else if(subScore < 13){\r\n                winRate = 4;\r\n            }else if(subScore < 16){\r\n                winRate = 5;\r\n            }\r\n            emit finalResult(msg.sender,PtotScore,AItotScore,1);\r\n            msg.sender.transfer(player_Info[msg.sender].betMoney.mul(winRate));\r\n        }else{\r\n             emit finalResult(msg.sender,PtotScore,AItotScore,2);\r\n        }\r\n \r\n        \r\n        player_Info[msg.sender].starGame = false;\r\n        player_Info[msg.sender].betGame = false;\r\n    \r\n    }\r\n    \r\n    function typeToInfo(uint8 _type) private view returns(uint8 _speed, uint8 _shooting, uint8 _jumping, uint8 _defense, uint8 _avatar){\r\n    //    \r\n        uint random1 = getRandom();\r\n        uint random2 = getRandom();\r\n        uint random3 = getRandom();\r\n        uint random4 = getRandom();\r\n        \r\n        if(_type == 0){\r\n            _speed = uint8(random1) % 21 + 70;\r\n            _shooting = uint8(random2) % 21 + 70;\r\n            _jumping = uint8(random3) % 21 + 70;\r\n            _defense = uint8(random4) % 21 + 70;\r\n            \r\n        }else if(_type == 1){\r\n            _speed = uint8(random1) % 21 + 60;\r\n            _shooting = uint8(random2) % 21 + 80;\r\n            _jumping = uint8(random3) % 21 + 60;\r\n            _defense = uint8(random4) % 21 + 40;\r\n        }else if(_type == 2){\r\n            _speed = uint8(random1) % 21 + 60;\r\n            _shooting = uint8(random2) % 31 + 40;\r\n            _jumping = uint8(random3) % 21 + 80;\r\n            _defense = uint8(random4) % 11 + 80;\r\n        }else if(_type == 3){\r\n            _speed = uint8(random1) % 21 + 80;\r\n            _shooting = uint8(random2) % 11 + 60;\r\n            _jumping = uint8(random3) % 21 + 60;\r\n            _defense = uint8(random4) % 21 + 60;\r\n        }\r\n        \r\n        _avatar = uint8(random1.div(10)) % 10;\r\n\r\n    }\r\n    \r\n    //inquire\r\n    function inquireETH() public view returns(uint){\r\n        return address(this).balance;\r\n    }\r\n    \r\n    function inquireProcess(address _address) public view returns(uint8){\r\n        if(!player_Info[_address].starGame && !player_Info[_address].betGame){\r\n            return 0;\r\n        }else if(player_Info[_address].starGame){\r\n            return 1;\r\n        }else if(player_Info[_address].betGame && player_Info[_address].PScore.length == 0){\r\n            return 2;\r\n        }\r\n    }\r\n    \r\n    function inquireGame(address _address, uint8 no) public view returns(uint8 _no, uint8 _PScore, uint8 _PAType,uint8 _PResult,uint8 _AIScore, uint8 _AIAType,uint8 _AIResult){\r\n        require(_no < player_Info[_address].PScore.length && _no < 5);\r\n        \r\n        _no = no; \r\n        _PScore = player_Info[_address].PScore[no];\r\n        _PAType = player_Info[_address].PType[no];\r\n        _PResult = player_Info[_address].PResult[no];\r\n        _AIScore = player_Info[_address].AIScore[no];\r\n        _AIAType = player_Info[_address].AIType[no];\r\n        _AIResult = player_Info[_address].AIResult[no];\r\n    }\r\n    \r\n    function inquireSelf(address _address) public view returns(uint8 _type, uint8 _speed, uint8 _shooting,uint8 _jumping, uint8 _defense,uint8 _avatar,uint8 _PtotScore){\r\n        _type = player_Info[_address].self._type;\r\n        _speed = player_Info[_address].self.speed;\r\n        _shooting = player_Info[_address].self.shooting;\r\n        _jumping = player_Info[_address].self.jumping;\r\n        _defense = player_Info[_address].self.defense;\r\n        _avatar = player_Info[_address].self.avatar;\r\n        _PtotScore = player_Info[_address].PtotScore;\r\n    }\r\n    \r\n    function inquireOpp(address _address) public view returns(uint8 _type,uint8 _speed, uint8 _shooting,uint8 _jumping, uint8 _defense,uint8 _avatar,uint8 _AItotScore){\r\n        _type = player_Info[_address].opponent._type;\r\n        _speed = player_Info[_address].opponent.speed;\r\n        _shooting = player_Info[_address].opponent.shooting;\r\n        _jumping = player_Info[_address].opponent.jumping;\r\n        _defense = player_Info[_address].opponent.defense;\r\n        _avatar = player_Info[_address].opponent.avatar;\r\n        _AItotScore = player_Info[_address].AItotScore;\r\n    }\r\n    \r\n    //================================test\r\n    // function inqTest() public view returns(uint8 _cnt,bool _starGame, bool _betGame){\r\n\r\n    //     _cnt = player_Info[msg.sender].count;\r\n    //     _starGame = player_Info[msg.sender].starGame;\r\n    //     _betGame = player_Info[msg.sender].betGame;\r\n  \r\n    // }\r\n\r\n    //Manager\r\n    function withdraw_allETH() public onlyManager{\r\n        manager.toPayable().transfer(address(this).balance);\r\n    }\r\n    \r\n\r\n}\r\n\r\n\r\n\r\n\r\n\r\n\r\n\r\n\r\n\r\n\r\n\r\n\r\n\r\n\r\n",
  "sourcePath": "C:/Users/user/Documents/smart-contract/casino/contracts/Basketball.sol",
  "compiler": {
    "name": "solc",
    "version": "0.5.1+commit.c8a2cb62.Emscripten.clang"
  },
  "schemaVersion": "3.0.2",
  "updatedAt": "2020-05-27T08:46:38.286Z",
  "devdoc": {
    "methods": {}
  },
  "userdoc": {
    "methods": {}
  }
}