{
  "contractName": "blackJack",
  "abi": [
    {
      "constant": true,
      "inputs": [
        {
          "name": "player",
          "type": "address"
        }
      ],
      "name": "inqReferrer",
      "outputs": [
        {
          "name": "",
          "type": "address"
        }
      ],
      "payable": false,
      "stateMutability": "view",
      "type": "function",
      "signature": "0x0eb700c0"
    },
    {
      "constant": false,
      "inputs": [
        {
          "name": "value",
          "type": "uint256"
        },
        {
          "name": "toPlayer",
          "type": "bool"
        }
      ],
      "name": "distribute",
      "outputs": [],
      "payable": false,
      "stateMutability": "nonpayable",
      "type": "function",
      "signature": "0x2fcea6c4"
    },
    {
      "constant": true,
      "inputs": [],
      "name": "inqTeam",
      "outputs": [
        {
          "name": "",
          "type": "address"
        }
      ],
      "payable": false,
      "stateMutability": "view",
      "type": "function",
      "signature": "0x3abfcbde"
    },
    {
      "constant": true,
      "inputs": [],
      "name": "rand",
      "outputs": [
        {
          "name": "",
          "type": "uint256"
        }
      ],
      "payable": false,
      "stateMutability": "view",
      "type": "function",
      "signature": "0x3b3dca76"
    },
    {
      "constant": true,
      "inputs": [],
      "name": "manager",
      "outputs": [
        {
          "name": "",
          "type": "address"
        }
      ],
      "payable": false,
      "stateMutability": "view",
      "type": "function",
      "signature": "0x481c6a75"
    },
    {
      "constant": false,
      "inputs": [
        {
          "name": "profit",
          "type": "uint256"
        },
        {
          "name": "bet",
          "type": "uint256"
        },
        {
          "name": "to",
          "type": "address"
        }
      ],
      "name": "checkAndSend",
      "outputs": [],
      "payable": false,
      "stateMutability": "nonpayable",
      "type": "function",
      "signature": "0x5ec3b9f2"
    },
    {
      "constant": true,
      "inputs": [],
      "name": "LCTadr",
      "outputs": [
        {
          "name": "",
          "type": "address"
        }
      ],
      "payable": false,
      "stateMutability": "view",
      "type": "function",
      "signature": "0x64ff6269"
    },
    {
      "constant": true,
      "inputs": [],
      "name": "totPool",
      "outputs": [
        {
          "name": "",
          "type": "uint256"
        }
      ],
      "payable": false,
      "stateMutability": "view",
      "type": "function",
      "signature": "0x778a6f53"
    },
    {
      "constant": true,
      "inputs": [],
      "name": "superManager",
      "outputs": [
        {
          "name": "",
          "type": "address"
        }
      ],
      "payable": false,
      "stateMutability": "view",
      "type": "function",
      "signature": "0x86ea0c9b"
    },
    {
      "constant": true,
      "inputs": [
        {
          "name": "player",
          "type": "address"
        }
      ],
      "name": "inqRegistered",
      "outputs": [
        {
          "name": "",
          "type": "bool"
        }
      ],
      "payable": false,
      "stateMutability": "view",
      "type": "function",
      "signature": "0x96e156c2"
    },
    {
      "constant": false,
      "inputs": [
        {
          "name": "_new_manager",
          "type": "address"
        }
      ],
      "name": "changeManager",
      "outputs": [],
      "payable": false,
      "stateMutability": "nonpayable",
      "type": "function",
      "signature": "0xa3fbbaae"
    },
    {
      "constant": false,
      "inputs": [
        {
          "name": "newChip",
          "type": "address"
        }
      ],
      "name": "setChip",
      "outputs": [],
      "payable": false,
      "stateMutability": "nonpayable",
      "type": "function",
      "signature": "0xa43c2496"
    },
    {
      "constant": true,
      "inputs": [],
      "name": "chip",
      "outputs": [
        {
          "name": "",
          "type": "address"
        }
      ],
      "payable": false,
      "stateMutability": "view",
      "type": "function",
      "signature": "0xb61500e4"
    },
    {
      "constant": false,
      "inputs": [
        {
          "name": "to",
          "type": "address"
        },
        {
          "name": "value",
          "type": "uint256"
        }
      ],
      "name": "sendToPlayer",
      "outputs": [],
      "payable": false,
      "stateMutability": "nonpayable",
      "type": "function",
      "signature": "0xdfdeccfc"
    },
    {
      "payable": true,
      "stateMutability": "payable",
      "type": "fallback"
    },
    {
      "anonymous": false,
      "inputs": [
        {
          "indexed": true,
          "name": "player",
          "type": "address"
        },
        {
          "indexed": false,
          "name": "result",
          "type": "uint8"
        }
      ],
      "name": "startResult",
      "type": "event",
      "signature": "0x9fe42914333dbcbf47614bab3bd2265d9436acad5b16d2c36b79068eec736f33"
    },
    {
      "anonymous": false,
      "inputs": [
        {
          "indexed": true,
          "name": "player",
          "type": "address"
        },
        {
          "indexed": false,
          "name": "playerCard1",
          "type": "uint256"
        },
        {
          "indexed": false,
          "name": "playerCard2",
          "type": "uint8"
        }
      ],
      "name": "playerStartCards",
      "type": "event",
      "signature": "0xf682f77fada27621bacee5e5392af8e57c14ba607cea9933fee6993eff38f60e"
    },
    {
      "anonymous": false,
      "inputs": [
        {
          "indexed": true,
          "name": "player",
          "type": "address"
        },
        {
          "indexed": false,
          "name": "count",
          "type": "uint256"
        },
        {
          "indexed": false,
          "name": "newCard",
          "type": "uint8"
        }
      ],
      "name": "playerHit",
      "type": "event",
      "signature": "0x28e9b6ad90ca50d486c829fffc0899940a3789420b2a06bfb88fe01a1f77dfa0"
    },
    {
      "anonymous": false,
      "inputs": [
        {
          "indexed": true,
          "name": "player",
          "type": "address"
        },
        {
          "indexed": false,
          "name": "playerCard",
          "type": "uint8[]"
        }
      ],
      "name": "playTotal",
      "type": "event",
      "signature": "0xa8c83918e37bb8c426fd3ca7deb474a3ea2ab2d6ec7b2fc94c163208d1668b20"
    },
    {
      "anonymous": false,
      "inputs": [
        {
          "indexed": true,
          "name": "player",
          "type": "address"
        },
        {
          "indexed": false,
          "name": "bankerCard1",
          "type": "uint8"
        }
      ],
      "name": "bankCard1",
      "type": "event",
      "signature": "0x767aae10e22e7ed1a4190be44c9cdd634ff5fbe26966862f47c5375219731087"
    },
    {
      "anonymous": false,
      "inputs": [
        {
          "indexed": true,
          "name": "player",
          "type": "address"
        },
        {
          "indexed": false,
          "name": "bankerCard2",
          "type": "uint8"
        }
      ],
      "name": "bankCard2",
      "type": "event",
      "signature": "0xeba66e16a64c66a0753c5213018cf822e6be602b40fab0a625c56f5c56f71bdb"
    },
    {
      "anonymous": false,
      "inputs": [
        {
          "indexed": true,
          "name": "player",
          "type": "address"
        },
        {
          "indexed": false,
          "name": "bankerCard",
          "type": "uint8[]"
        }
      ],
      "name": "bankTotal",
      "type": "event",
      "signature": "0xfdc3f68f57db4b6f8a959d94cfc0309dc7a6c314afe930d56266483061a214e9"
    },
    {
      "anonymous": false,
      "inputs": [
        {
          "indexed": false,
          "name": "result",
          "type": "uint8"
        },
        {
          "indexed": false,
          "name": "playerCard",
          "type": "uint8"
        },
        {
          "indexed": false,
          "name": "bankerCard",
          "type": "uint8"
        }
      ],
      "name": "gameOver",
      "type": "event",
      "signature": "0xd13dc093b5a939fda2be3449eaf7d8882a1e866f4a1e4d89f0c0aebf1955a1f7"
    },
    {
      "constant": false,
      "inputs": [
        {
          "name": "value",
          "type": "uint256"
        }
      ],
      "name": "startGame",
      "outputs": [],
      "payable": false,
      "stateMutability": "nonpayable",
      "type": "function",
      "signature": "0xe5ed1d59"
    },
    {
      "constant": false,
      "inputs": [],
      "name": "Player_Hit",
      "outputs": [],
      "payable": false,
      "stateMutability": "nonpayable",
      "type": "function",
      "signature": "0xcc20f88b"
    },
    {
      "constant": false,
      "inputs": [],
      "name": "Player_Stand",
      "outputs": [],
      "payable": false,
      "stateMutability": "nonpayable",
      "type": "function",
      "signature": "0x44c79ff3"
    },
    {
      "constant": false,
      "inputs": [],
      "name": "Banker_ShowCard",
      "outputs": [],
      "payable": false,
      "stateMutability": "nonpayable",
      "type": "function",
      "signature": "0x09892d7b"
    },
    {
      "constant": false,
      "inputs": [],
      "name": "EndGame",
      "outputs": [],
      "payable": false,
      "stateMutability": "nonpayable",
      "type": "function",
      "signature": "0xdf251e91"
    },
    {
      "constant": true,
      "inputs": [
        {
          "name": "_address",
          "type": "address"
        }
      ],
      "name": "inquireBankerCard1",
      "outputs": [
        {
          "name": "card1",
          "type": "uint8"
        }
      ],
      "payable": false,
      "stateMutability": "view",
      "type": "function",
      "signature": "0xdb98c647"
    },
    {
      "constant": true,
      "inputs": [
        {
          "name": "_address",
          "type": "address"
        }
      ],
      "name": "inquireBankerCard2",
      "outputs": [
        {
          "name": "card2",
          "type": "uint8"
        }
      ],
      "payable": false,
      "stateMutability": "view",
      "type": "function",
      "signature": "0x83bed5eb"
    },
    {
      "constant": true,
      "inputs": [
        {
          "name": "_address",
          "type": "address"
        }
      ],
      "name": "inquirePlayer",
      "outputs": [
        {
          "name": "",
          "type": "uint8[]"
        },
        {
          "name": "",
          "type": "uint8"
        }
      ],
      "payable": false,
      "stateMutability": "view",
      "type": "function",
      "signature": "0xa2a19518"
    },
    {
      "constant": true,
      "inputs": [
        {
          "name": "_address",
          "type": "address"
        }
      ],
      "name": "inquireBanker",
      "outputs": [
        {
          "name": "",
          "type": "uint8[]"
        },
        {
          "name": "",
          "type": "uint8"
        }
      ],
      "payable": false,
      "stateMutability": "view",
      "type": "function",
      "signature": "0x7a4b02ab"
    },
    {
      "constant": true,
      "inputs": [],
      "name": "inquireETH",
      "outputs": [
        {
          "name": "",
          "type": "uint256"
        }
      ],
      "payable": false,
      "stateMutability": "view",
      "type": "function",
      "signature": "0x95ebe8a7"
    },
    {
      "constant": false,
      "inputs": [],
      "name": "withdraw_allETH",
      "outputs": [],
      "payable": false,
      "stateMutability": "nonpayable",
      "type": "function",
      "signature": "0xdd09adef"
    }
  ],
  "bytecode": "0x608060405260008054600160a060020a031990811673ab610a9a42fa6082cf5dae2af14a56e5b0cf4c14179091556001805490911633179055612a27806100476000396000f3fe6080604052600436106101295760e060020a600035046309892d7b811461012b5780630eb700c0146101405780632fcea6c41461018f5780633abfcbde146101c15780633b3dca76146101d657806344c79ff3146101fd578063481c6a75146102125780635ec3b9f21461022757806364ff626914610266578063778a6f531461027b5780637a4b02ab1461029057806383bed5eb1461032457806386ea0c9b1461036d57806395ebe8a71461038257806396e156c214610397578063a2a19518146103de578063a3fbbaae14610411578063a43c249614610444578063b61500e414610477578063cc20f88b1461048c578063db98c647146104a1578063dd09adef146104d4578063df251e91146104e9578063dfdeccfc146104fe578063e5ed1d5914610537575b005b34801561013757600080fd5b50610129610561565b34801561014c57600080fd5b506101736004803603602081101561016357600080fd5b5035600160a060020a03166108ad565b60408051600160a060020a039092168252519081900360200190f35b34801561019b57600080fd5b50610129600480360360408110156101b257600080fd5b50803590602001351515610941565b3480156101cd57600080fd5b506101736109b9565b3480156101e257600080fd5b506101eb610a30565b60408051918252519081900360200190f35b34801561020957600080fd5b50610129610aa1565b34801561021e57600080fd5b50610173610cba565b34801561023357600080fd5b506101296004803603606081101561024a57600080fd5b5080359060208101359060400135600160a060020a0316610cc9565b34801561027257600080fd5b50610173610d9a565b34801561028757600080fd5b506101eb610ddf565b34801561029c57600080fd5b506102c3600480360360208110156102b357600080fd5b5035600160a060020a0316610e24565b60405180806020018360ff1660ff168152602001828103825284818151815260200191508051906020019060200280838360005b8381101561030f5781810151838201526020016102f7565b50505050905001935050505060405180910390f35b34801561033057600080fd5b506103576004803603602081101561034757600080fd5b5035600160a060020a0316610fb6565b6040805160ff9092168252519081900360200190f35b34801561037957600080fd5b5061017361107c565b34801561038e57600080fd5b506101eb61108b565b3480156103a357600080fd5b506103ca600480360360208110156103ba57600080fd5b5035600160a060020a0316611090565b604080519115158252519081900360200190f35b3480156103ea57600080fd5b506102c36004803603602081101561040157600080fd5b5035600160a060020a03166110f2565b34801561041d57600080fd5b506101296004803603602081101561043457600080fd5b5035600160a060020a0316611201565b34801561045057600080fd5b506101296004803603602081101561046757600080fd5b5035600160a060020a0316611292565b34801561048357600080fd5b506101736112c1565b34801561049857600080fd5b50610129611336565b3480156104ad57600080fd5b50610357600480360360208110156104c457600080fd5b5035600160a060020a0316611610565b3480156104e057600080fd5b50610129611637565b3480156104f557600080fd5b50610129611700565b34801561050a57600080fd5b506101296004803603604081101561052157600080fd5b50600160a060020a0381351690602001356119ca565b34801561054357600080fd5b506101296004803603602081101561055a57600080fd5b5035611a44565b3360009081526003602052604090206005015460ff1615156105cd576040805160e560020a62461bcd02815260206004820152601560248201527f706c617965722069736e277420696e207374616e640000000000000000000000604482015290519081900360640190fd5b336000908152600360209081526040808320600101805482518185028101850190935280835284936106539392919083018282801561064957602002820191906000526020600020906000905b825461010083900a900460ff1681526020600192830181810494850194909303909202910180841161061a5790505b50505050506120f3565b3360009081526003602090815260409182902060020180548351818402810184019094528084529395506106be939091830182828015610649576000918252602091829020805460ff16845290820283019290916001910180841161061a57905050505050506120f3565b90508060ff168260ff161080156106d9575060118260ff1611155b156107db575b6106e76122f1565b33600090815260036020908152604091829020600101805483518184028101840190945280845260ff8516936107569390929190830182828015610649576000918252602091829020805460ff16845290820283019290916001910180841161061a57905050505050506120f3565b60ff161080156107d457503360009081526003602090815260409182902060010180548351818402810184019094528084526011936107ce9390929190830182828015610649576000918252602091829020805460ff16845290820283019290916001910180841161061a57905050505050506120f3565b60ff1611155b15156106df575b336000818152600360209081526040918290208251828152600190910180549282018390527ffdc3f68f57db4b6f8a959d94cfc0309dc7a6c314afe930d56266483061a214e993909282918201908490801561087457602002820191906000526020600020906000905b825461010083900a900460ff168152602060019283018181049485019490930390920291018084116108455790505b50509250505060405180910390a25050336000908152600360205260409020600501805460ff1962ff0000199091166201000017169055565b60006108b7610d9a565b600160a060020a0316630eb700c0836040518263ffffffff1660e060020a0281526004018082600160a060020a0316600160a060020a0316815260200191505060206040518083038186803b15801561090f57600080fd5b505afa158015610923573d6000803e3d6000fd5b505050506040513d602081101561093957600080fd5b505192915050565b6109496112c1565b600160a060020a0316632fcea6c483836040518363ffffffff1660e060020a028152600401808381526020018215151515815260200192505050600060405180830381600087803b15801561099d57600080fd5b505af11580156109b1573d6000803e3d6000fd5b505050505050565b60006109c3610d9a565b600160a060020a0316633abfcbde6040518163ffffffff1660e060020a02815260040160206040518083038186803b1580156109fe57600080fd5b505afa158015610a12573d6000803e3d6000fd5b505050506040513d6020811015610a2857600080fd5b505190505b90565b6000610a3a612950565b60208160008073c327ff1025c5b3d2deb5e3f0f161b3f7e557579a600019fa1515610a6457600080fd5b425a915160408051602081810194909452808201949094526060808501929092528051808503909201825260809093019092528151910120919050565b33600090815260036020526040902060050154610100900460ff161515610b12576040805160e560020a62461bcd02815260206004820152601460248201527f706c617965722069736e277420696e2067616d65000000000000000000000000604482015290519081900360640190fd5b3360009081526003602052604090206005015462010000900460ff1615610b83576040805160e560020a62461bcd02815260206004820152600960248201527f47616d65206f7665720000000000000000000000000000000000000000000000604482015290519081900360640190fd5b336000818152600360209081526040918290208251828152600290910180549282018390527fa8c83918e37bb8c426fd3ca7deb474a3ea2ab2d6ec7b2fc94c163208d1668b20939092829182019084908015610c1c57602002820191906000526020600020906000905b825461010083900a900460ff16815260206001928301818104948501949093039092029101808411610bed5790505b50509250505060405180910390a2336000818152600360205260409020600190810180547feba66e16a64c66a0753c5213018cf822e6be602b40fab0a625c56f5c56f71bdb92908110610c6b57fe5b6000918252602091829020828204015460408051601f9093166101000a90910460ff168252519081900390910190a2336000908152600360205260409020600501805461ffff19166001179055565b600154600160a060020a031681565b818310610d1257610cda81846119ca565b6000610ce533611090565b15610d0157610cfc610cf6336108ad565b826119ca565b610d0c565b610d0c610cf66109b9565b50610d95565b610d1c81846119ca565b6000610d2e838563ffffffff61257716565b90506000610d4382600a63ffffffff6125c216565b90506000610d5883605a63ffffffff6125c216565b9050610d65816001610941565b610d6e33611090565b15610d8a57610d85610d7f336108ad565b836119ca565b6109b1565b6109b1610d7f6109b9565b505050565b6000610da46112c1565b600160a060020a03166364ff62696040518163ffffffff1660e060020a02815260040160206040518083038186803b1580156109fe57600080fd5b6000610de96112c1565b600160a060020a031663778a6f536040518163ffffffff1660e060020a02815260040160206040518083038186803b1580156109fe57600080fd5b600160a060020a0381166000908152600360205260408120600501546060919062010000900460ff161515610ea3576040805160e560020a62461bcd02815260206004820152600d60248201527f47616d65206e6f74206f76657200000000000000000000000000000000000000604482015290519081900360640190fd5b600160a060020a03831660009081526003602090815260408083206001018054825181850281018501909352808352610f1193830182828015610649576000918252602091829020805460ff16845290820283019290916001910180841161061a57905050505050506120f3565b90506003600085600160a060020a0316600160a060020a031681526020019081526020016000206001018181805480602002602001604051908101604052809291908181526020018280548015610fa557602002820191906000526020600020906000905b825461010083900a900460ff16815260206001928301818104948501949093039092029101808411610f765790505b505050505091509250925050915091565b600160a060020a03811660009081526003602052604081206005015460ff16151561102b576040805160e560020a62461bcd02815260206004820152601260248201527f42616e6b6572206e6f7420696e2067616d650000000000000000000000000000604482015290519081900360640190fd5b600160a060020a038216600090815260036020526040902060019081018054909190811061105557fe5b90600052602060002090602091828204019190069054906101000a900460ff169050919050565b600054600160a060020a031681565b303190565b600061109a610d9a565b600160a060020a03166396e156c2836040518263ffffffff1660e060020a0281526004018082600160a060020a0316600160a060020a0316815260200191505060206040518083038186803b15801561090f57600080fd5b60606000806111786003600086600160a060020a0316600160a060020a03168152602001908152602001600020600201805480602002602001604051908101604052809291908181526020018280548015610649576000918252602091829020805460ff16845290820283019290916001910180841161061a57905050505050506120f3565b90506003600085600160a060020a0316600160a060020a031681526020019081526020016000206002018181805480602002602001604051908101604052809291908181526020018280548015610fa5576000918252602091829020805460ff168452908202830192909160019101808411610f76579050505050505091509250925050915091565b600054600160a060020a03163314611263576040805160e560020a62461bcd02815260206004820152601360248201527f4973206e6f742073757065724d616e6167657200000000000000000000000000604482015290519081900360640190fd5b6001805473ffffffffffffffffffffffffffffffffffffffff1916600160a060020a0392909216919091179055565b6002805473ffffffffffffffffffffffffffffffffffffffff1916600160a060020a0392909216919091179055565b600254600090600160a060020a03161515611326576040805160e560020a62461bcd02815260206004820152601760248201527f706f6f6c2061646472657373206973206e6f7420736574000000000000000000604482015290519081900360640190fd5b50600254600160a060020a031690565b33600090815260036020526040902060050154610100900460ff1615156113a7576040805160e560020a62461bcd02815260206004820152601460248201527f706c617965722069736e277420696e2067616d65000000000000000000000000604482015290519081900360640190fd5b3360009081526003602052604090206005015462010000900460ff1615611418576040805160e560020a62461bcd02815260206004820152601060248201527f5468652067616d65206973206f76657200000000000000000000000000000000604482015290519081900360640190fd5b600080805b6034611427610a30565b60ff1681151561143357fe5b3360009081526003602081905260409091206001939092069283019350019060ff166034811061145f57fe5b602081049091015460ff601f9092166101000a9004161515611514573360009081526003602081905260409091206001910160ff600019840116603481106114a357fe5b60208082049092018054931515601f92831661010090810a91820260ff928302199096169590951790915533600090815260038452604081206002018054600181810183559183529185902094820490940180548784169290941690950a9081029102199091161790915592909201915b600160ff84161061141d573360009081526003602090815260409182902060020180548351818402810184019094528084526115869392830182828015610649576000918252602091829020805460ff16845290820283019290916001910180841161061a57905050505050506120f3565b3360008181526003602090815260409182902060020154825190815260ff861691810191909152815193955091927f28e9b6ad90ca50d486c829fffc0899940a3789420b2a06bfb88fe01a1f77dfa09281900390910190a260158260ff161115610d9557336000908152600360205260409020600501805462ff0000191662010000179055505050565b600160a060020a038116600090815260036020526040812060010180548290811061105557fe5b600154600160a060020a031633148061165a5750600054600160a060020a031633145b15156116b0576040805160e560020a62461bcd02815260206004820152600e60248201527f4973206e6f74206d616e61676572000000000000000000000000000000000000604482015290519081900360640190fd5b6001546116c590600160a060020a0316610a2d565b604051600160a060020a039190911690303180156108fc02916000818181858888f193505050501580156116fd573d6000803e3d6000fd5b50565b336000908152600360205260409020805460059091015462010000900460ff161515611776576040805160e560020a62461bcd02815260206004820152601760248201527f5468652067616d652069736e2774206f76657220796574000000000000000000604482015290519081900360640190fd5b33600090815260036020908152604080832060020180548251818502810185019093528083526117db93830182828015610649576000918252602091829020805460ff16845290820283019290916001910180841161061a57905050505050506120f3565b33600090815260036020908152604080832060010180548251818502810185019093528083529495509293611847939192830182828015610649576000918252602091829020805460ff16845290820283019290916001910180841161061a57905050505050506120f3565b90508060ff168260ff16118015611861575060168260ff16105b156118ef578160ff16601514156118925761188d61188684600363ffffffff6125e516565b8433610cc9565b6118a6565b6118a661188684600263ffffffff6125e516565b604080516001815260ff808516602083015283168183015290517fd13dc093b5a939fda2be3449eaf7d8882a1e866f4a1e4d89f0c0aebf1955a1f79181900360600190a16119c2565b60158160ff16111561190f576118a661188684600263ffffffff6125e516565b8160ff168160ff16141561197157611928838433610cc9565b604080516003815260ff808516602083015283168183015290517fd13dc093b5a939fda2be3449eaf7d8882a1e866f4a1e4d89f0c0aebf1955a1f79181900360600190a16119c2565b61197d60008433610cc9565b604080516002815260ff808516602083015283168183015290517fd13dc093b5a939fda2be3449eaf7d8882a1e866f4a1e4d89f0c0aebf1955a1f79181900360600190a15b610d95612681565b6119d26112c1565b604080517ffde1c413000000000000000000000000000000000000000000000000000000008152306004820152600160a060020a038581166024830152604482018590529151929091169163fde1c4139160648082019260009290919082900301818387803b15801561099d57600080fd5b611a4d81612779565b33600090815260036020526040902060050154610100900460ff16158015611a8857503360009081526003602052604090206005015460ff16155b1515611ade576040805160e560020a62461bcd02815260206004820152600e60248201527f506c6179657220696e2067616d65000000000000000000000000000000000000604482015290519081900360640190fd5b3360009081526003602052604090206005015462010000900460ff1615611b4f576040805160e560020a62461bcd02815260206004820152600d60248201527f47616d65206e6f74206f76657200000000000000000000000000000000000000604482015290519081900360640190fd5b64e8d4a510008111158015611b6957506402540be4008110155b1515611bbf576040805160e560020a62461bcd02815260206004820152601060248201527f4e6f7420656e6f756768206d6f6e657900000000000000000000000000000000604482015290519081900360640190fd5b336000908152600360205260408120829055611bd961296f565b600080805b6034611be8610a30565b60ff16811515611bf457fe5b3360009081526003602081905260409091206001939092069283019750019060ff1660348110611c2057fe5b602081049091015460ff601f9092166101000a9004161515611ca6573360009081526003602081905260409091206001910160ff60001988011660348110611c6457fe5b602091828204019190066101000a81548160ff02191690831515021790555084848260ff16600481101515611c9557fe5b60ff90921660209290920201526001015b600460ff821610611bde5733600081815260036020908152604080832088516001808301805480830182558188528688208782048101805460ff968716601f94851661010090810a91820291890219909216179091558a8a528e89015184548087019095558985049092018054948416820a808802199095169287169490940291909117909255948c015160029094018054808401825581895287892088820481018054928916850a808802199093169787169290920296909617905588885260608d015181549384018255968304909401805492909516900a80830219909116949091160292909217905580547ff682f77fada27621bacee5e5392af8e57c14ba607cea9933fee6993eff38f60e92908110611dbf57fe5b600091825260208083208183040154338452600390915260409092206002018054601f9092166101000a90920460ff1691906001908110611dfc57fe5b600091825260209182902082820401546040805160ff9586168152601f9093166101000a9091049093169181019190915281519081900390910190a233600081815260036020526040812060010180547f767aae10e22e7ed1a4190be44c9cdd634ff5fbe26966862f47c537521973108792908110611e7757fe5b6000918252602091829020828204015460408051601f9093166101000a90910460ff168252519081900390910190a2336000908152600360209081526040918290206002018054835181840281018401909452808452611f0d9392830182828015610649576000918252602091829020805460ff16845290820283019290916001910180841161061a57905050505050506120f3565b336000908152600360209081526040918290206001018054835181840281018401909452808452939650611f78939091830182828015610649576000918252602091829020805460ff16845290820283019290916001910180841161061a57905050505050506120f3565b91508260ff166015148015611f9157508160ff16601514155b15611fe05733600081815260036020908152604091829020600501805462ff000019166201000017905581516002815291516000805160206129dc8339815191529281900390910190a26109b1565b8260ff166015148015611ff657508160ff166015145b156120455733600081815260036020908152604091829020600501805462ff000019166201000017905581516001815291516000805160206129dc8339815191529281900390910190a26109b1565b8260ff1660151415801561205c57508160ff166015145b156120ab5733600081815260036020818152604092839020600501805462ff0000191662010000179055825191825291516000805160206129dc833981519152929181900390910190a26109b1565b336000818152600360209081526040808320600501805461ff0019166101001790558051928352516000805160206129dc8339815191529281900390910190a2505050505050565b600080600181805b85518160ff1610156122e757600a600d878360ff1681518110151561211c57fe5b9060200190602002015160ff1681151561213257fe5b0660ff16118061216e5750600d868260ff1681518110151561215057fe5b9060200190602002015160ff1681151561216657fe5b0660ff166000145b1561219c57600a868260ff1681518110151561218657fe5b60ff909216602092830290910190910152612284565b600d868260ff168151811015156121af57fe5b9060200190602002015160ff168115156121c557fe5b0660ff166001141561223757601584600b0160ff161115612209576001868260ff168151811015156121f357fe5b60ff909216602092830290910190910152612232565b600b868260ff1681518110151561221c57fe5b60ff909216602092830290910190910152600191505b612284565b600d868260ff1681518110151561224a57fe5b9060200190602002015160ff1681151561226057fe5b06868260ff1681518110151561227257fe5b60ff9092166020928302909101909101525b858160ff1681518110151561229557fe5b906020019060200201518401935060158460ff161180156122b35750815b80156122bf5750826001145b156122df57600919909301926122dc83600163ffffffff61257716565b92505b6001016120fb565b5091949350505050565b3360009081526003602090815260408083206001018054825181850281018501909352808352849384938493612361939192909190830182828015610649576000918252602091829020805460ff16845290820283019290916001910180841161061a57905050505050506120f3565b3360009081526003602090815260409182902060020180548351818402810184019094528084529395506123cc939091830182828015610649576000918252602091829020805460ff16845290820283019290916001910180841161061a57905050505050506120f3565b90505b600060346123db610a30565b60ff168115156123e757fe5b3360009081526003602081905260409091206001939092069283019350019060ff166034811061241357fe5b602081049091015460ff601f9092166101000a90041615156124c8573360009081526003602081905260409091206001910160ff6000198401166034811061245757fe5b60208082049092018054931515601f92831661010090810a91820260ff928302199096169590951790915533600090815260038452604081206001908101805480830182559083529185902094820490940180548784169290941690950a9081029102199091161790915594909401935b50600160ff8516106123cf5733600090815260036020908152604091829020600101805483518184028101840190945280845261253b9392830182828015610649576000918252602091829020805460ff16845290820283019290916001910180841161061a57905050505050506120f3565b925060158360ff16111561257157336000908152600360205260409020600501805460ff1962ff00001990911662010000171690555b50505050565b60006125b983836040805190810160405280601e81526020017f536166654d6174683a207375627472616374696f6e206f766572666c6f77000081525061280c565b90505b92915050565b60006125b960646125d9858563ffffffff6125e516565b9063ffffffff6128a616565b60008215156125f6575060006125bc565b82820282848281151561260557fe5b04146125b9576040805160e560020a62461bcd02815260206004820152602160248201527f536166654d6174683a206d756c7469706c69636174696f6e206f766572666c6f60448201527f7700000000000000000000000000000000000000000000000000000000000000606482015290519081900360840190fd5b3360009081526003602052604081208181556126a0906002018261298e565b503360009081526003602052604081206126bd906001018261298e565b5060005b336000526003602052603460ff8216101561275a573360009081526003602081905260409091200160ff8216603481106126f757fe5b602081049091015460ff601f9092166101000a900416156127525733600090815260036020819052604082200160ff83166034811061273257fe5b602091828204019190066101000a81548160ff0219169083151502179055505b6001016126c1565b50336000908152600360205260409020600501805462ffffff19169055565b6127816112c1565b604080517ffde1c413000000000000000000000000000000000000000000000000000000008152336004820152306024820152604481018490529051600160a060020a03929092169163fde1c4139160648082019260009290919082900301818387803b1580156127f157600080fd5b505af1158015612805573d6000803e3d6000fd5b5050505050565b6000818484111561289e5760405160e560020a62461bcd0281526004018080602001828103825283818151815260200191508051906020019080838360005b8381101561286357818101518382015260200161284b565b50505050905090810190601f1680156128905780820380516001836020036101000a031916815260200191505b509250505060405180910390fd5b505050900390565b60006125b983836040805190810160405280601a81526020017f536166654d6174683a206469766973696f6e206279207a65726f0000000000008152506000818184116129385760405160e560020a62461bcd0281526004018080602001828103825283818151815260200191508051906020019080838360008381101561286357818101518382015260200161284b565b506000838581151561294657fe5b0495945050505050565b6020604051908101604052806001906020820280388339509192915050565b6080604051908101604052806004906020820280388339509192915050565b815481835581811115610d9557601f016020900481601f01602090048360005260206000209182019101610d959190610a2d91905b808211156129d757600081556001016129c3565b509056fe9fe42914333dbcbf47614bab3bd2265d9436acad5b16d2c36b79068eec736f33a165627a7a7230582014438d392eebf2f53a3412018973c5a21181e741e9100f66511b8f4a2643219b0029",
  "source": "pragma solidity >=0.5.0 <0.6.0;\r\n\r\nimport \"./math.sol\";\r\nimport \"./ConnectChips.sol\";\r\n\r\ncontract Manager{\r\n\r\n    address public superManager = 0xAB610a9A42fa6082cf5daE2AF14a56E5b0cf4c14;\r\n    address public manager;\r\n\r\n    constructor() public{\r\n        manager = msg.sender;\r\n    }\r\n\r\n    modifier onlyManager{\r\n        require(msg.sender == manager || msg.sender == superManager, \"Is not manager\");\r\n        _;\r\n    }\r\n\r\n    function changeManager(address _new_manager) public {\r\n        require(msg.sender == superManager, \"Is not superManager\");\r\n        manager = _new_manager;\r\n    }\r\n}\r\n\r\nlibrary Address {\r\n    \r\n    function isContract(address account) internal view returns (bool) {\r\n\r\n        bytes32 codehash;\r\n        bytes32 accountHash = 0xc5d2460186f7233c927e7db2dcc703c0e500b653ca82273b7bfad8045d85a470;\r\n        \r\n        assembly { codehash := extcodehash(account) }\r\n        return (codehash != 0x0 && codehash != accountHash);\r\n    }\r\n    \r\n    function toPayable(address account) internal pure returns (address payable) {\r\n        return address(uint160(account));\r\n    }\r\n}\r\n\r\ncontract blackJack is Manager, ConnectChips{\r\n    using SafeMath for uint;\r\n    using SafeMath16 for uint16;\r\n    using SafeMath8 for uint8;\r\n    using Address for address;\r\n    \r\n    mapping(address => info) player_info;\r\n    \r\n    //\r\n    event startResult(address indexed player,uint8 result);             //(result => 0=/1=/2=21/3=21)\r\n    event playerStartCards(address indexed player,uint playerCard1,uint8 playerCard2);   //\r\n    event playerHit(address indexed player,uint count,uint8 newCard);   //\r\n    event playTotal(address indexed player,uint8[] playerCard);         //\r\n    event bankCard1(address indexed player,uint8 bankerCard1);          //\r\n    event bankCard2(address indexed player,uint8 bankerCard2);          //\r\n    event bankTotal(address indexed player,uint8[] bankerCard);         //\r\n    event gameOver(uint8 result,uint8 playerCard,uint8 bankerCard);     //  result => 1 =   2 =   3 = \r\n    \r\n    struct info{\r\n        uint money;\r\n        uint8[]  Banker_Card;\r\n        uint8[]  Player_Card;\r\n        bool[52]  check_Num;\r\n        bool Banker_InGame;\r\n        bool Player_InGame;\r\n        bool endGame;\r\n    }\r\n    \r\n\r\n    function startGame(uint value) public{\r\n        \r\n        payToGame(value);\r\n\r\n        require(!player_info[msg.sender].Player_InGame && !player_info[msg.sender].Banker_InGame,\r\n        \"Player in game\");\r\n        require(!player_info[msg.sender].endGame,\"Game not over\");\r\n        require(value <= 10000e8 && value >= 100e8, \"Not enough money\");\r\n        player_info[msg.sender].money = value;\r\n        uint8 ran_num;\r\n        uint8[4] memory new_num;\r\n        uint8 play_total;\r\n        uint8 bank_total;\r\n        uint8 cnt = 0;\r\n        \r\n        do{\r\n            ran_num = uint8(rand()) % 52 + 1;\r\n            \r\n            if(!player_info[msg.sender].check_Num[ran_num - 1]){\r\n                player_info[msg.sender].check_Num[ran_num - 1] = true;\r\n                new_num[cnt] = ran_num;\r\n                cnt++;\r\n            }\r\n             \r\n        }while(cnt < 4);\r\n\r\n        player_info[msg.sender].Banker_Card.push(new_num[0]);\r\n        player_info[msg.sender].Banker_Card.push(new_num[1]);\r\n        player_info[msg.sender].Player_Card.push(new_num[2]);\r\n        player_info[msg.sender].Player_Card.push(new_num[3]);\r\n\r\n  \r\n        emit playerStartCards(msg.sender,player_info[msg.sender].Player_Card[0],player_info[msg.sender].Player_Card[1]);\r\n        emit bankCard1(msg.sender,player_info[msg.sender].Banker_Card[0]);\r\n        play_total = transform(player_info[msg.sender].Player_Card);\r\n        bank_total = transform(player_info[msg.sender].Banker_Card);\r\n        \r\n        if(play_total == 21 && bank_total!= 21){        //21\r\n            // player_info[msg.sender].Banker_InGame = true;\r\n            player_info[msg.sender].endGame = true;\r\n            emit startResult(msg.sender,2);\r\n        }else if(play_total == 21 && bank_total == 21){ //21\r\n            // player_info[msg.sender].Banker_InGame = true;\r\n            player_info[msg.sender].endGame = true;\r\n            emit startResult(msg.sender,1);\r\n        }else if(play_total != 21 && bank_total == 21){ //21\r\n            // player_info[msg.sender].Player_InGame = true;\r\n            player_info[msg.sender].endGame = true;\r\n            emit startResult(msg.sender,3);\r\n        }else{\r\n            player_info[msg.sender].Player_InGame = true;\r\n            emit startResult(msg.sender,0);\r\n        }\r\n\r\n        //sendPool(msg.value);\r\n    }\r\n\r\n    function Player_Hit() public {                  //\r\n        require(player_info[msg.sender].Player_InGame,\"player isn't in game\");\r\n        require(!player_info[msg.sender].endGame,\"The game is over\");\r\n        uint8 cnt = 0;\r\n        uint8 total = 0;\r\n        uint8 ran_num;\r\n\r\n        do{\r\n            ran_num = uint8(rand()) % 52 + 1;\r\n\r\n            if(!player_info[msg.sender].check_Num[ran_num - 1]){\r\n                player_info[msg.sender].check_Num[ran_num - 1] = true;\r\n                player_info[msg.sender].Player_Card.push(ran_num);\r\n                cnt++;\r\n            }\r\n        }while(cnt < 1);\r\n    \r\n        total = transform(player_info[msg.sender].Player_Card);\r\n        emit playerHit(msg.sender, player_info[msg.sender].Player_Card.length, ran_num);\r\n        if(total > 21){\r\n            player_info[msg.sender].endGame = true;\r\n        }\r\n    }\r\n    \r\n    function Player_Stand() public {                //\r\n        require(player_info[msg.sender].Player_InGame,\"player isn't in game\");\r\n        require(!player_info[msg.sender].endGame,\"Game over\");\r\n        emit playTotal(msg.sender,player_info[msg.sender].Player_Card);\r\n        emit bankCard2(msg.sender,player_info[msg.sender].Banker_Card[1]);\r\n        player_info[msg.sender].Player_InGame = false;\r\n        player_info[msg.sender].Banker_InGame = true;\r\n\r\n    }\r\n    \r\n    function Banker_ShowCard() public {\r\n        require(player_info[msg.sender].Banker_InGame,\"player isn't in stand\");\r\n        uint8 bank_total = 0;\r\n        uint8 player_total = 0;\r\n\r\n        bank_total = transform(player_info[msg.sender].Banker_Card);\r\n      \r\n        player_total = transform(player_info[msg.sender].Player_Card);\r\n        \r\n        if(bank_total < player_total && bank_total <= 17){\r\n            do{\r\n                Banker_Hit();\r\n            }while(transform(player_info[msg.sender].Banker_Card) < player_total && transform(player_info[msg.sender].Banker_Card) <= 17);\r\n            \r\n        }\r\n        emit bankTotal(msg.sender,player_info[msg.sender].Banker_Card);\r\n        player_info[msg.sender].endGame = true;\r\n        player_info[msg.sender].Banker_InGame = false;\r\n    }\r\n    \r\n    function Banker_Hit() private {                  //\r\n        // require(player_info[msg.sender].Banker_InGame,\"Banker isn't in game\");\r\n        uint8 cnt = 0;\r\n        uint8 total = 0;\r\n        uint8 bank_total = 0;\r\n        uint8 player_total = 0;\r\n \r\n        bank_total =  transform(player_info[msg.sender].Banker_Card);\r\n        player_total = transform(player_info[msg.sender].Player_Card);\r\n        \r\n        // require(bank_total < player_total,\"require player_total > bank_total\"); //\r\n        \r\n        do{\r\n            uint8 ran_num = uint8(rand()) % 52 + 1;\r\n            \r\n            if(!player_info[msg.sender].check_Num[ran_num - 1]){\r\n                player_info[msg.sender].check_Num[ran_num - 1] = true;\r\n                player_info[msg.sender].Banker_Card.push(ran_num);\r\n                cnt++;\r\n            }\r\n        }while(cnt < 1);\r\n\r\n        total = transform(player_info[msg.sender].Banker_Card);\r\n        \r\n        if(total > 21){     //\r\n            player_info[msg.sender].endGame = true;\r\n            player_info[msg.sender].Banker_InGame = false;\r\n            \r\n        }\r\n    }\r\n    \r\n    function transform(uint8[] memory arr) private pure returns(uint8){        //\r\n        uint8 total = 0;\r\n        uint Ace11 = 1;\r\n        bool checkAce = false;\r\n \r\n        for(uint8 i = 0 ; i < arr.length; i++){\r\n           if(arr[i] % 13 > 10 || arr[i] % 13 == 0){\r\n                arr[i] = 10;\r\n           }else if(arr[i] % 13 == 1){\r\n                if((total + 11) > 21){\r\n                    arr[i] = 1;\r\n                }else{\r\n                    arr[i] = 11;\r\n                    checkAce = true;\r\n                }\r\n           }else{\r\n                arr[i] = arr[i] % 13;\r\n           }\r\n           total+= arr[i];\r\n           if(total > 21 && checkAce && Ace11 == 1){\r\n                total = total - 10;\r\n                Ace11 = Ace11.sub(1);\r\n           }\r\n        }\r\n        return total;\r\n    }\r\n    \r\n    function EndGame() public {\r\n        uint betValue = player_info[msg.sender].money;\r\n        require(player_info[msg.sender].endGame,\"The game isn't over yet\");\r\n        uint8 playerTotal = transform(player_info[msg.sender].Player_Card);\r\n        uint8 bankerTotal = transform(player_info[msg.sender].Banker_Card);\r\n\r\n        if(playerTotal > bankerTotal && playerTotal < 22){  //\r\n            if(playerTotal == 21){\r\n                checkAndSend(betValue.mul(3), betValue, msg.sender);\r\n                //msg.sender.transfer(player_info[msg.sender].money.mul(3));\r\n            }else{\r\n                checkAndSend(betValue.mul(2), betValue, msg.sender);\r\n                //msg.sender.transfer(player_info[msg.sender].money.mul(2));\r\n            }\r\n            emit gameOver(1,playerTotal,bankerTotal);\r\n        }else if(bankerTotal > 21){                         //\r\n            checkAndSend(betValue.mul(2), betValue, msg.sender);\r\n            //msg.sender.transfer(player_info[msg.sender].money.mul(2));\r\n            emit gameOver(1,playerTotal,bankerTotal);\r\n        }\r\n        else if(bankerTotal == playerTotal){                //\r\n            checkAndSend(betValue, betValue, msg.sender);\r\n            //msg.sender.transfer(player_info[msg.sender].money);\r\n            emit gameOver(3,playerTotal,bankerTotal);\r\n        }else{\r\n            checkAndSend(0, betValue, msg.sender);\r\n            emit gameOver(2,playerTotal,bankerTotal);       //\r\n        }\r\n        clearData();\r\n    }\r\n    \r\n    function clearData() private {                    //\r\n    \r\n        player_info[msg.sender].money = 0;\r\n        player_info[msg.sender].Player_Card.length = 0;\r\n        player_info[msg.sender].Banker_Card.length = 0;\r\n        for(uint8 i = 0 ; i < player_info[msg.sender].check_Num.length; i++){\r\n           if(player_info[msg.sender].check_Num[i] != false){\r\n                player_info[msg.sender].check_Num[i] = false;\r\n            }\r\n        }\r\n   \r\n        player_info[msg.sender].Banker_InGame = false;\r\n        player_info[msg.sender].Player_InGame = false;\r\n        player_info[msg.sender].endGame = false;\r\n    }\r\n    \r\n    function inquireBankerCard1(address _address) public view returns(uint8 card1){     //\r\n        card1 = player_info[_address].Banker_Card[0];\r\n    }\r\n    \r\n    function inquireBankerCard2(address _address) public view returns(uint8 card2){     //\r\n        require(player_info[_address].Banker_InGame,\"Banker not in game\");\r\n        card2 = player_info[_address].Banker_Card[1];\r\n    }\r\n\r\n    function inquirePlayer(address _address) public view returns(uint8[] memory, uint8){\r\n       uint8 total = transform(player_info[_address].Player_Card);\r\n\r\n       return (player_info[_address].Player_Card,total);\r\n    }\r\n    \r\n    function inquireBanker(address _address) public view returns(uint8[] memory, uint8){\r\n        require(player_info[_address].endGame,\"Game not over\");\r\n        uint8 total = transform(player_info[_address].Banker_Card);\r\n\r\n        return (player_info[_address].Banker_Card,total);\r\n    }\r\n    \r\n    function inquireETH() public view returns(uint){\r\n        return address(this).balance;\r\n    }\r\n    \r\n    function withdraw_allETH() public onlyManager{\r\n        manager.toPayable().transfer(address(this).balance);\r\n    }\r\n  \r\n}",
  "sourcePath": "C:/Users/user/Documents/smart-contract/casino/contracts/blackJack.sol",
  "compiler": {
    "name": "solc",
    "version": "0.5.1+commit.c8a2cb62.Emscripten.clang"
  },
  "schemaVersion": "3.0.2",
  "updatedAt": "2020-05-28T08:52:38.616Z",
  "devdoc": {
    "methods": {}
  },
  "userdoc": {
    "methods": {}
  }
}