{
  "contractName": "ConnectChips",
  "abi": [
    {
      "constant": true,
      "inputs": [],
      "name": "rand",
      "outputs": [
        {
          "name": "",
          "type": "uint256"
        }
      ],
      "payable": false,
      "stateMutability": "view",
      "type": "function"
    },
    {
      "payable": true,
      "stateMutability": "payable",
      "type": "fallback"
    },
    {
      "constant": true,
      "inputs": [],
      "name": "chip",
      "outputs": [
        {
          "name": "",
          "type": "address"
        }
      ],
      "payable": false,
      "stateMutability": "view",
      "type": "function"
    },
    {
      "constant": false,
      "inputs": [
        {
          "name": "newChip",
          "type": "address"
        }
      ],
      "name": "setChip",
      "outputs": [],
      "payable": false,
      "stateMutability": "nonpayable",
      "type": "function"
    },
    {
      "constant": false,
      "inputs": [
        {
          "name": "value",
          "type": "uint256"
        },
        {
          "name": "toPlayer",
          "type": "bool"
        }
      ],
      "name": "distribute",
      "outputs": [],
      "payable": false,
      "stateMutability": "nonpayable",
      "type": "function"
    },
    {
      "constant": false,
      "inputs": [
        {
          "name": "to",
          "type": "address"
        },
        {
          "name": "value",
          "type": "uint256"
        }
      ],
      "name": "sendToPlayer",
      "outputs": [],
      "payable": false,
      "stateMutability": "nonpayable",
      "type": "function"
    },
    {
      "constant": true,
      "inputs": [],
      "name": "inqTeam",
      "outputs": [
        {
          "name": "",
          "type": "address"
        }
      ],
      "payable": false,
      "stateMutability": "view",
      "type": "function"
    },
    {
      "constant": true,
      "inputs": [],
      "name": "LCTadr",
      "outputs": [
        {
          "name": "",
          "type": "address"
        }
      ],
      "payable": false,
      "stateMutability": "view",
      "type": "function"
    },
    {
      "constant": true,
      "inputs": [
        {
          "name": "player",
          "type": "address"
        }
      ],
      "name": "inqRegistered",
      "outputs": [
        {
          "name": "",
          "type": "bool"
        }
      ],
      "payable": false,
      "stateMutability": "view",
      "type": "function"
    },
    {
      "constant": true,
      "inputs": [
        {
          "name": "player",
          "type": "address"
        }
      ],
      "name": "inqReferrer",
      "outputs": [
        {
          "name": "",
          "type": "address"
        }
      ],
      "payable": false,
      "stateMutability": "view",
      "type": "function"
    },
    {
      "constant": true,
      "inputs": [],
      "name": "totPool",
      "outputs": [
        {
          "name": "",
          "type": "uint256"
        }
      ],
      "payable": false,
      "stateMutability": "view",
      "type": "function"
    },
    {
      "constant": false,
      "inputs": [
        {
          "name": "profit",
          "type": "uint256"
        },
        {
          "name": "bet",
          "type": "uint256"
        },
        {
          "name": "to",
          "type": "address"
        }
      ],
      "name": "checkAndSend",
      "outputs": [],
      "payable": false,
      "stateMutability": "nonpayable",
      "type": "function"
    }
  ],
  "bytecode": "0x608060405234801561001057600080fd5b506109e4806100206000396000f3fe60806040526004361061008f5760e060020a60003504630eb700c081146100915780632fcea6c4146100e05780633abfcbde146101125780633b3dca76146101275780635ec3b9f21461014e57806364ff62691461018d578063778a6f53146101a257806396e156c2146101b7578063a43c2496146101fe578063b61500e414610231578063dfdeccfc14610246575b005b34801561009d57600080fd5b506100c4600480360360208110156100b457600080fd5b5035600160a060020a031661027f565b60408051600160a060020a039092168252519081900360200190f35b3480156100ec57600080fd5b5061008f6004803603604081101561010357600080fd5b50803590602001351515610313565b34801561011e57600080fd5b506100c461038b565b34801561013357600080fd5b5061013c610401565b60408051918252519081900360200190f35b34801561015a57600080fd5b5061008f6004803603606081101561017157600080fd5b5080359060208101359060400135600160a060020a0316610472565b34801561019957600080fd5b506100c4610543565b3480156101ae57600080fd5b5061013c610588565b3480156101c357600080fd5b506101ea600480360360208110156101da57600080fd5b5035600160a060020a03166105cd565b604080519115158252519081900360200190f35b34801561020a57600080fd5b5061008f6004803603602081101561022157600080fd5b5035600160a060020a031661062f565b34801561023d57600080fd5b506100c461065e565b34801561025257600080fd5b5061008f6004803603604081101561026957600080fd5b50600160a060020a0381351690602001356106d1565b6000610289610543565b600160a060020a0316630eb700c0836040518263ffffffff1660e060020a0281526004018082600160a060020a0316600160a060020a0316815260200191505060206040518083038186803b1580156102e157600080fd5b505afa1580156102f5573d6000803e3d6000fd5b505050506040513d602081101561030b57600080fd5b505192915050565b61031b61065e565b600160a060020a0316632fcea6c483836040518363ffffffff1660e060020a028152600401808381526020018215151515815260200192505050600060405180830381600087803b15801561036f57600080fd5b505af1158015610383573d6000803e3d6000fd5b505050505050565b6000610395610543565b600160a060020a0316633abfcbde6040518163ffffffff1660e060020a02815260040160206040518083038186803b1580156103d057600080fd5b505afa1580156103e4573d6000803e3d6000fd5b505050506040513d60208110156103fa57600080fd5b5051905090565b600061040b610999565b60208160008073c327ff1025c5b3d2deb5e3f0f161b3f7e557579a600019fa151561043557600080fd5b425a915160408051602081810194909452808201949094526060808501929092528051808503909201825260809093019092528151910120919050565b8183106104bb5761048381846106d1565b600061048e336105cd565b156104aa576104a561049f3361027f565b826106d1565b6104b5565b6104b561049f61038b565b5061053e565b6104c581846106d1565b60006104d7838563ffffffff61074b16565b905060006104ec82600a63ffffffff61079616565b9050600061050183605a63ffffffff61079616565b905061050e816001610313565b610517336105cd565b156105335761052e6105283361027f565b836106d1565b610383565b61038361052861038b565b505050565b600061054d61065e565b600160a060020a03166364ff62696040518163ffffffff1660e060020a02815260040160206040518083038186803b1580156103d057600080fd5b600061059261065e565b600160a060020a031663778a6f536040518163ffffffff1660e060020a02815260040160206040518083038186803b1580156103d057600080fd5b60006105d7610543565b600160a060020a03166396e156c2836040518263ffffffff1660e060020a0281526004018082600160a060020a0316600160a060020a0316815260200191505060206040518083038186803b1580156102e157600080fd5b6000805473ffffffffffffffffffffffffffffffffffffffff1916600160a060020a0392909216919091179055565b60008054600160a060020a031615156106c1576040805160e560020a62461bcd02815260206004820152601760248201527f706f6f6c2061646472657373206973206e6f7420736574000000000000000000604482015290519081900360640190fd5b50600054600160a060020a031690565b6106d961065e565b604080517ffde1c413000000000000000000000000000000000000000000000000000000008152306004820152600160a060020a038581166024830152604482018590529151929091169163fde1c4139160648082019260009290919082900301818387803b15801561036f57600080fd5b600061078d83836040805190810160405280601e81526020017f536166654d6174683a207375627472616374696f6e206f766572666c6f7700008152506107b9565b90505b92915050565b600061078d60646107ad858563ffffffff61085316565b9063ffffffff6108ef16565b6000818484111561084b5760405160e560020a62461bcd0281526004018080602001828103825283818151815260200191508051906020019080838360005b838110156108105781810151838201526020016107f8565b50505050905090810190601f16801561083d5780820380516001836020036101000a031916815260200191505b509250505060405180910390fd5b505050900390565b600082151561086457506000610790565b82820282848281151561087357fe5b041461078d576040805160e560020a62461bcd02815260206004820152602160248201527f536166654d6174683a206d756c7469706c69636174696f6e206f766572666c6f60448201527f7700000000000000000000000000000000000000000000000000000000000000606482015290519081900360840190fd5b600061078d83836040805190810160405280601a81526020017f536166654d6174683a206469766973696f6e206279207a65726f0000000000008152506000818184116109815760405160e560020a62461bcd028152600401808060200182810382528381815181526020019150805190602001908083836000838110156108105781810151838201526020016107f8565b506000838581151561098f57fe5b0495945050505050565b602060405190810160405280600190602082028038833950919291505056fea165627a7a7230582083986fb22b286101bf191dc0968ef51aefd2a6684e06485be3f7ff7617655a410029",
  "source": "pragma solidity >=0.5.0 <0.6.0;\r\n\r\nimport \"./math.sol\";\r\n// import \"./debug.sol\";\r\n\r\ninterface ILCT {\r\n    function inqRegistered(address player) external view returns(bool);\r\n    function inqReferrer(address player) external view returns(address);\r\n    function inqTeam() external view returns(address);\r\n}\r\n\r\ninterface Ichip {\r\n    function LCTadr() external view returns (address);\r\n    //function sendToPlayer(address to, uint value) external;\r\n    function distribute(uint value, bool toPlayer) external;\r\n    function inqChips(address _address) external view returns(uint);\r\n    function totPool() external view returns(uint);\r\n    function transferCHIPS(address from, address to, uint value) external;\r\n}\r\n\r\ncontract ConnectChips is math{\r\n\r\n    address chipAddr;\r\n\r\n    function () external payable{}\r\n\r\n    function chip() public view returns(address){\r\n        require(chipAddr != address(0), \"pool address is not set\");\r\n        return chipAddr;\r\n    }\r\n\r\n    function setChip(address newChip) public{\r\n        chipAddr = newChip;\r\n    }\r\n\r\n    function distribute(uint value, bool toPlayer) public{\r\n        Ichip(chip()).distribute(value, toPlayer);\r\n    }\r\n\r\n    function sendToPlayer(address to, uint value) public{\r\n        //Ichip(chip()).sendToPlayer(to, value);\r\n        Ichip(chip()).transferCHIPS(address(this), to, value);\r\n    }\r\n\r\n    function payToGame(uint value) internal{\r\n        Ichip(chip()).transferCHIPS(msg.sender, address(this), value);\r\n    }\r\n    \r\n    function inqTeam() public view returns (address){\r\n        return ILCT(LCTadr()).inqTeam();\r\n    }\r\n\r\n    function LCTadr() public view returns (address){\r\n        return Ichip(chip()).LCTadr();\r\n    }\r\n\r\n    function inqRegistered(address player) public view returns(bool){\r\n        return ILCT(LCTadr()).inqRegistered(player);\r\n    }\r\n\r\n    function inqReferrer(address player) public view returns(address){\r\n        return ILCT(LCTadr()).inqReferrer(player);\r\n    }\r\n\r\n    function totPool() public view returns(uint){\r\n        return Ichip(chip()).totPool();\r\n    }\r\n\r\n    function inqCHIPS(address _address) internal view returns(uint){\r\n        Ichip(chip()).inqChips(_address);\r\n    }\r\n\r\n    function checkAndSend(uint profit, uint bet, address to) public{\r\n        \r\n        if(profit >= bet){ //此時玩家為贏\r\n            \r\n            // uint divided = 0;\r\n            // sendToPlayer(msg.sender, divided); //為了讓輸贏的gas相似\r\n\r\n            sendToPlayer(to, profit);\r\n\r\n            uint referrerProfit = 0;\r\n            if(inqRegistered(msg.sender)){  //玩家有註冊\r\n                sendToPlayer(inqReferrer(msg.sender), referrerProfit);\r\n            }else{\r\n                sendToPlayer(inqTeam(), referrerProfit);\r\n            }\r\n\r\n        }else{ //此時玩家為輸\r\n\r\n            sendToPlayer(to, profit);\r\n\r\n            uint distri = bet.sub(profit);\r\n\r\n            uint referrerProfit = distri.percent(10);\r\n            uint newDistri = distri.percent(90);\r\n\r\n            distribute(newDistri, true);\r\n\r\n            if(inqRegistered(msg.sender)){  //玩家有註冊\r\n                sendToPlayer(inqReferrer(msg.sender), referrerProfit);\r\n            }else{\r\n                sendToPlayer(inqTeam(), referrerProfit);\r\n            }\r\n        }\r\n\r\n    }\r\n\r\n}",
  "sourcePath": "C:\\Users\\user\\Documents\\smart-contract\\casino\\contracts\\ConnectChips.sol",
  "compiler": {
    "name": "solc",
    "version": "0.5.1+commit.c8a2cb62.Emscripten.clang"
  },
  "schemaVersion": "3.0.2",
  "updatedAt": "2020-05-28T08:51:44.465Z",
  "devdoc": {
    "methods": {}
  },
  "userdoc": {
    "methods": {}
  }
}