{
  "contractName": "FishingGame",
  "abi": [
    {
      "constant": true,
      "inputs": [
        {
          "name": "player",
          "type": "address"
        }
      ],
      "name": "inqReferrer",
      "outputs": [
        {
          "name": "",
          "type": "address"
        }
      ],
      "payable": false,
      "stateMutability": "view",
      "type": "function",
      "signature": "0x0eb700c0"
    },
    {
      "constant": false,
      "inputs": [
        {
          "name": "new_superManager",
          "type": "address"
        }
      ],
      "name": "changeSuperManager",
      "outputs": [],
      "payable": false,
      "stateMutability": "nonpayable",
      "type": "function",
      "signature": "0x282feef7"
    },
    {
      "constant": false,
      "inputs": [
        {
          "name": "value",
          "type": "uint256"
        },
        {
          "name": "toPlayer",
          "type": "bool"
        }
      ],
      "name": "distribute",
      "outputs": [],
      "payable": false,
      "stateMutability": "nonpayable",
      "type": "function",
      "signature": "0x2fcea6c4"
    },
    {
      "constant": true,
      "inputs": [],
      "name": "inqTeam",
      "outputs": [
        {
          "name": "",
          "type": "address"
        }
      ],
      "payable": false,
      "stateMutability": "view",
      "type": "function",
      "signature": "0x3abfcbde"
    },
    {
      "constant": true,
      "inputs": [],
      "name": "rand",
      "outputs": [
        {
          "name": "",
          "type": "uint256"
        }
      ],
      "payable": false,
      "stateMutability": "view",
      "type": "function",
      "signature": "0x3b3dca76"
    },
    {
      "constant": false,
      "inputs": [],
      "name": "withdraw",
      "outputs": [],
      "payable": false,
      "stateMutability": "nonpayable",
      "type": "function",
      "signature": "0x3ccfd60b"
    },
    {
      "constant": true,
      "inputs": [],
      "name": "manager",
      "outputs": [
        {
          "name": "",
          "type": "address"
        }
      ],
      "payable": false,
      "stateMutability": "view",
      "type": "function",
      "signature": "0x481c6a75"
    },
    {
      "constant": false,
      "inputs": [
        {
          "name": "profit",
          "type": "uint256"
        },
        {
          "name": "bet",
          "type": "uint256"
        },
        {
          "name": "to",
          "type": "address"
        }
      ],
      "name": "checkAndSend",
      "outputs": [],
      "payable": false,
      "stateMutability": "nonpayable",
      "type": "function",
      "signature": "0x5ec3b9f2"
    },
    {
      "constant": true,
      "inputs": [],
      "name": "LCTadr",
      "outputs": [
        {
          "name": "",
          "type": "address"
        }
      ],
      "payable": false,
      "stateMutability": "view",
      "type": "function",
      "signature": "0x64ff6269"
    },
    {
      "constant": true,
      "inputs": [],
      "name": "totPool",
      "outputs": [
        {
          "name": "",
          "type": "uint256"
        }
      ],
      "payable": false,
      "stateMutability": "view",
      "type": "function",
      "signature": "0x778a6f53"
    },
    {
      "constant": true,
      "inputs": [],
      "name": "superManager",
      "outputs": [
        {
          "name": "",
          "type": "address"
        }
      ],
      "payable": false,
      "stateMutability": "view",
      "type": "function",
      "signature": "0x86ea0c9b"
    },
    {
      "constant": true,
      "inputs": [
        {
          "name": "player",
          "type": "address"
        }
      ],
      "name": "inqRegistered",
      "outputs": [
        {
          "name": "",
          "type": "bool"
        }
      ],
      "payable": false,
      "stateMutability": "view",
      "type": "function",
      "signature": "0x96e156c2"
    },
    {
      "constant": false,
      "inputs": [
        {
          "name": "new_manager",
          "type": "address"
        }
      ],
      "name": "changeManager",
      "outputs": [],
      "payable": false,
      "stateMutability": "nonpayable",
      "type": "function",
      "signature": "0xa3fbbaae"
    },
    {
      "constant": false,
      "inputs": [
        {
          "name": "newChip",
          "type": "address"
        }
      ],
      "name": "setChip",
      "outputs": [],
      "payable": false,
      "stateMutability": "nonpayable",
      "type": "function",
      "signature": "0xa43c2496"
    },
    {
      "constant": true,
      "inputs": [],
      "name": "chip",
      "outputs": [
        {
          "name": "",
          "type": "address"
        }
      ],
      "payable": false,
      "stateMutability": "view",
      "type": "function",
      "signature": "0xb61500e4"
    },
    {
      "constant": false,
      "inputs": [
        {
          "name": "to",
          "type": "address"
        },
        {
          "name": "value",
          "type": "uint256"
        }
      ],
      "name": "sendToPlayer",
      "outputs": [],
      "payable": false,
      "stateMutability": "nonpayable",
      "type": "function",
      "signature": "0xdfdeccfc"
    },
    {
      "payable": true,
      "stateMutability": "payable",
      "type": "fallback"
    },
    {
      "anonymous": false,
      "inputs": [
        {
          "indexed": true,
          "name": "player",
          "type": "address"
        },
        {
          "indexed": false,
          "name": "no",
          "type": "uint256"
        },
        {
          "indexed": false,
          "name": "fishType",
          "type": "uint256"
        }
      ],
      "name": "everyResult",
      "type": "event",
      "signature": "0x5a45881df0501c877e05094ba46ee1ea93b34b1e9d7f89ecc1204195765b5883"
    },
    {
      "anonymous": false,
      "inputs": [
        {
          "indexed": true,
          "name": "player",
          "type": "address"
        },
        {
          "indexed": false,
          "name": "getMoney",
          "type": "uint256"
        }
      ],
      "name": "finalResult",
      "type": "event",
      "signature": "0x1488cf1de04c9242a531c3a7993b51dbb3512c1c1a616e7b72a2f91dc313a6ef"
    },
    {
      "constant": false,
      "inputs": [
        {
          "name": "value",
          "type": "uint256"
        },
        {
          "name": "_rod",
          "type": "uint256"
        }
      ],
      "name": "selectRod",
      "outputs": [],
      "payable": false,
      "stateMutability": "nonpayable",
      "type": "function",
      "signature": "0x0ba9f01a"
    },
    {
      "constant": false,
      "inputs": [
        {
          "name": "value",
          "type": "uint256"
        },
        {
          "name": "_bait",
          "type": "uint256"
        }
      ],
      "name": "selectBait",
      "outputs": [],
      "payable": false,
      "stateMutability": "nonpayable",
      "type": "function",
      "signature": "0x603b8557"
    },
    {
      "constant": false,
      "inputs": [],
      "name": "Fishing",
      "outputs": [],
      "payable": false,
      "stateMutability": "nonpayable",
      "type": "function",
      "signature": "0x6765bc16"
    },
    {
      "constant": true,
      "inputs": [
        {
          "name": "_address",
          "type": "address"
        }
      ],
      "name": "inquireInfo",
      "outputs": [
        {
          "name": "",
          "type": "uint256[]"
        }
      ],
      "payable": false,
      "stateMutability": "view",
      "type": "function",
      "signature": "0x6d105ae7"
    },
    {
      "constant": true,
      "inputs": [
        {
          "name": "_address",
          "type": "address"
        }
      ],
      "name": "inquireMoney",
      "outputs": [
        {
          "name": "",
          "type": "uint256"
        }
      ],
      "payable": false,
      "stateMutability": "view",
      "type": "function",
      "signature": "0x7fdf6d62"
    }
  ],
  "bytecode": "0x608060405260008054600160a060020a031990811673151e1a9f5234e50cc7ffc2ad7da73a31d77cea1b179091556001805490911633179055611d63806100476000396000f3fe6080604052600436106100fd5760e060020a60003504630ba9f01a81146100ff5780630eb700c01461012f578063282feef71461017e5780632fcea6c4146101b15780633abfcbde146101e35780633b3dca76146101f85780633ccfd60b1461021f578063481c6a75146102345780635ec3b9f214610249578063603b85571461028857806364ff6269146102b85780636765bc16146102cd5780636d105ae7146102e2578063778a6f53146103655780637fdf6d621461037a57806386ea0c9b146103ad57806396e156c2146103c2578063a3fbbaae14610409578063a43c24961461043c578063b61500e41461046f578063dfdeccfc14610484575b005b34801561010b57600080fd5b506100fd6004803603604081101561012257600080fd5b50803590602001356104bd565b34801561013b57600080fd5b506101626004803603602081101561015257600080fd5b5035600160a060020a031661091b565b60408051600160a060020a039092168252519081900360200190f35b34801561018a57600080fd5b506100fd600480360360208110156101a157600080fd5b5035600160a060020a03166109af565b3480156101bd57600080fd5b506100fd600480360360408110156101d457600080fd5b50803590602001351515610a40565b3480156101ef57600080fd5b50610162610ab8565b34801561020457600080fd5b5061020d610b2f565b60408051918252519081900360200190f35b34801561022b57600080fd5b506100fd610ba0565b34801561024057600080fd5b50610162610c49565b34801561025557600080fd5b506100fd6004803603606081101561026c57600080fd5b5080359060208101359060400135600160a060020a0316610c58565b34801561029457600080fd5b506100fd600480360360408110156102ab57600080fd5b5080359060200135610d29565b3480156102c457600080fd5b5061016261118d565b3480156102d957600080fd5b506100fd6111d2565b3480156102ee57600080fd5b506103156004803603602081101561030557600080fd5b5035600160a060020a0316611674565b60408051602080825283518183015283519192839290830191858101910280838360005b83811015610351578181015183820152602001610339565b505050509050019250505060405180910390f35b34801561037157600080fd5b5061020d6116e3565b34801561038657600080fd5b5061020d6004803603602081101561039d57600080fd5b5035600160a060020a0316611728565b3480156103b957600080fd5b50610162611746565b3480156103ce57600080fd5b506103f5600480360360208110156103e557600080fd5b5035600160a060020a0316611755565b604080519115158252519081900360200190f35b34801561041557600080fd5b506100fd6004803603602081101561042c57600080fd5b5035600160a060020a03166117b7565b34801561044857600080fd5b506100fd6004803603602081101561045f57600080fd5b5035600160a060020a031661185f565b34801561047b57600080fd5b5061016261188e565b34801561049057600080fd5b506100fd600480360360408110156104a757600080fd5b50600160a060020a038135169060200135611903565b6104c68261197d565b33600090815260036020819052604090912001546104ea908363ffffffff611a1016565b336000908152600360208190526040822001919091558110801590610510575060088111155b1515610566576040805160e560020a62461bcd02815260206004820152601360248201527f526f64206e756d6265722069732077726f6e6700000000000000000000000000604482015290519081900360640190fd5b3360009081526003602052604090206002015460ff16156105d1576040805160e560020a62461bcd02815260206004820152601460248201527f416c72656164792073656c656374656420726f64000000000000000000000000604482015290519081900360640190fd5b600081151561062c576402540be4008314610624576040805160e560020a62461bcd02815260206004820152600f6024820152600080516020611d18833981519152604482015290519081900360640190fd5b5060016108f7565b8160011415610687576406fc23ac00831461067f576040805160e560020a62461bcd02815260206004820152600f6024820152600080516020611d18833981519152604482015290519081900360640190fd5b5060026108f7565b81600214156106e257641bf08eb00083146106da576040805160e560020a62461bcd02815260206004820152600f6024820152600080516020611d18833981519152604482015290519081900360640190fd5b5060046108f7565b816003141561073d57642794ca24008314610735576040805160e560020a62461bcd02815260206004820152600f6024820152600080516020611d18833981519152604482015290519081900360640190fd5b5060066108f7565b816004141561079857643a352944008314610790576040805160e560020a62461bcd02815260206004820152600f6024820152600080516020611d18833981519152604482015290519081900360640190fd5b5060086108f7565b81600514156107f3576445d964b80083146107eb576040805160e560020a62461bcd02815260206004820152600f6024820152600080516020611d18833981519152604482015290519081900360640190fd5b50600a6108f7565b816006141561084e5764746a5288008314610846576040805160e560020a62461bcd02815260206004820152600f6024820152600080516020611d18833981519152604482015290519081900360640190fd5b50600c6108f7565b81600714156108a95764a2fb40580083146108a1576040805160e560020a62461bcd02815260206004820152600f6024820152600080516020611d18833981519152604482015290519081900360640190fd5b50600e6108f7565b64ba43b7400083146108f3576040805160e560020a62461bcd02815260206004820152600f6024820152600080516020611d18833981519152604482015290519081900360640190fd5b5060105b336000908152600360205260409020908155600201805460ff191660011790555050565b600061092561118d565b600160a060020a0316630eb700c0836040518263ffffffff1660e060020a0281526004018082600160a060020a0316600160a060020a0316815260200191505060206040518083038186803b15801561097d57600080fd5b505afa158015610991573d6000803e3d6000fd5b505050506040513d60208110156109a757600080fd5b505192915050565b600054600160a060020a03163314610a11576040805160e560020a62461bcd02815260206004820152601a60248201527f596f7520617265206e6f7420612073757065724d616e61676572000000000000604482015290519081900360640190fd5b6000805473ffffffffffffffffffffffffffffffffffffffff1916600160a060020a0392909216919091179055565b610a4861188e565b600160a060020a0316632fcea6c483836040518363ffffffff1660e060020a028152600401808381526020018215151515815260200192505050600060405180830381600087803b158015610a9c57600080fd5b505af1158015610ab0573d6000803e3d6000fd5b505050505050565b6000610ac261118d565b600160a060020a0316633abfcbde6040518163ffffffff1660e060020a02815260040160206040518083038186803b158015610afd57600080fd5b505afa158015610b11573d6000803e3d6000fd5b505050506040513d6020811015610b2757600080fd5b505190505b90565b6000610b39611cbb565b60208160008073c327ff1025c5b3d2deb5e3f0f161b3f7e557579a600019fa1515610b6357600080fd5b425a915160408051602081810194909452808201949094526060808501929092528051808503909201825260809093019092528151910120919050565b600154600160a060020a0316331480610bc35750600054600160a060020a031633145b1515610c19576040805160e560020a62461bcd02815260206004820152601560248201527f596f7520617265206e6f742061206d616e616765720000000000000000000000604482015290519081900360640190fd5b6040513390303180156108fc02916000818181858888f19350505050158015610c46573d6000803e3d6000fd5b50565b600154600160a060020a031681565b818310610ca157610c698184611903565b6000610c7433611755565b15610c9057610c8b610c853361091b565b82611903565b610c9b565b610c9b610c85610ab8565b50610d24565b610cab8184611903565b6000610cbd838563ffffffff611a7616565b90506000610cd282600a63ffffffff611ab816565b90506000610ce783605a63ffffffff611ab816565b9050610cf4816001610a40565b610cfd33611755565b15610d1957610d14610d0e3361091b565b83611903565b610ab0565b610ab0610d0e610ab8565b505050565b610d328261197d565b3360009081526003602081905260409091200154610d56908363ffffffff611a1016565b336000908152600360208190526040822001919091558110801590610d7c575060088111155b1515610dd2576040805160e560020a62461bcd02815260206004820152601460248201527f42616974206e756d6265722069732077726f6e67000000000000000000000000604482015290519081900360640190fd5b33600090815260036020526040902060020154610100900460ff1615610e42576040805160e560020a62461bcd02815260206004820152601460248201527f416c72656164792073656c656374656420726f64000000000000000000000000604482015290519081900360640190fd5b6000811515610e97578215610e8f576040805160e560020a62461bcd02815260206004820152600f6024820152600080516020611d18833981519152604482015290519081900360640190fd5b506000611162565b8160011415610ef2576402540be4008314610eea576040805160e560020a62461bcd02815260206004820152600f6024820152600080516020611d18833981519152604482015290519081900360640190fd5b506002611162565b8160021415610f4d576406fc23ac008314610f45576040805160e560020a62461bcd02815260206004820152600f6024820152600080516020611d18833981519152604482015290519081900360640190fd5b506004611162565b8160031415610fa85764174876e8008314610fa0576040805160e560020a62461bcd02815260206004820152600f6024820152600080516020611d18833981519152604482015290519081900360640190fd5b506006611162565b8160041415611003576422ecb25c008314610ffb576040805160e560020a62461bcd02815260206004820152600f6024820152600080516020611d18833981519152604482015290519081900360640190fd5b506008611162565b816005141561105e57642e90edd0008314611056576040805160e560020a62461bcd02815260206004820152600f6024820152600080516020611d18833981519152604482015290519081900360640190fd5b50600a611162565b81600614156110b957643a3529440083146110b1576040805160e560020a62461bcd02815260206004820152600f6024820152600080516020611d18833981519152604482015290519081900360640190fd5b50600c611162565b8160071415611114576445d964b800831461110c576040805160e560020a62461bcd02815260206004820152600f6024820152600080516020611d18833981519152604482015290519081900360640190fd5b50600e611162565b645d21dba000831461115e576040805160e560020a62461bcd02815260206004820152600f6024820152600080516020611d18833981519152604482015290519081900360640190fd5b5060105b3360009081526003602052604090206001810191909155600201805461ff0019166101001790555050565b600061119761188e565b600160a060020a03166364ff62696040518163ffffffff1660e060020a02815260040160206040518083038186803b158015610afd57600080fd5b3360009081526003602052604090206002015460ff16801561120b575033600090815260036020526040902060020154610100900460ff165b151561121657600080fd5b33600090815260036020819052604082209081015491908190819061123e9060050182611cda565b503360009081526003602052604081206004018190554261125d610b2f565b6040805160208082019490945280820192909252805180830382018152606090920190528051910120905060005b336000908152600360205260409020548110156115e6573360009081526003602090815260408220600101549060a3908590600286029081106112ca57fe5b1a7f0100000000000000000000000000000000000000000000000000000000000000027f0100000000000000000000000000000000000000000000000000000000000000900460ff1681151561131c57fe5b0660ff1601905060a3811115611330575060a35b600a811015611342576000945061157d565b600b81101580156113545750601e8111155b156113795760019450611372846402540be40063ffffffff611a1016565b935061157d565b601f811015801561138b575060328111155b156113a95760029450611372846402540be40063ffffffff611a1016565b603381101580156113bb575060448111155b156113d95760039450611372846404a817c80063ffffffff611a1016565b604581101580156113eb575060568111155b156114095760049450611372846404a817c80063ffffffff611a1016565b6057811015801561141b575060678111155b156114395760059450611372846406fc23ac0063ffffffff611a1016565b6068811015801561144b575060768111155b15611469576006945061137284640ba43b740063ffffffff611a1016565b6077811015801561147b575060858111155b15611499576007945061137284640ba43b740063ffffffff611a1016565b608681101580156114ab575060918111155b156114c95760089450611372846412a05f200063ffffffff611a1016565b609281101580156114db575060998111155b156114f957600994506113728464174876e80063ffffffff611a1016565b609a811015801561150b5750609e8111155b1561152957600a9450611372846422ecb25c0063ffffffff611a1016565b609f811015801561153b575060a18111155b1561155957600b945061137284642e90edd00063ffffffff611a1016565b60a2811061157d57600c945061157a8464746a52880063ffffffff611a1016565b93505b6040805183815260208101879052815133927f5a45881df0501c877e05094ba46ee1ea93b34b1e9d7f89ecc1204195765b5883928290030190a250336000908152600360209081526040822060050180546001818101835591845291909220018590550161128b565b50811561160e576115f8828533610c58565b3360009081526003602052604090206004018290555b60408051838152905133917f1488cf1de04c9242a531c3a7993b51dbb3512c1c1a616e7b72a2f91dc313a6ef919081900360200190a2505033600090815260036020819052604082208281556001810183905560028101805461ffff1916905501555050565b600160a060020a0381166000908152600360209081526040918290206005018054835181840281018401909452808452606093928301828280156116d757602002820191906000526020600020905b8154815260200190600101908083116116c3575b50505050509050919050565b60006116ed61188e565b600160a060020a031663778a6f536040518163ffffffff1660e060020a02815260040160206040518083038186803b158015610afd57600080fd5b600160a060020a031660009081526003602052604090206004015490565b600054600160a060020a031681565b600061175f61118d565b600160a060020a03166396e156c2836040518263ffffffff1660e060020a0281526004018082600160a060020a0316600160a060020a0316815260200191505060206040518083038186803b15801561097d57600080fd5b600154600160a060020a03163314806117da5750600054600160a060020a031633145b1515611830576040805160e560020a62461bcd02815260206004820152601560248201527f596f7520617265206e6f742061206d616e616765720000000000000000000000604482015290519081900360640190fd5b6001805473ffffffffffffffffffffffffffffffffffffffff1916600160a060020a0392909216919091179055565b6002805473ffffffffffffffffffffffffffffffffffffffff1916600160a060020a0392909216919091179055565b600254600090600160a060020a031615156118f3576040805160e560020a62461bcd02815260206004820152601760248201527f706f6f6c2061646472657373206973206e6f7420736574000000000000000000604482015290519081900360640190fd5b50600254600160a060020a031690565b61190b61188e565b604080517ffde1c413000000000000000000000000000000000000000000000000000000008152306004820152600160a060020a038581166024830152604482018590529151929091169163fde1c4139160648082019260009290919082900301818387803b158015610a9c57600080fd5b61198561188e565b604080517ffde1c413000000000000000000000000000000000000000000000000000000008152336004820152306024820152604481018490529051600160a060020a03929092169163fde1c4139160648082019260009290919082900301818387803b1580156119f557600080fd5b505af1158015611a09573d6000803e3d6000fd5b5050505050565b600082820183811015611a6d576040805160e560020a62461bcd02815260206004820152601b60248201527f536166654d6174683a206164646974696f6e206f766572666c6f770000000000604482015290519081900360640190fd5b90505b92915050565b6000611a6d83836040805190810160405280601e81526020017f536166654d6174683a207375627472616374696f6e206f766572666c6f770000815250611adb565b6000611a6d6064611acf858563ffffffff611b7516565b9063ffffffff611c1116565b60008184841115611b6d5760405160e560020a62461bcd0281526004018080602001828103825283818151815260200191508051906020019080838360005b83811015611b32578181015183820152602001611b1a565b50505050905090810190601f168015611b5f5780820380516001836020036101000a031916815260200191505b509250505060405180910390fd5b505050900390565b6000821515611b8657506000611a70565b828202828482811515611b9557fe5b0414611a6d576040805160e560020a62461bcd02815260206004820152602160248201527f536166654d6174683a206d756c7469706c69636174696f6e206f766572666c6f60448201527f7700000000000000000000000000000000000000000000000000000000000000606482015290519081900360840190fd5b6000611a6d83836040805190810160405280601a81526020017f536166654d6174683a206469766973696f6e206279207a65726f000000000000815250600081818411611ca35760405160e560020a62461bcd02815260040180806020018281038252838181518152602001915080519060200190808383600083811015611b32578181015183820152602001611b1a565b5060008385811515611cb157fe5b0495945050505050565b6020604051908101604052806001906020820280388339509192915050565b815481835581811115610d2457600083815260209020610d24918101908301610b2c91905b80821115611d135760008155600101611cff565b509056fe5061792076616c7565206572726f720000000000000000000000000000000000a165627a7a723058206cc9beef411edcacf063822f8561e46b012d0051ff89de98c7ddbe911758218f0029",
  "source": "pragma solidity >=0.5.0 <0.6.0;\r\n\r\nimport \"./ConnectChips.sol\";\r\nimport \"./Manager.sol\";\r\n\r\nlibrary Address {\r\n    \r\n    function isContract(address account) internal view returns (bool) {\r\n\r\n        bytes32 codehash;\r\n        bytes32 accountHash = 0xc5d2460186f7233c927e7db2dcc703c0e500b653ca82273b7bfad8045d85a470;\r\n        \r\n        assembly { codehash := extcodehash(account) }\r\n        return (codehash != 0x0 && codehash != accountHash);\r\n    }\r\n\r\n    \r\n    function toPayable(address account) internal pure returns (address payable) {\r\n        return address(uint160(account));\r\n    }\r\n}\r\n\r\ncontract FishingGame is Manager, ConnectChips{\r\n    \r\n    using SafeMath for uint;\r\n    using SafeMath16 for uint16;\r\n    using SafeMath8 for uint8;\r\n    using Address for address;\r\n    \r\n    mapping(address => info) player_Info;\r\n    \r\n    //2020\r\n    event everyResult(address indexed player,uint no,uint fishType);               //\r\n    event finalResult(address indexed player,uint getMoney);                         //\r\n\r\n    struct info{\r\n        uint count;         //\r\n        uint rate;          //\r\n        bool finishRod;\r\n        bool finishBait;\r\n        uint payValue;\r\n\r\n        uint money;         //\r\n        uint[] fishTyp;    //\r\n    }\r\n\r\n    function() external payable{}\r\n\r\n    function selectRod(uint value, uint _rod) public{              //\r\n        payToGame(value);\r\n        //require(address(this).balance >= 200 ether, \"The contract less than 200 Tan\");\r\n\r\n        player_Info[msg.sender].payValue = player_Info[msg.sender].payValue.add(value);\r\n        require(_rod >=  0 && _rod <= 8 ,\"Rod number is wrong\");\r\n        require(!player_Info[msg.sender].finishRod,\"Already selected rod\");\r\n        \r\n        //uint payAc;             //AC\r\n        uint _count;             //\r\n        \r\n        if(_rod == 0){          //\r\n            //payAc = 0;\r\n            require(value == 100e8, \"Pay value error\");\r\n            _count = 1;\r\n        }else if(_rod == 1){    //\r\n            //payAc = 100;\r\n            require(value == 300e8, \"Pay value error\");\r\n            _count = 2;\r\n        }else if(_rod == 2){    //\r\n            //payAc = 500;\r\n            require(value == 1200e8, \"Pay value error\");\r\n            _count = 4;\r\n        }else if(_rod == 3){    //\r\n            //payAc = 2000;\r\n            require(value == 1700e8, \"Pay value error\");\r\n            _count = 6;\r\n        }else if(_rod == 4){    //\r\n            //payAc = 3000;\r\n            require(value == 2500e8, \"Pay value error\");\r\n            _count = 8;\r\n        }else if(_rod == 5){    //\r\n            //payAc = 4000;\r\n            require(value == 3000e8, \"Pay value error\");\r\n            _count = 10;\r\n        }else if(_rod == 6){    //\r\n            //payAc = 6000;\r\n            require(value == 5000e8, \"Pay value error\");\r\n            _count = 12;\r\n        }else if(_rod == 7){    //\r\n            //payAc = 8000;\r\n            require(value == 7000e8, \"Pay value error\");\r\n            _count = 14;\r\n        }else{\r\n            //payAc = 10000;      //\r\n            require(value == 8000e8, \"Pay value error\");\r\n            _count = 16;\r\n        }\r\n        \r\n        player_Info[msg.sender].count = _count;\r\n        player_Info[msg.sender].finishRod = true;\r\n\r\n    }\r\n    \r\n    function selectBait(uint value, uint _bait) public{           //\r\n        payToGame(value);\r\n        //require(address(this).balance >= 200 ether,\"The contract less than 200 Tan\");\r\n        player_Info[msg.sender].payValue = player_Info[msg.sender].payValue.add(value);\r\n        require(_bait >= 0 && _bait <= 8, \"Bait number is wrong\");\r\n        require(!player_Info[msg.sender].finishBait,\"Already selected rod\");\r\n        \r\n        //uint payAc;             //AC\r\n        uint _rate;\r\n        \r\n        if(_bait == 0){          //\r\n            //payAc = 0;\r\n            require(value == 0, \"Pay value error\");\r\n            _rate = 0;\r\n        }else if(_bait == 1){    //\r\n            //payAc = 100;\r\n            require(value == 100e8, \"Pay value error\");\r\n            _rate = 2;\r\n        }else if(_bait == 2){    //\r\n            //payAc = 500;\r\n            require(value == 300e8, \"Pay value error\");\r\n            _rate = 4;\r\n        }else if(_bait == 3){    //\r\n            //payAc = 2000;\r\n            require(value == 1000e8, \"Pay value error\");\r\n            _rate = 6;\r\n        }else if(_bait == 4){    //\r\n            // payAc = 3000;\r\n            require(value == 1500e8, \"Pay value error\");\r\n            _rate = 8;\r\n        }else if(_bait == 5){    //\r\n            //payAc = 4000;\r\n            require(value == 2000e8, \"Pay value error\");\r\n            _rate = 10;\r\n        }else if(_bait == 6){    //\r\n            //payAc = 6000;\r\n            require(value == 2500e8, \"Pay value error\");\r\n            _rate = 12;\r\n        }else if(_bait == 7){    //\r\n            //payAc = 8000;\r\n            require(value == 3000e8, \"Pay value error\");\r\n            _rate = 14;\r\n        }else{\r\n            //payAc = 10000;      //\r\n            require(value == 4000e8, \"Pay value error\");\r\n            _rate = 16;\r\n        }\r\n        \r\n        player_Info[msg.sender].rate = _rate;\r\n        player_Info[msg.sender].finishBait = true;\r\n    }\r\n    \r\n    function Fishing() public{\r\n        require(player_Info[msg.sender].finishRod && player_Info[msg.sender].finishBait);\r\n        uint payValue = player_Info[msg.sender].payValue;\r\n        uint fishType;\r\n        // uint8 random;\r\n        uint getMoney = 0;\r\n        \r\n        player_Info[msg.sender].fishTyp.length = 0;\r\n        player_Info[msg.sender].money = 0;\r\n        \r\n        bytes32 randomSeed = keccak256(abi.encodePacked(now, rand()));\r\n        \r\n        \r\n        for(uint i = 0 ; i < player_Info[msg.sender].count ; i++){\r\n            uint random = uint8(randomSeed[i * 2]) % 163 + player_Info[msg.sender].rate;\r\n            if(random > 163){\r\n                random = 163;\r\n            }\r\n        \r\n            if(random < 10){                        //10%\r\n                fishType = 0;\r\n            }else if(random >= 11 && random <= 30){     //20%\r\n                fishType = 1;\r\n                getMoney = getMoney.add(100e8);\r\n            }else if(random >= 31 && random <= 50){     //20%\r\n                fishType = 2;\r\n                getMoney = getMoney.add(100e8);\r\n            }else if(random >= 51 && random <= 68){     //18%\r\n                fishType = 3;\r\n                getMoney = getMoney.add(200e8);\r\n            }else if(random >= 69 && random <= 86){     //18% \r\n                fishType = 4;\r\n                getMoney = getMoney.add(200e8);\r\n            }else if(random >= 87 && random <= 103){    //17%  \r\n                fishType = 5;\r\n                getMoney = getMoney.add(300e8);\r\n            }else if(random >= 104 && random <= 118){   //15%\r\n                fishType = 6;\r\n                getMoney = getMoney.add(500e8);\r\n            }else if(random >= 119 && random <= 133){   //15%\r\n                fishType = 7;\r\n                getMoney = getMoney.add(500e8);\r\n            }else if(random >= 134 && random <= 145){   //12%\r\n                fishType = 8;\r\n                getMoney = getMoney.add(800e8);\r\n            }else if(random >= 146 && random <= 153){   //8%\r\n                fishType = 9;\r\n                getMoney = getMoney.add(1000e8);\r\n            }else if(random >= 154 && random <= 158){   //5%\r\n                fishType = 10;\r\n                getMoney = getMoney.add(1500e8);\r\n            }else if(random >= 159 && random <= 161){   //3%\r\n                fishType = 11;\r\n                getMoney = getMoney.add(2000e8);\r\n            }else if(random >= 162){                    //2%\r\n                fishType = 12;\r\n                getMoney = getMoney.add(5000e8);\r\n            }\r\n            emit everyResult(msg.sender,i,fishType);\r\n            player_Info[msg.sender].fishTyp.push(fishType); //\r\n        }\r\n    \r\n        if(getMoney != 0){\r\n            // msg.sender .transfer(getMoney);\r\n            checkAndSend(getMoney, payValue, msg.sender);\r\n            player_Info[msg.sender].money = getMoney;\r\n        }\r\n        \r\n        emit finalResult(msg.sender,getMoney);\r\n        \r\n        //\r\n        player_Info[msg.sender].count = 0;\r\n        player_Info[msg.sender].rate = 0;\r\n        player_Info[msg.sender].finishRod = false;\r\n        player_Info[msg.sender].finishBait = false;\r\n        player_Info[msg.sender].payValue = 0;\r\n        \r\n    }\r\n    \r\n    function inquireInfo(address _address) public view returns(uint[] memory){         //\r\n        return player_Info[_address].fishTyp;\r\n    }\r\n    \r\n    function inquireMoney(address _address) public view returns(uint){           //\r\n        return (player_Info[_address].money);\r\n    }\r\n    \r\n}\r\n",
  "sourcePath": "C:/Users/user/Documents/smart-contract/casino/contracts/FishingGame.sol",
  "compiler": {
    "name": "solc",
    "version": "0.5.1+commit.c8a2cb62.Emscripten.clang"
  },
  "schemaVersion": "3.0.2",
  "updatedAt": "2020-05-28T08:52:38.488Z",
  "devdoc": {
    "methods": {}
  },
  "userdoc": {
    "methods": {}
  }
}