{
  "contractName": "FruitSlot",
  "abi": [
    {
      "constant": true,
      "inputs": [
        {
          "name": "player",
          "type": "address"
        }
      ],
      "name": "inqReferrer",
      "outputs": [
        {
          "name": "",
          "type": "address"
        }
      ],
      "payable": false,
      "stateMutability": "view",
      "type": "function",
      "signature": "0x0eb700c0"
    },
    {
      "constant": false,
      "inputs": [
        {
          "name": "new_superManager",
          "type": "address"
        }
      ],
      "name": "changeSuperManager",
      "outputs": [],
      "payable": false,
      "stateMutability": "nonpayable",
      "type": "function",
      "signature": "0x282feef7"
    },
    {
      "constant": false,
      "inputs": [
        {
          "name": "value",
          "type": "uint256"
        },
        {
          "name": "toPlayer",
          "type": "bool"
        }
      ],
      "name": "distribute",
      "outputs": [],
      "payable": false,
      "stateMutability": "nonpayable",
      "type": "function",
      "signature": "0x2fcea6c4"
    },
    {
      "constant": true,
      "inputs": [],
      "name": "inqTeam",
      "outputs": [
        {
          "name": "",
          "type": "address"
        }
      ],
      "payable": false,
      "stateMutability": "view",
      "type": "function",
      "signature": "0x3abfcbde"
    },
    {
      "constant": true,
      "inputs": [],
      "name": "rand",
      "outputs": [
        {
          "name": "",
          "type": "uint256"
        }
      ],
      "payable": false,
      "stateMutability": "view",
      "type": "function",
      "signature": "0x3b3dca76"
    },
    {
      "constant": false,
      "inputs": [],
      "name": "withdraw",
      "outputs": [],
      "payable": false,
      "stateMutability": "nonpayable",
      "type": "function",
      "signature": "0x3ccfd60b"
    },
    {
      "constant": true,
      "inputs": [],
      "name": "manager",
      "outputs": [
        {
          "name": "",
          "type": "address"
        }
      ],
      "payable": false,
      "stateMutability": "view",
      "type": "function",
      "signature": "0x481c6a75"
    },
    {
      "constant": false,
      "inputs": [
        {
          "name": "profit",
          "type": "uint256"
        },
        {
          "name": "bet",
          "type": "uint256"
        },
        {
          "name": "to",
          "type": "address"
        }
      ],
      "name": "checkAndSend",
      "outputs": [],
      "payable": false,
      "stateMutability": "nonpayable",
      "type": "function",
      "signature": "0x5ec3b9f2"
    },
    {
      "constant": true,
      "inputs": [],
      "name": "LCTadr",
      "outputs": [
        {
          "name": "",
          "type": "address"
        }
      ],
      "payable": false,
      "stateMutability": "view",
      "type": "function",
      "signature": "0x64ff6269"
    },
    {
      "constant": true,
      "inputs": [],
      "name": "totPool",
      "outputs": [
        {
          "name": "",
          "type": "uint256"
        }
      ],
      "payable": false,
      "stateMutability": "view",
      "type": "function",
      "signature": "0x778a6f53"
    },
    {
      "constant": true,
      "inputs": [],
      "name": "superManager",
      "outputs": [
        {
          "name": "",
          "type": "address"
        }
      ],
      "payable": false,
      "stateMutability": "view",
      "type": "function",
      "signature": "0x86ea0c9b"
    },
    {
      "constant": true,
      "inputs": [
        {
          "name": "player",
          "type": "address"
        }
      ],
      "name": "inqRegistered",
      "outputs": [
        {
          "name": "",
          "type": "bool"
        }
      ],
      "payable": false,
      "stateMutability": "view",
      "type": "function",
      "signature": "0x96e156c2"
    },
    {
      "constant": false,
      "inputs": [
        {
          "name": "new_manager",
          "type": "address"
        }
      ],
      "name": "changeManager",
      "outputs": [],
      "payable": false,
      "stateMutability": "nonpayable",
      "type": "function",
      "signature": "0xa3fbbaae"
    },
    {
      "constant": false,
      "inputs": [
        {
          "name": "newChip",
          "type": "address"
        }
      ],
      "name": "setChip",
      "outputs": [],
      "payable": false,
      "stateMutability": "nonpayable",
      "type": "function",
      "signature": "0xa43c2496"
    },
    {
      "constant": true,
      "inputs": [],
      "name": "chip",
      "outputs": [
        {
          "name": "",
          "type": "address"
        }
      ],
      "payable": false,
      "stateMutability": "view",
      "type": "function",
      "signature": "0xb61500e4"
    },
    {
      "constant": false,
      "inputs": [
        {
          "name": "to",
          "type": "address"
        },
        {
          "name": "value",
          "type": "uint256"
        }
      ],
      "name": "sendToPlayer",
      "outputs": [],
      "payable": false,
      "stateMutability": "nonpayable",
      "type": "function",
      "signature": "0xdfdeccfc"
    },
    {
      "payable": true,
      "stateMutability": "payable",
      "type": "fallback"
    },
    {
      "anonymous": false,
      "inputs": [
        {
          "indexed": true,
          "name": "player",
          "type": "address"
        },
        {
          "indexed": false,
          "name": "random",
          "type": "uint8"
        }
      ],
      "name": "randomNum",
      "type": "event",
      "signature": "0x49504ebb4e90d960516113b79105c5650b81d2f4e9f6fae3b9b6ac201ad01e86"
    },
    {
      "anonymous": false,
      "inputs": [
        {
          "indexed": true,
          "name": "player",
          "type": "address"
        },
        {
          "indexed": false,
          "name": "betNo",
          "type": "uint8"
        },
        {
          "indexed": false,
          "name": "betMoney",
          "type": "uint256"
        }
      ],
      "name": "bet",
      "type": "event",
      "signature": "0x885ab66d8c011784f86e960c78685b1e075f0c6364249eb3419c2c84599dd3a9"
    },
    {
      "anonymous": false,
      "inputs": [
        {
          "indexed": true,
          "name": "player",
          "type": "address"
        },
        {
          "indexed": false,
          "name": "_type",
          "type": "uint8"
        },
        {
          "indexed": false,
          "name": "bonus",
          "type": "uint256"
        }
      ],
      "name": "betResult",
      "type": "event",
      "signature": "0x09361a44b08260b740b9180eef96546018a95507c5646a595396c3da3e6bbdcf"
    },
    {
      "constant": false,
      "inputs": [],
      "name": "startGame",
      "outputs": [],
      "payable": false,
      "stateMutability": "nonpayable",
      "type": "function",
      "signature": "0xd65ab5f2"
    },
    {
      "constant": false,
      "inputs": [
        {
          "name": "value",
          "type": "uint256"
        },
        {
          "name": "betNo",
          "type": "uint8[7]"
        }
      ],
      "name": "RunSpin",
      "outputs": [],
      "payable": false,
      "stateMutability": "nonpayable",
      "type": "function",
      "signature": "0x6b58004d"
    },
    {
      "constant": true,
      "inputs": [
        {
          "name": "_address",
          "type": "address"
        }
      ],
      "name": "inquireRandom",
      "outputs": [
        {
          "name": "",
          "type": "uint8"
        }
      ],
      "payable": false,
      "stateMutability": "view",
      "type": "function",
      "signature": "0x399b760b"
    }
  ],
  "bytecode": "0x608060405260008054600160a060020a031990811673151e1a9f5234e50cc7ffc2ad7da73a31d77cea1b1790915560018054909116331790556113f4806100476000396000f3fe6080604052600436106100e75760e060020a60003504630eb700c081146100e9578063282feef7146101385780632fcea6c41461016b578063399b760b1461019d5780633abfcbde146101e65780633b3dca76146101fb5780633ccfd60b14610222578063481c6a75146102375780635ec3b9f21461024c57806364ff62691461028b5780636b58004d146102a0578063778a6f531461030557806386ea0c9b1461031a57806396e156c21461032f578063a3fbbaae14610376578063a43c2496146103a9578063b61500e4146103dc578063d65ab5f2146103f1578063dfdeccfc14610406575b005b3480156100f557600080fd5b5061011c6004803603602081101561010c57600080fd5b5035600160a060020a031661043f565b60408051600160a060020a039092168252519081900360200190f35b34801561014457600080fd5b506100e76004803603602081101561015b57600080fd5b5035600160a060020a03166104d3565b34801561017757600080fd5b506100e76004803603604081101561018e57600080fd5b50803590602001351515610564565b3480156101a957600080fd5b506101d0600480360360208110156101c057600080fd5b5035600160a060020a03166105dc565b6040805160ff9092168252519081900360200190f35b3480156101f257600080fd5b5061011c6105fa565b34801561020757600080fd5b50610210610670565b60408051918252519081900360200190f35b34801561022e57600080fd5b506100e76106e1565b34801561024357600080fd5b5061011c61078a565b34801561025857600080fd5b506100e76004803603606081101561026f57600080fd5b5080359060208101359060400135600160a060020a0316610799565b34801561029757600080fd5b5061011c61086a565b3480156102ac57600080fd5b506100e760048036036101008110156102c457600080fd5b6040805160e0818101909252833593928301929161010083019190602084019060079083908390808284376000920191909152509194506108af9350505050565b34801561031157600080fd5b50610210610dc7565b34801561032657600080fd5b5061011c610e0c565b34801561033b57600080fd5b506103626004803603602081101561035257600080fd5b5035600160a060020a0316610e1b565b604080519115158252519081900360200190f35b34801561038257600080fd5b506100e76004803603602081101561039957600080fd5b5035600160a060020a0316610e7d565b3480156103b557600080fd5b506100e7600480360360208110156103cc57600080fd5b5035600160a060020a0316610f25565b3480156103e857600080fd5b5061011c610f54565b3480156103fd57600080fd5b506100e7610fc9565b34801561041257600080fd5b506100e76004803603604081101561042957600080fd5b50600160a060020a038135169060200135610ff4565b600061044961086a565b600160a060020a0316630eb700c0836040518263ffffffff1660e060020a0281526004018082600160a060020a0316600160a060020a0316815260200191505060206040518083038186803b1580156104a157600080fd5b505afa1580156104b5573d6000803e3d6000fd5b505050506040513d60208110156104cb57600080fd5b505192915050565b600054600160a060020a03163314610535576040805160e560020a62461bcd02815260206004820152601a60248201527f596f7520617265206e6f7420612073757065724d616e61676572000000000000604482015290519081900360640190fd5b6000805473ffffffffffffffffffffffffffffffffffffffff1916600160a060020a0392909216919091179055565b61056c610f54565b600160a060020a0316632fcea6c483836040518363ffffffff1660e060020a028152600401808381526020018215151515815260200192505050600060405180830381600087803b1580156105c057600080fd5b505af11580156105d4573d6000803e3d6000fd5b505050505050565b600160a060020a031660009081526003602052604090205460ff1690565b600061060461086a565b600160a060020a0316633abfcbde6040518163ffffffff1660e060020a02815260040160206040518083038186803b15801561063f57600080fd5b505afa158015610653573d6000803e3d6000fd5b505050506040513d602081101561066957600080fd5b5051905090565b600061067a6113a9565b60208160008073c327ff1025c5b3d2deb5e3f0f161b3f7e557579a600019fa15156106a457600080fd5b425a915160408051602081810194909452808201949094526060808501929092528051808503909201825260809093019092528151910120919050565b600154600160a060020a03163314806107045750600054600160a060020a031633145b151561075a576040805160e560020a62461bcd02815260206004820152601560248201527f596f7520617265206e6f742061206d616e616765720000000000000000000000604482015290519081900360640190fd5b6040513390303180156108fc02916000818181858888f19350505050158015610787573d6000803e3d6000fd5b50565b600154600160a060020a031681565b8183106107e2576107aa8184610ff4565b60006107b533610e1b565b156107d1576107cc6107c63361043f565b82610ff4565b6107dc565b6107dc6107c66105fa565b50610865565b6107ec8184610ff4565b60006107fe838563ffffffff61106e16565b9050600061081382600a63ffffffff6110b916565b9050600061082883605a63ffffffff6110b916565b9050610835816001610564565b61083e33610e1b565b1561085a5761085561084f3361043f565b83610ff4565b6105d4565b6105d461084f6105fa565b505050565b6000610874610f54565b600160a060020a03166364ff62696040518163ffffffff1660e060020a02815260040160206040518083038186803b15801561063f57600080fd5b6402540be40082101561090c576040805160e560020a62461bcd02815260206004820152601d60248201527f596f75722076616c75652069732062656c6f7720746865206c696d6974000000604482015290519081900360640190fd5b6402540be40061091b836110d0565b6000808080606461092a610670565b60ff1681151561093657fe5b0660ff1690506000805b600660ff821611610a595760008860ff83166007811061095c57fe5b602002015160ff16101580156109895750600a8860ff83166007811061097e57fe5b602002015160ff1611155b15156109df576040805160e560020a62461bcd02815260206004820152600860248201527f4e6f206572726f72000000000000000000000000000000000000000000000000604482015290519081900360640190fd5b610a06878960ff8416600781106109f257fe5b602002015160ff169063ffffffff61116316565b33600090815260036020526040902060010160ff831660088110610a2657fe5b0155610a4f8860ff831660078110610a3a57fe5b602002015160ff88169063ffffffff6111ff16565b9550600101610940565b50610a6d60ff86168763ffffffff61116316565b8814610ac3576040805160e560020a62461bcd02815260206004820152601160248201527f20596f7572206265742069732074727565000000000000000000000000000000604482015290519081900360640190fd5b6003821015610ad95760009350601e9250610bae565b600282118015610ae95750600682105b15610afb576001935060149250610bae565b600582118015610b0b5750600b82105b15610b1d5760029350600a9250610bae565b600a82118015610b2d5750601282105b15610b3f576003935060089250610bae565b601182118015610b4f5750601a82105b15610b61576004935060059250610bae565b601982118015610b715750603382105b15610b83576005935060039250610bae565b603282118015610b935750605182105b15610ba5576006935060029250610bae565b60079350600092505b336000908152600360205260408120805460ff191660ff8716179055805b60088160ff161015610c075733600090815260036020526040902060010160ff821660088110610bf857fe5b01549190910190600101610bcc565b5033600090815260036020526040902060010160ff861660088110610c2857fe5b015415801590610c3b575060068560ff16105b15610c8957336000908152600360205260409020610c779060ff8087169160010190881660088110610c6957fe5b01549063ffffffff61116316565b9150610c84828233610799565b610d04565b33600090815260036020526040902060010160ff861660088110610ca957fe5b015415801590610cbc57508460ff166006145b15610cf557336000908152600360208190526040909120610c7791600291610ce991906001016006610c69565b9063ffffffff61126016565b60009150610d04828233610799565b6040805160ff8716815260208101849052815133927f09361a44b08260b740b9180eef96546018a95507c5646a595396c3da3e6bbdcf928290030190a2336000908152600360205260408120600901805461ffff191690555b60088160ff161015610dbb5733600090815260036020526040902060010160ff821660088110610d8957fe5b015415610db35733600090815260036020526040812060010160ff831660088110610db057fe5b01555b600101610d5d565b50505050505050505050565b6000610dd1610f54565b600160a060020a031663778a6f536040518163ffffffff1660e060020a02815260040160206040518083038186803b15801561063f57600080fd5b600054600160a060020a031681565b6000610e2561086a565b600160a060020a03166396e156c2836040518263ffffffff1660e060020a0281526004018082600160a060020a0316600160a060020a0316815260200191505060206040518083038186803b1580156104a157600080fd5b600154600160a060020a0316331480610ea05750600054600160a060020a031633145b1515610ef6576040805160e560020a62461bcd02815260206004820152601560248201527f596f7520617265206e6f742061206d616e616765720000000000000000000000604482015290519081900360640190fd5b6001805473ffffffffffffffffffffffffffffffffffffffff1916600160a060020a0392909216919091179055565b6002805473ffffffffffffffffffffffffffffffffffffffff1916600160a060020a0392909216919091179055565b600254600090600160a060020a03161515610fb9576040805160e560020a62461bcd02815260206004820152601760248201527f706f6f6c2061646472657373206973206e6f7420736574000000000000000000604482015290519081900360640190fd5b50600254600160a060020a031690565b33600090815260036020526040902060098101805460ff199081166001179091558154166008179055565b610ffc610f54565b604080517ffde1c413000000000000000000000000000000000000000000000000000000008152306004820152600160a060020a038581166024830152604482018590529151929091169163fde1c4139160648082019260009290919082900301818387803b1580156105c057600080fd5b60006110b083836040805190810160405280601e81526020017f536166654d6174683a207375627472616374696f6e206f766572666c6f7700008152506112a2565b90505b92915050565b60006110b06064610ce9858563ffffffff61116316565b6110d8610f54565b604080517ffde1c413000000000000000000000000000000000000000000000000000000008152336004820152306024820152604481018490529051600160a060020a03929092169163fde1c4139160648082019260009290919082900301818387803b15801561114857600080fd5b505af115801561115c573d6000803e3d6000fd5b5050505050565b6000821515611174575060006110b3565b82820282848281151561118357fe5b04146110b0576040805160e560020a62461bcd02815260206004820152602160248201527f536166654d6174683a206d756c7469706c69636174696f6e206f766572666c6f60448201527f7700000000000000000000000000000000000000000000000000000000000000606482015290519081900360840190fd5b81810160ff80841690821610156110b3576040805160e560020a62461bcd02815260206004820152600960248201527f616464206572726f720000000000000000000000000000000000000000000000604482015290519081900360640190fd5b60006110b083836040805190810160405280601a81526020017f536166654d6174683a206469766973696f6e206279207a65726f00000000000081525061133c565b600081848411156113345760405160e560020a62461bcd0281526004018080602001828103825283818151815260200191508051906020019080838360005b838110156112f95781810151838201526020016112e1565b50505050905090810190601f1680156113265780820380516001836020036101000a031916815260200191505b509250505060405180910390fd5b505050900390565b6000818184116113915760405160e560020a62461bcd028152600401808060200182810382528381815181526020019150805190602001908083836000838110156112f95781810151838201526020016112e1565b506000838581151561139f57fe5b0495945050505050565b602060405190810160405280600190602082028038833950919291505056fea165627a7a72305820ca6bd5624dbd6902f47b43374248e611fc4ba15b260814aaf8ae9967c3655f880029",
  "source": "pragma solidity >=0.5.0 <0.6.0;\r\n\r\nimport \"./ConnectChips.sol\";\r\nimport \"./Manager.sol\";\r\n\r\nlibrary Address {\r\n    \r\n    function isContract(address account) internal view returns (bool) {\r\n\r\n        bytes32 codehash;\r\n        \r\n        bytes32 accountHash = 0xc5d2460186f7233c927e7db2dcc703c0e500b653ca82273b7bfad8045d85a470;\r\n        \r\n        assembly { codehash := extcodehash(account) }\r\n        return (codehash != 0x0 && codehash != accountHash);\r\n    }\r\n    \r\n    function toPayable(address account) internal pure returns (address payable) {\r\n        return address(uint160(account));\r\n    }\r\n}\r\n\r\ncontract FruitSlot is Manager, ConnectChips{\r\n    \r\n    using Address for address;\r\n    \r\n    mapping(address => info) player_betInfo;\r\n    \r\n    //事件\r\n    event randomNum(address indexed player,uint8 random);                         //隨機數結果\r\n    event bet(address indexed player,uint8 betNo,uint betMoney);                  //當前下注號碼及金額\r\n    event betResult(address indexed player,uint8 _type, uint bonus);              //開獎結果\r\n    \r\n    struct info{\r\n        uint8 random;               // 0 柑橘  1 比特幣  2 以太幣 ...  8 = 初始值尚未開始\r\n        uint[8] betTypeMoney;\r\n        bool startGame;\r\n        bool betGame;\r\n    }\r\n    \r\n    function startGame() public {\r\n        //require(address(this).balance >= 200 ether,\"The contract less than 200 Tan\");\r\n        player_betInfo[msg.sender].startGame = true;\r\n        player_betInfo[msg.sender].random = 8;\r\n    }\r\n    \r\n    function RunSpin(uint value, uint8[7] memory betNo) public{\r\n\r\n        require(value >= 100e8, \"Your value is below the limit\");\r\n        uint base = 100e8;\r\n\r\n        payToGame(value);\r\n        \r\n        uint8 betCount = 0;\r\n        uint8 _type;\r\n        uint8 Odd;\r\n        uint random = uint8(rand()) % 100;\r\n        uint _bonus;\r\n\r\n        for(uint8 i = 0 ; i <= 6 ; i++){\r\n            require(betNo[i] >= 0 && betNo[i] <= 10, \"No error\");\r\n            player_betInfo[msg.sender].betTypeMoney[i] = uint(betNo[i]).mul(base);\r\n            betCount = betCount.add(betNo[i]);\r\n        }\r\n        \r\n        require(value == uint(betCount).mul(base),\" Your bet is true\");\r\n\r\n        if(random < 3){\r\n            _type = 0;\r\n            Odd = 30;\r\n        }else if(random > 2 && random < 6){\r\n            _type = 1;\r\n            Odd = 20;\r\n        }else if(random > 5 && random < 11){\r\n            _type = 2;\r\n            Odd = 10;\r\n        }else if(random > 10 && random < 18){\r\n            _type = 3;\r\n            Odd = 8;\r\n        }else if(random > 17 && random < 26){\r\n            _type = 4;\r\n            Odd = 5;\r\n        }else if(random > 25 && random < 51){\r\n            _type = 5;\r\n            Odd = 3;\r\n        }else if(random > 50 && random < 81){\r\n            _type = 6;\r\n            Odd = 2;\r\n        }else{\r\n            _type = 7;\r\n            Odd = 0;\r\n        }\r\n\r\n        player_betInfo[msg.sender].random = _type;\r\n\r\n        uint sumBet;\r\n\r\n        for(uint8 i = 0 ; i < 8 ; i++){\r\n            sumBet += player_betInfo[msg.sender].betTypeMoney[i];\r\n        }\r\n        \r\n        if(player_betInfo[msg.sender].betTypeMoney[_type] != 0 && _type < 6){\r\n            _bonus = player_betInfo[msg.sender].betTypeMoney[_type].mul(Odd);\r\n            //check(inqPoolBalance(address(this)),_bonus, sumBet);\r\n            checkAndSend(_bonus, sumBet, msg.sender);\r\n            //msg.sender.transfer(_bonus);\r\n        }else if(player_betInfo[msg.sender].betTypeMoney[_type] != 0 && _type == 6){\r\n            _bonus = player_betInfo[msg.sender].betTypeMoney[6].mul(3).div(2);\r\n            //check(inqPoolBalance(address(this)), _bonus, sumBet);\r\n            checkAndSend(_bonus, sumBet, msg.sender);\r\n            //msg.sender.transfer(_bonus);\r\n        }else{\r\n            _bonus = 0;\r\n            //check(inqPoolBalance(address(this)), _bonus, sumBet);\r\n            checkAndSend(_bonus, sumBet, msg.sender);\r\n        }\r\n        \r\n        emit betResult(msg.sender, _type, _bonus);\r\n        \r\n        //清空資料\r\n        \r\n        player_betInfo[msg.sender].startGame = false;\r\n        player_betInfo[msg.sender].betGame = false;\r\n        for(uint8 i = 0 ; i < 8 ; i++){\r\n            if(player_betInfo[msg.sender].betTypeMoney[i] != 0){\r\n                player_betInfo[msg.sender].betTypeMoney[i] = 0;\r\n            }\r\n        }\r\n\r\n    }\r\n    \r\n    function inquireRandom(address _address) public view returns(uint8){        //查詢玩家最新一局開局結果\r\n        return player_betInfo[_address].random;\r\n    }\r\n \r\n}",
  "sourcePath": "C:/Users/user/Documents/smart-contract/casino/contracts/FruitSlot.sol",
  "compiler": {
    "name": "solc",
    "version": "0.5.1+commit.c8a2cb62.Emscripten.clang"
  },
  "schemaVersion": "3.0.2",
  "updatedAt": "2020-05-28T08:52:38.403Z",
  "devdoc": {
    "methods": {}
  },
  "userdoc": {
    "methods": {}
  }
}