{
  "contractName": "LCT",
  "abi": [
    {
      "constant": true,
      "inputs": [
        {
          "name": "interfaceId",
          "type": "bytes4"
        }
      ],
      "name": "supportsInterface",
      "outputs": [
        {
          "name": "",
          "type": "bool"
        }
      ],
      "payable": false,
      "stateMutability": "view",
      "type": "function",
      "signature": "0x01ffc9a7"
    },
    {
      "constant": true,
      "inputs": [
        {
          "name": "tokenId",
          "type": "uint256"
        }
      ],
      "name": "getApproved",
      "outputs": [
        {
          "name": "",
          "type": "address"
        }
      ],
      "payable": false,
      "stateMutability": "view",
      "type": "function",
      "signature": "0x081812fc"
    },
    {
      "constant": false,
      "inputs": [
        {
          "name": "to",
          "type": "address"
        },
        {
          "name": "tokenId",
          "type": "uint256"
        }
      ],
      "name": "approve",
      "outputs": [],
      "payable": false,
      "stateMutability": "nonpayable",
      "type": "function",
      "signature": "0x095ea7b3"
    },
    {
      "constant": false,
      "inputs": [
        {
          "name": "from",
          "type": "address"
        },
        {
          "name": "to",
          "type": "address"
        },
        {
          "name": "tokenId",
          "type": "uint256"
        }
      ],
      "name": "transferFrom",
      "outputs": [],
      "payable": false,
      "stateMutability": "nonpayable",
      "type": "function",
      "signature": "0x23b872dd"
    },
    {
      "constant": false,
      "inputs": [
        {
          "name": "value",
          "type": "uint256"
        },
        {
          "name": "toPlayer",
          "type": "bool"
        }
      ],
      "name": "distribute",
      "outputs": [],
      "payable": false,
      "stateMutability": "nonpayable",
      "type": "function",
      "signature": "0x2fcea6c4"
    },
    {
      "constant": true,
      "inputs": [
        {
          "name": "_address",
          "type": "address"
        },
        {
          "name": "typ",
          "type": "uint8"
        }
      ],
      "name": "inqOwnLCT",
      "outputs": [
        {
          "name": "",
          "type": "uint256[]"
        }
      ],
      "payable": false,
      "stateMutability": "view",
      "type": "function",
      "signature": "0x339a6acb"
    },
    {
      "constant": true,
      "inputs": [],
      "name": "rand",
      "outputs": [
        {
          "name": "",
          "type": "uint256"
        }
      ],
      "payable": false,
      "stateMutability": "view",
      "type": "function",
      "signature": "0x3b3dca76"
    },
    {
      "constant": false,
      "inputs": [
        {
          "name": "from",
          "type": "address"
        },
        {
          "name": "to",
          "type": "address"
        },
        {
          "name": "tokenId",
          "type": "uint256"
        }
      ],
      "name": "safeTransferFrom",
      "outputs": [],
      "payable": false,
      "stateMutability": "nonpayable",
      "type": "function",
      "signature": "0x42842e0e"
    },
    {
      "constant": true,
      "inputs": [],
      "name": "manager",
      "outputs": [
        {
          "name": "",
          "type": "address"
        }
      ],
      "payable": false,
      "stateMutability": "view",
      "type": "function",
      "signature": "0x481c6a75"
    },
    {
      "constant": true,
      "inputs": [
        {
          "name": "_addr",
          "type": "address"
        }
      ],
      "name": "addressToString",
      "outputs": [
        {
          "name": "",
          "type": "string"
        }
      ],
      "payable": false,
      "stateMutability": "pure",
      "type": "function",
      "signature": "0x5e57966d"
    },
    {
      "constant": false,
      "inputs": [
        {
          "name": "profit",
          "type": "uint256"
        },
        {
          "name": "bet",
          "type": "uint256"
        },
        {
          "name": "to",
          "type": "address"
        }
      ],
      "name": "checkAndSend",
      "outputs": [],
      "payable": false,
      "stateMutability": "nonpayable",
      "type": "function",
      "signature": "0x5ec3b9f2"
    },
    {
      "constant": true,
      "inputs": [
        {
          "name": "tokenId",
          "type": "uint256"
        }
      ],
      "name": "ownerOf",
      "outputs": [
        {
          "name": "",
          "type": "address"
        }
      ],
      "payable": false,
      "stateMutability": "view",
      "type": "function",
      "signature": "0x6352211e"
    },
    {
      "constant": true,
      "inputs": [],
      "name": "LCTadr",
      "outputs": [
        {
          "name": "",
          "type": "address"
        }
      ],
      "payable": false,
      "stateMutability": "view",
      "type": "function",
      "signature": "0x64ff6269"
    },
    {
      "constant": true,
      "inputs": [
        {
          "name": "owner",
          "type": "address"
        }
      ],
      "name": "balanceOf",
      "outputs": [
        {
          "name": "",
          "type": "uint256"
        }
      ],
      "payable": false,
      "stateMutability": "view",
      "type": "function",
      "signature": "0x70a08231"
    },
    {
      "constant": true,
      "inputs": [],
      "name": "totPool",
      "outputs": [
        {
          "name": "",
          "type": "uint256"
        }
      ],
      "payable": false,
      "stateMutability": "view",
      "type": "function",
      "signature": "0x778a6f53"
    },
    {
      "constant": true,
      "inputs": [],
      "name": "superManager",
      "outputs": [
        {
          "name": "",
          "type": "address"
        }
      ],
      "payable": false,
      "stateMutability": "view",
      "type": "function",
      "signature": "0x86ea0c9b"
    },
    {
      "constant": false,
      "inputs": [
        {
          "name": "to",
          "type": "address"
        },
        {
          "name": "approved",
          "type": "bool"
        }
      ],
      "name": "setApprovalForAll",
      "outputs": [],
      "payable": false,
      "stateMutability": "nonpayable",
      "type": "function",
      "signature": "0xa22cb465"
    },
    {
      "constant": false,
      "inputs": [
        {
          "name": "_new_manager",
          "type": "address"
        }
      ],
      "name": "changeManager",
      "outputs": [],
      "payable": false,
      "stateMutability": "nonpayable",
      "type": "function",
      "signature": "0xa3fbbaae"
    },
    {
      "constant": false,
      "inputs": [
        {
          "name": "newChip",
          "type": "address"
        }
      ],
      "name": "setChip",
      "outputs": [],
      "payable": false,
      "stateMutability": "nonpayable",
      "type": "function",
      "signature": "0xa43c2496"
    },
    {
      "constant": true,
      "inputs": [],
      "name": "chip",
      "outputs": [
        {
          "name": "",
          "type": "address"
        }
      ],
      "payable": false,
      "stateMutability": "view",
      "type": "function",
      "signature": "0xb61500e4"
    },
    {
      "constant": false,
      "inputs": [
        {
          "name": "from",
          "type": "address"
        },
        {
          "name": "to",
          "type": "address"
        },
        {
          "name": "tokenId",
          "type": "uint256"
        },
        {
          "name": "_data",
          "type": "bytes"
        }
      ],
      "name": "safeTransferFrom",
      "outputs": [],
      "payable": false,
      "stateMutability": "nonpayable",
      "type": "function",
      "signature": "0xb88d4fde"
    },
    {
      "constant": true,
      "inputs": [
        {
          "name": "_address",
          "type": "address"
        },
        {
          "name": "typ",
          "type": "uint8"
        }
      ],
      "name": "inqOwnLCTAmount",
      "outputs": [
        {
          "name": "",
          "type": "uint256"
        }
      ],
      "payable": false,
      "stateMutability": "view",
      "type": "function",
      "signature": "0xbcfc9a4e"
    },
    {
      "constant": false,
      "inputs": [
        {
          "name": "to",
          "type": "address"
        },
        {
          "name": "value",
          "type": "uint256"
        }
      ],
      "name": "sendToPlayer",
      "outputs": [],
      "payable": false,
      "stateMutability": "nonpayable",
      "type": "function",
      "signature": "0xdfdeccfc"
    },
    {
      "constant": true,
      "inputs": [
        {
          "name": "u",
          "type": "uint256"
        }
      ],
      "name": "uintToString",
      "outputs": [
        {
          "name": "str",
          "type": "string"
        }
      ],
      "payable": false,
      "stateMutability": "pure",
      "type": "function",
      "signature": "0xe9395679"
    },
    {
      "constant": true,
      "inputs": [
        {
          "name": "owner",
          "type": "address"
        },
        {
          "name": "operator",
          "type": "address"
        }
      ],
      "name": "isApprovedForAll",
      "outputs": [
        {
          "name": "",
          "type": "bool"
        }
      ],
      "payable": false,
      "stateMutability": "view",
      "type": "function",
      "signature": "0xe985e9c5"
    },
    {
      "constant": true,
      "inputs": [
        {
          "name": "_a",
          "type": "string"
        },
        {
          "name": "_b",
          "type": "string"
        }
      ],
      "name": "strConcat",
      "outputs": [
        {
          "name": "",
          "type": "string"
        }
      ],
      "payable": false,
      "stateMutability": "pure",
      "type": "function",
      "signature": "0xff74927b"
    },
    {
      "inputs": [],
      "payable": false,
      "stateMutability": "nonpayable",
      "type": "constructor"
    },
    {
      "payable": true,
      "stateMutability": "payable",
      "type": "fallback"
    },
    {
      "anonymous": false,
      "inputs": [
        {
          "indexed": true,
          "name": "from",
          "type": "address"
        },
        {
          "indexed": true,
          "name": "to",
          "type": "address"
        },
        {
          "indexed": true,
          "name": "tokenId",
          "type": "uint256"
        }
      ],
      "name": "Transfer",
      "type": "event",
      "signature": "0xddf252ad1be2c89b69c2b068fc378daa952ba7f163c4a11628f55a4df523b3ef"
    },
    {
      "anonymous": false,
      "inputs": [
        {
          "indexed": true,
          "name": "owner",
          "type": "address"
        },
        {
          "indexed": true,
          "name": "approved",
          "type": "address"
        },
        {
          "indexed": true,
          "name": "tokenId",
          "type": "uint256"
        }
      ],
      "name": "Approval",
      "type": "event",
      "signature": "0x8c5be1e5ebec7d5bd14f71427d1e84f3dd0314c0f7b2291e5b200ac8c7c3b925"
    },
    {
      "anonymous": false,
      "inputs": [
        {
          "indexed": true,
          "name": "owner",
          "type": "address"
        },
        {
          "indexed": true,
          "name": "operator",
          "type": "address"
        },
        {
          "indexed": false,
          "name": "approved",
          "type": "bool"
        }
      ],
      "name": "ApprovalForAll",
      "type": "event",
      "signature": "0x17307eab39ab6107e8899845ad3d59bd9653f200f220920489ca2b5937696c31"
    },
    {
      "constant": true,
      "inputs": [
        {
          "name": "TokenId",
          "type": "uint256"
        }
      ],
      "name": "inqLCTType",
      "outputs": [
        {
          "name": "",
          "type": "uint8"
        }
      ],
      "payable": false,
      "stateMutability": "view",
      "type": "function",
      "signature": "0xbfa980a3"
    },
    {
      "constant": true,
      "inputs": [],
      "name": "inqTeam",
      "outputs": [
        {
          "name": "",
          "type": "address"
        }
      ],
      "payable": false,
      "stateMutability": "view",
      "type": "function",
      "signature": "0x3abfcbde"
    },
    {
      "constant": true,
      "inputs": [
        {
          "name": "typ",
          "type": "uint8"
        }
      ],
      "name": "inqToTLCTAmount",
      "outputs": [
        {
          "name": "",
          "type": "uint256"
        }
      ],
      "payable": false,
      "stateMutability": "view",
      "type": "function",
      "signature": "0x246373c6"
    },
    {
      "constant": true,
      "inputs": [
        {
          "name": "player",
          "type": "address"
        }
      ],
      "name": "inqRegistered",
      "outputs": [
        {
          "name": "",
          "type": "bool"
        }
      ],
      "payable": false,
      "stateMutability": "view",
      "type": "function",
      "signature": "0x96e156c2"
    },
    {
      "constant": true,
      "inputs": [
        {
          "name": "player",
          "type": "address"
        }
      ],
      "name": "inqReferrer",
      "outputs": [
        {
          "name": "",
          "type": "address"
        }
      ],
      "payable": false,
      "stateMutability": "view",
      "type": "function",
      "signature": "0x0eb700c0"
    },
    {
      "constant": false,
      "inputs": [
        {
          "name": "referrer",
          "type": "address"
        }
      ],
      "name": "register",
      "outputs": [],
      "payable": false,
      "stateMutability": "nonpayable",
      "type": "function",
      "signature": "0x4420e486"
    },
    {
      "constant": true,
      "inputs": [],
      "name": "inqEquityBaseReleased",
      "outputs": [
        {
          "name": "",
          "type": "uint256"
        }
      ],
      "payable": false,
      "stateMutability": "view",
      "type": "function",
      "signature": "0xad91a706"
    },
    {
      "constant": true,
      "inputs": [],
      "name": "inqEquityBaseBurned",
      "outputs": [
        {
          "name": "",
          "type": "uint256"
        }
      ],
      "payable": false,
      "stateMutability": "view",
      "type": "function",
      "signature": "0x542eb356"
    },
    {
      "constant": true,
      "inputs": [
        {
          "name": "player",
          "type": "address"
        }
      ],
      "name": "inqEquity",
      "outputs": [
        {
          "name": "",
          "type": "uint256"
        }
      ],
      "payable": false,
      "stateMutability": "view",
      "type": "function",
      "signature": "0x8376a7a7"
    },
    {
      "constant": true,
      "inputs": [
        {
          "name": "typ",
          "type": "uint8"
        }
      ],
      "name": "buyPrice",
      "outputs": [
        {
          "name": "",
          "type": "uint256"
        }
      ],
      "payable": false,
      "stateMutability": "view",
      "type": "function",
      "signature": "0x4d07b23d"
    },
    {
      "constant": true,
      "inputs": [
        {
          "name": "typ",
          "type": "uint8"
        }
      ],
      "name": "sellPrice",
      "outputs": [
        {
          "name": "",
          "type": "uint256"
        }
      ],
      "payable": false,
      "stateMutability": "view",
      "type": "function",
      "signature": "0x79a4b4bd"
    },
    {
      "constant": false,
      "inputs": [
        {
          "name": "typ",
          "type": "uint8"
        },
        {
          "name": "value",
          "type": "uint256"
        }
      ],
      "name": "buyLCT",
      "outputs": [],
      "payable": false,
      "stateMutability": "nonpayable",
      "type": "function",
      "signature": "0xd9989910"
    },
    {
      "constant": false,
      "inputs": [
        {
          "name": "tokenId",
          "type": "uint256"
        }
      ],
      "name": "sellLCT",
      "outputs": [],
      "payable": false,
      "stateMutability": "nonpayable",
      "type": "function",
      "signature": "0x768ea56f"
    }
  ],
  "bytecode": "0x60008054600160a060020a031990811673ab610a9a42fa6082cf5dae2af14a56e5b0cf4c1417825560e0604052608082905260a082905260c082905260058290556006829055600791909155600d80549091167389b1c05f3044fd5de877a0f7b273c4636fd75e1b1790553480156200007757600080fd5b5060018054600160a060020a03191633179055620000be7f01ffc9a7000000000000000000000000000000000000000000000000000000006401000000006200011d810204565b620000f27f80ac58cd000000000000000000000000000000000000000000000000000000006401000000006200011d810204565b600d54600160a060020a03166000908152601060205260409020805460ff19166001179055620001ec565b7fffffffff000000000000000000000000000000000000000000000000000000008082161415620001af57604080517f08c379a000000000000000000000000000000000000000000000000000000000815260206004820152601c60248201527f4552433136353a20696e76616c696420696e7465726661636520696400000000604482015290519081900360640190fd5b7fffffffff00000000000000000000000000000000000000000000000000000000166000908152600260205260409020805460ff19166001179055565b61388780620001fc6000396000f3fe6080604052600436106101c35760e060020a600035046301ffc9a781146101c5578063081812fc14610222578063095ea7b3146102685780630eb700c0146102a157806323b872dd146102d4578063246373c6146103175780632fcea6c414610356578063339a6acb146103885780633abfcbde146104145780633b3dca761461042957806342842e0e1461043e5780634420e48614610481578063481c6a75146104b45780634d07b23d146104c9578063542eb356146104f65780635e57966d1461050b5780635ec3b9f2146105b35780636352211e146105f257806364ff62691461061c57806370a0823114610631578063768ea56f14610664578063778a6f531461068e57806379a4b4bd146106a35780638376a7a7146106d057806386ea0c9b1461070357806396e156c214610718578063a22cb4651461074b578063a3fbbaae14610786578063a43c2496146107b9578063ad91a706146107ec578063b61500e414610801578063b88d4fde14610816578063bcfc9a4e146108e9578063bfa980a314610925578063d998991014610965578063dfdeccfc14610998578063e9395679146109d1578063e985e9c5146109fb578063ff74927b14610a36575b005b3480156101d157600080fd5b5061020e600480360360208110156101e857600080fd5b50357bffffffffffffffffffffffffffffffffffffffffffffffffffffffff1916610b70565b604080519115158252519081900360200190f35b34801561022e57600080fd5b5061024c6004803603602081101561024557600080fd5b5035610ba8565b60408051600160a060020a039092168252519081900360200190f35b34801561027457600080fd5b506101c36004803603604081101561028b57600080fd5b50600160a060020a038135169060200135610c4b565b3480156102ad57600080fd5b5061024c600480360360208110156102c457600080fd5b5035600160a060020a0316610ded565b3480156102e057600080fd5b506101c3600480360360608110156102f757600080fd5b50600160a060020a03813581169160208101359091169060400135610e7f565b34801561032357600080fd5b506103446004803603602081101561033a57600080fd5b503560ff16610f1c565b60408051918252519081900360200190f35b34801561036257600080fd5b506101c36004803603604081101561037957600080fd5b50803590602001351515610fcf565b34801561039457600080fd5b506103c4600480360360408110156103ab57600080fd5b508035600160a060020a0316906020013560ff16611047565b60408051602080825283518183015283519192839290830191858101910280838360005b838110156104005781810151838201526020016103e8565b505050509050019250505060405180910390f35b34801561042057600080fd5b5061024c61112d565b34801561043557600080fd5b506103446111a3565b34801561044a57600080fd5b506101c36004803603606081101561046157600080fd5b50600160a060020a03813581169160208101359091169060400135611214565b34801561048d57600080fd5b506101c3600480360360208110156104a457600080fd5b5035600160a060020a0316611230565b3480156104c057600080fd5b5061024c611376565b3480156104d557600080fd5b50610344600480360360208110156104ec57600080fd5b503560ff16611385565b34801561050257600080fd5b5061034461149b565b34801561051757600080fd5b5061053e6004803603602081101561052e57600080fd5b5035600160a060020a03166114a1565b6040805160208082528351818301528351919283929083019185019080838360005b83811015610578578181015183820152602001610560565b50505050905090810190601f1680156105a55780820380516001836020036101000a031916815260200191505b509250505060405180910390f35b3480156105bf57600080fd5b506101c3600480360360608110156105d657600080fd5b5080359060208101359060400135600160a060020a03166116a4565b3480156105fe57600080fd5b5061024c6004803603602081101561061557600080fd5b5035611770565b34801561062857600080fd5b5061024c611805565b34801561063d57600080fd5b506103446004803603602081101561065457600080fd5b5035600160a060020a031661187b565b34801561067057600080fd5b506101c36004803603602081101561068757600080fd5b5035611924565b34801561069a57600080fd5b50610344611ac6565b3480156106af57600080fd5b50610344600480360360208110156106c657600080fd5b503560ff16611b0b565b3480156106dc57600080fd5b50610344600480360360208110156106f357600080fd5b5035600160a060020a0316611bab565b34801561070f57600080fd5b5061024c611bc6565b34801561072457600080fd5b5061020e6004803603602081101561073b57600080fd5b5035600160a060020a0316611bd5565b34801561075757600080fd5b506101c36004803603604081101561076e57600080fd5b50600160a060020a0381351690602001351515611bf3565b34801561079257600080fd5b506101c3600480360360208110156107a957600080fd5b5035600160a060020a0316611cf5565b3480156107c557600080fd5b506101c3600480360360208110156107dc57600080fd5b5035600160a060020a0316611d79565b3480156107f857600080fd5b50610344611d9b565b34801561080d57600080fd5b5061024c611da1565b34801561082257600080fd5b506101c36004803603608081101561083957600080fd5b600160a060020a0382358116926020810135909116916040820135919081019060808101606082013564010000000081111561087457600080fd5b82018360208201111561088657600080fd5b803590602001918460018302840111640100000000831117156108a857600080fd5b91908080601f016020809104026020016040519081016040528093929190818152602001838380828437600092019190915250929550611e16945050505050565b3480156108f557600080fd5b506103446004803603604081101561090c57600080fd5b508035600160a060020a0316906020013560ff16611eb5565b34801561093157600080fd5b5061094f6004803603602081101561094857600080fd5b5035611fb5565b6040805160ff9092168252519081900360200190f35b34801561097157600080fd5b506101c36004803603604081101561098857600080fd5b5060ff8135169060200135611fca565b3480156109a457600080fd5b506101c3600480360360408110156109bb57600080fd5b50600160a060020a0381351690602001356122df565b3480156109dd57600080fd5b5061053e600480360360208110156109f457600080fd5b5035612359565b348015610a0757600080fd5b5061020e60048036036040811015610a1e57600080fd5b50600160a060020a0381358116916020013516612466565b348015610a4257600080fd5b5061053e60048036036040811015610a5957600080fd5b810190602081018135640100000000811115610a7457600080fd5b820183602082011115610a8657600080fd5b80359060200191846001830284011164010000000083111715610aa857600080fd5b91908080601f0160208091040260200160405190810160405280939291908181526020018383808284376000920191909152509295949360208101935035915050640100000000811115610afb57600080fd5b820183602082011115610b0d57600080fd5b80359060200191846001830284011164010000000083111715610b2f57600080fd5b91908080601f016020809104026020016040519081016040528093929190818152602001838380828437600092019190915250929550612494945050505050565b7bffffffffffffffffffffffffffffffffffffffffffffffffffffffff19811660009081526002602052604090205460ff165b919050565b6000610bb3826125a5565b1515610c2f576040805160e560020a62461bcd02815260206004820152602c60248201527f4552433732313a20617070726f76656420717565727920666f72206e6f6e657860448201527f697374656e7420746f6b656e0000000000000000000000000000000000000000606482015290519081900360840190fd5b50600090815260096020526040902054600160a060020a031690565b6000610c5682611770565b9050600160a060020a038381169082161415610ce2576040805160e560020a62461bcd02815260206004820152602160248201527f4552433732313a20617070726f76616c20746f2063757272656e74206f776e6560448201527f7200000000000000000000000000000000000000000000000000000000000000606482015290519081900360840190fd5b80600160a060020a0316610cf46125c2565b600160a060020a03161480610d155750610d1581610d106125c2565b612466565b1515610d91576040805160e560020a62461bcd02815260206004820152603860248201527f4552433732313a20617070726f76652063616c6c6572206973206e6f74206f7760448201527f6e6572206e6f7220617070726f76656420666f7220616c6c0000000000000000606482015290519081900360840190fd5b6000828152600960205260408082208054600160a060020a031916600160a060020a0387811691821790925591518593918516917f8c5be1e5ebec7d5bd14f71427d1e84f3dd0314c0f7b2291e5b200ac8c7c3b92591a4505050565b600160a060020a038181166000908152601160205260408120549091161515610e60576040805160e560020a62461bcd02815260206004820152601060248201527f7265666572726572206973206e756c6c00000000000000000000000000000000604482015290519081900360640190fd5b50600160a060020a039081166000908152601160205260409020541690565b610e90610e8a6125c2565b826125c6565b1515610f0c576040805160e560020a62461bcd02815260206004820152603160248201527f4552433732313a207472616e736665722063616c6c6572206973206e6f74206f60448201527f776e6572206e6f7220617070726f766564000000000000000000000000000000606482015290519081900360840190fd5b610f178383836126ab565b505050565b60008160ff1660011415610f4357610f3c6005600163ffffffff6129be16565b9050610ba3565b8160ff1660021415610f6157610f3c6005600263ffffffff6129be16565b8160ff1660031415610f7f57610f3c6005600363ffffffff6129be16565b6040805160e560020a62461bcd02815260206004820152600e60248201527f4361742074797065206572726f72000000000000000000000000000000000000604482015290519081900360640190fd5b610fd7611da1565b600160a060020a0316632fcea6c483836040518363ffffffff1660e060020a028152600401808381526020018215151515815260200192505050600060405180830381600087803b15801561102b57600080fd5b505af115801561103f573d6000803e3d6000fd5b505050505050565b60608160ff166001141561107d57600160a060020a038316600090815260036020526040902061107690612a02565b9050611127565b8160ff16600214156110aa57600160a060020a038316600090815260036020526040902061107690612a5e565b8160ff16600314156110d757600160a060020a038316600090815260036020526040902061107690612ab8565b6040805160e560020a62461bcd02815260206004820152600e60248201527f6361742074797065206572726f72000000000000000000000000000000000000604482015290519081900360640190fd5b92915050565b600d54600090600160a060020a03161515611192576040805160e560020a62461bcd02815260206004820152601460248201527f5465616d2061646472657373206973206e756c6c000000000000000000000000604482015290519081900360640190fd5b50600d54600160a060020a03165b90565b60006111ad6137ff565b60208160008073c327ff1025c5b3d2deb5e3f0f161b3f7e557579a600019fa15156111d757600080fd5b425a915160408051602081810194909452808201949094526060808501929092528051808503909201825260809093019092528151910120919050565b610f178383836020604051908101604052806000815250611e16565b3360009081526010602052604090205460ff1615611298576040805160e560020a62461bcd02815260206004820152601b60248201527f596f75206861766520616c726561647920726567697374657265640000000000604482015290519081900360640190fd5b600160a060020a03811660009081526010602052604090205460ff161515600114611333576040805160e560020a62461bcd02815260206004820152602560248201527f596f75722072656665727265722068617665206e6f742072656769737465726560448201527f6420796574000000000000000000000000000000000000000000000000000000606482015290519081900360840190fd5b3360009081526011602090815260408083208054600160a060020a031916600160a060020a0395909516949094179093556010905220805460ff19166001179055565b600154600160a060020a031681565b60008061271060125481151561139757fe5b0490508260ff16600114156113e2576113da6113cb60646113bf84600563ffffffff612b1216565b9063ffffffff612bb516565b6103e89063ffffffff612c1216565b915050610ba3565b8260ff1660021415611416576113da61140760646113bf84600563ffffffff612b1216565b61251c9063ffffffff612c1216565b8260ff166003141561144b576113da61143b60646113bf84600563ffffffff612b1216565b62015f909063ffffffff612c1216565b6040805160e560020a62461bcd02815260206004820152600d60248201527f54797065206973206572726f7200000000000000000000000000000000000000604482015290519081900360640190fd5b60135490565b604080518082018252601081527f303132333435363738396162636465660000000000000000000000000000000060208201528151602a8082526060828101909452600160a060020a038516929184916020820181803883390190505090507f300000000000000000000000000000000000000000000000000000000000000081600081518110151561153057fe5b906020010190600160f860020a031916908160001a9053507f780000000000000000000000000000000000000000000000000000000000000081600181518110151561157857fe5b906020010190600160f860020a031916908160001a90535060005b601481101561169b5782600485600c8401602081106115ae57fe5b1a60f860020a02600160f860020a031916908060020a820491505060f860020a900460ff168151811015156115df57fe5b90602001015160f860020a900460f860020a02828260020260020181518110151561160657fe5b906020010190600160f860020a031916908160001a9053508284600c83016020811061162e57fe5b1a60f860020a02600f60f860020a021660f860020a900460ff1681518110151561165457fe5b90602001015160f860020a900460f860020a02828260020260030181518110151561167b57fe5b906020010190600160f860020a031916908160001a905350600101611593565b50949350505050565b8183106116ed576116b581846122df565b60006116c033611bd5565b156116dc576116d76116d133610ded565b826122df565b6116e7565b6116e76116d161112d565b50610f17565b6116f781846122df565b6000611709838563ffffffff612c3516565b9050600061171e82600a63ffffffff612c1216565b9050600061173383605a63ffffffff612c1216565b9050611740816001610fcf565b61174933611bd5565b156117655761176061175a33610ded565b836122df565b61103f565b61103f61175a61112d565b600081815260086020526040812054600160a060020a0316801515611127576040805160e560020a62461bcd02815260206004820152602960248201527f4552433732313a206f776e657220717565727920666f72206e6f6e657869737460448201527f656e7420746f6b656e0000000000000000000000000000000000000000000000606482015290519081900360840190fd5b600061180f611da1565b600160a060020a03166364ff62696040518163ffffffff1660e060020a02815260040160206040518083038186803b15801561184a57600080fd5b505afa15801561185e573d6000803e3d6000fd5b505050506040513d602081101561187457600080fd5b5051905090565b6000600160a060020a0382161515611903576040805160e560020a62461bcd02815260206004820152602a60248201527f4552433732313a2062616c616e636520717565727920666f7220746865207a6560448201527f726f206164647265737300000000000000000000000000000000000000000000606482015290519081900360840190fd5b600160a060020a0382166000908152600a6020526040902061112790612c77565b3361192e82611770565b600160a060020a03161461198c576040805160e560020a62461bcd02815260206004820152601360248201527f49742773206e6f7420796f757220746f6b656e00000000000000000000000000604482015290519081900360640190fd5b6119963382612c7b565b60008181526004602052604081205460ff16906119c66305f5e1006119ba84611b0b565b9063ffffffff612b1216565b90508160ff1660011415611a21576013546119e890600a63ffffffff612bb516565b601355336000908152600e6020526040902054611a0c90600a63ffffffff612c3516565b336000908152600e6020526040902055611abc565b8160ff1660021415611a6557601354611a4190606463ffffffff612bb516565b601355336000908152600e6020526040902054611a0c90606463ffffffff612c3516565b8160ff1660031415611abc57601354611a86906103e863ffffffff612bb516565b601355336000908152600e6020526040902054611aab906103e863ffffffff612c3516565b336000908152600e60205260409020555b610f1733826122df565b6000611ad0611da1565b600160a060020a031663778a6f536040518163ffffffff1660e060020a02815260040160206040518083038186803b15801561184a57600080fd5b60008060125460001415611b1e57611b42565b611b3f60466113bf601e6119ba601254601354612e9190919063ffffffff16565b90505b8260ff1660011415611b6d576113da81611b616050611b616001611385565b9063ffffffff612c1216565b8260ff1660021415611b8c576113da81611b616050611b616002611385565b8260ff166003141561144b576113da81611b616050611b616003611385565b600160a060020a03166000908152600e602052604090205490565b600054600160a060020a031681565b600160a060020a031660009081526010602052604090205460ff1690565b611bfb6125c2565b600160a060020a0383811691161415611c5e576040805160e560020a62461bcd02815260206004820152601960248201527f4552433732313a20617070726f766520746f2063616c6c657200000000000000604482015290519081900360640190fd5b80600b6000611c6b6125c2565b600160a060020a03908116825260208083019390935260409182016000908120918716808252919093529120805460ff191692151592909217909155611caf6125c2565b6040805184151581529051600160a060020a0392909216917f17307eab39ab6107e8899845ad3d59bd9653f200f220920489ca2b5937696c319181900360200190a35050565b600054600160a060020a03163314611d57576040805160e560020a62461bcd02815260206004820152601360248201527f4973206e6f742073757065724d616e6167657200000000000000000000000000604482015290519081900360640190fd5b60018054600160a060020a031916600160a060020a0392909216919091179055565b600c8054600160a060020a031916600160a060020a0392909216919091179055565b60125490565b600c54600090600160a060020a03161515611e06576040805160e560020a62461bcd02815260206004820152601760248201527f706f6f6c2061646472657373206973206e6f7420736574000000000000000000604482015290519081900360640190fd5b50600c54600160a060020a031690565b611e27611e216125c2565b836125c6565b1515611ea3576040805160e560020a62461bcd02815260206004820152603160248201527f4552433732313a207472616e736665722063616c6c6572206973206e6f74206f60448201527f776e6572206e6f7220617070726f766564000000000000000000000000000000606482015290519081900360840190fd5b611eaf84848484612ed3565b50505050565b60008160ff1660011415611ee457600160a060020a038316600090815260036020526040902061107690612f66565b8160ff1660021415611f1157600160a060020a038316600090815260036020526040902061107690612f6d565b8160ff1660031415611f3e57600160a060020a038316600090815260036020526040902061107690612c77565b8160ff16600414156110d757600160a060020a038316600090815260036020526040902061107690611f6f90612c77565b600160a060020a03851660009081526003602052604090206113bf90611f9490612f6d565b600160a060020a03871660009081526003602052604090206113bf90612f66565b60009081526004602052604090205460ff1690565b6305f5e100611fd882612f74565b336000908152601060205260409020805460ff1916600117905560145461200690600163ffffffff612bb516565b601455600160ff841614156120c657612023816119ba6001611385565b8214612079576040805160e560020a62461bcd02815260206004820152601460248201527f56616c7565206973206e6f7420636f7272656374000000000000000000000000604482015290519081900360640190fd5b60125461208d90600a63ffffffff612bb516565b601255336000908152600e60205260409020546120b190600a63ffffffff612bb516565b336000908152600e6020526040902055612218565b8260ff166002141561216e576120e0816119ba6002611385565b8214612136576040805160e560020a62461bcd02815260206004820152601460248201527f56616c7565206973206e6f7420636f7272656374000000000000000000000000604482015290519081900360640190fd5b60125461214a90606463ffffffff612bb516565b601255336000908152600e60205260409020546120b190606463ffffffff612bb516565b8260ff166003141561144b57612188816119ba6003611385565b82146121de576040805160e560020a62461bcd02815260206004820152601460248201527f56616c7565206973206e6f7420636f7272656374000000000000000000000000604482015290519081900360640190fd5b6012546121f3906103e863ffffffff612bb516565b601255336000908152600e60205260409020546120b1906103e863ffffffff612bb516565b601480546000908152600460205260409020805460ff191660ff861617905554612243903390613007565b61225e61225783605063ffffffff612c1216565b6000610fcf565b33600090815260116020526040902054600160a060020a03168015156122a957600d546122a490600160a060020a031661229f85601463ffffffff612c1216565b6122df565b611eaf565b6122be8161229f85600a63ffffffff612c1216565b600d54611eaf90600160a060020a031661229f85600a63ffffffff612c1216565b6122e7611da1565b604080517ffde1c413000000000000000000000000000000000000000000000000000000008152306004820152600160a060020a038581166024830152604482018590529151929091169163fde1c4139160648082019260009290919082900301818387803b15801561102b57600080fd5b60408051606480825260a08201909252606091839183908260208201818038833901905050905060005b83156123cd578151600a8086049560018401939190069160f860020a603084010291859181106123af57fe5b906020010190600160f860020a031916908160001a90535050612383565b6060816001016040519080825280601f01601f1916602001820160405280156123fd576020820181803883390190505b50905060005b82811161245b578381840381518110151561241a57fe5b90602001015160f860020a900460f860020a02828281518110151561243b57fe5b906020010190600160f860020a031916908160001a905350600101612403565b509695505050505050565b600160a060020a039182166000908152600b6020908152604080832093909416825291909152205460ff1690565b6060808390506060839050606081518351016040519080825280601f01601f1916602001820160405280156124d0576020820181803883390190505b509050806000805b85518110156125365785818151811015156124ef57fe5b90602001015160f860020a900460f860020a02838380600101945081518110151561251657fe5b906020010190600160f860020a031916908160001a9053506001016124d8565b5060005b845181101561259857848181518110151561255157fe5b90602001015160f860020a900460f860020a02838380600101945081518110151561257857fe5b906020010190600160f860020a031916908160001a90535060010161253a565b5091979650505050505050565b600090815260086020526040902054600160a060020a0316151590565b3390565b60006125d1826125a5565b151561264d576040805160e560020a62461bcd02815260206004820152602c60248201527f4552433732313a206f70657261746f7220717565727920666f72206e6f6e657860448201527f697374656e7420746f6b656e0000000000000000000000000000000000000000606482015290519081900360840190fd5b600061265883611770565b905080600160a060020a031684600160a060020a03161480612693575083600160a060020a031661268884610ba8565b600160a060020a0316145b806126a357506126a38185612466565b949350505050565b82600160a060020a03166126be82611770565b600160a060020a031614612742576040805160e560020a62461bcd02815260206004820152602960248201527f4552433732313a207472616e73666572206f6620746f6b656e2074686174206960448201527f73206e6f74206f776e0000000000000000000000000000000000000000000000606482015290519081900360840190fd5b600160a060020a03821615156127c7576040805160e560020a62461bcd028152602060048201526024808201527f4552433732313a207472616e7366657220746f20746865207a65726f2061646460448201527f7265737300000000000000000000000000000000000000000000000000000000606482015290519081900360840190fd5b6127d081613026565b600160a060020a0383166000908152600a602052604090206127f190613063565b600160a060020a0382166000908152600a602052604090206128129061307a565b60008181526008602090815260408083208054600160a060020a031916600160a060020a038716179055600490915290205460ff16600114156128a457600160a060020a0382166000908152600360205260409020612877908263ffffffff61308316565b600160a060020a038316600090815260036020526040902061289f908263ffffffff61309e16565b612978565b60008181526004602052604090205460ff166002141561290e57600160a060020a03821660009081526003602052604090206128e6908263ffffffff6130ab16565b600160a060020a038316600090815260036020526040902061289f908263ffffffff6130c616565b60008181526004602052604090205460ff16600314156110d757600160a060020a0382166000908152600360205260409020612950908263ffffffff6130d316565b600160a060020a038316600090815260036020526040902061289f908263ffffffff6130eb16565b8082600160a060020a031684600160a060020a03167fddf252ad1be2c89b69c2b068fc378daa952ba7f163c4a11628f55a4df523b3ef60405160405180910390a4505050565b60008160ff16600114156129d757506002820154611127565b8160ff16600214156129ee57506001820154611127565b8160ff1660031415610f7f57508154611127565b606081600201805480602002602001604051908101604052809291908181526020018280548015612a5257602002820191906000526020600020905b815481526020019060010190808311612a3e575b50505050509050919050565b606081600101805480602002602001604051908101604052809291908181526020018280548015612a525760200282019190600052602060002090815481526020019060010190808311612a3e5750505050509050919050565b606081600001805480602002602001604051908101604052809291908181526020018280548015612a525760200282019190600052602060002090815481526020019060010190808311612a3e5750505050509050919050565b6000821515612b2357506000611127565b828202828482811515612b3257fe5b0414612bae576040805160e560020a62461bcd02815260206004820152602160248201527f536166654d6174683a206d756c7469706c69636174696f6e206f766572666c6f60448201527f7700000000000000000000000000000000000000000000000000000000000000606482015290519081900360840190fd5b9392505050565b600082820183811015612bae576040805160e560020a62461bcd02815260206004820152601b60248201527f536166654d6174683a206164646974696f6e206f766572666c6f770000000000604482015290519081900360640190fd5b6000612bae6064612c29858563ffffffff612b1216565b9063ffffffff612e9116565b6000612bae83836040805190810160405280601e81526020017f536166654d6174683a207375627472616374696f6e206f766572666c6f7700008152506130f5565b5490565b81600160a060020a0316612c8e82611770565b600160a060020a031614612d12576040805160e560020a62461bcd02815260206004820152602560248201527f4552433732313a206275726e206f6620746f6b656e2074686174206973206e6f60448201527f74206f776e000000000000000000000000000000000000000000000000000000606482015290519081900360840190fd5b612d1b81613026565b600160a060020a0382166000908152600a60205260409020612d3c90613063565b60008181526008602090815260408083208054600160a060020a0319169055600490915290205460ff1660011415612dad57600160a060020a0382166000908152600360205260409020612d96908263ffffffff61309e16565b612da86005600163ffffffff61318f16565b612e55565b60008181526004602052604090205460ff1660021415612e0157600160a060020a0382166000908152600360205260409020612def908263ffffffff6130c616565b612da86005600263ffffffff61318f16565b60008181526004602052604090205460ff16600314156110d757600160a060020a0382166000908152600360205260409020612e43908263ffffffff6130eb16565b612da86005600363ffffffff61318f16565b6040518190600090600160a060020a038516907fddf252ad1be2c89b69c2b068fc378daa952ba7f163c4a11628f55a4df523b3ef908390a45050565b6000612bae83836040805190810160405280601a81526020017f536166654d6174683a206469766973696f6e206279207a65726f00000000000081525061320c565b612ede8484846126ab565b612eea84848484613279565b1515611eaf576040805160e560020a62461bcd02815260206004820152603260248201527f4552433732313a207472616e7366657220746f206e6f6e20455243373231526560448201527f63656976657220696d706c656d656e7465720000000000000000000000000000606482015290519081900360840190fd5b6002015490565b6001015490565b612f7c611da1565b604080517ffde1c413000000000000000000000000000000000000000000000000000000008152336004820152306024820152604481018490529051600160a060020a03929092169163fde1c4139160648082019260009290919082900301818387803b158015612fec57600080fd5b505af1158015613000573d6000803e3d6000fd5b5050505050565b61302282826020604051908101604052806000815250613403565b5050565b600081815260096020526040902054600160a060020a0316156130605760008181526009602052604090208054600160a060020a03191690555b50565b805461307690600163ffffffff612c3516565b9055565b80546001019055565b60029091018054600181018255600091825260209091200155565b6130228260020182613496565b60019182018054928301815560009081526020902090910155565b6130228260010182613496565b81546001810183556000928352602090922090910155565b6130228282613496565b600081848411156131875760405160e560020a62461bcd0281526004018080602001828103825283818151815260200191508051906020019080838360005b8381101561314c578181015183820152602001613134565b50505050905090810190601f1680156131795780820380516001836020036101000a031916815260200191505b509250505060405180910390fd5b505050900390565b8060ff16600114156131bb5760028201546131b190600163ffffffff612c3516565b6002830155613022565b8060ff16600214156131e6576001828101546131dc9163ffffffff612c3516565b6001830155613022565b8060ff1660031415610f7f57815461320590600163ffffffff612c3516565b8255613022565b6000818184116132615760405160e560020a62461bcd0281526004018080602001828103825283818151815260200191508051906020019080838360008381101561314c578181015183820152602001613134565b506000838581151561326f57fe5b0495945050505050565b600061328d84600160a060020a031661353d565b151561329b575060016126a3565b600084600160a060020a031663150b7a026132b46125c2565b8887876040518563ffffffff1660e060020a0281526004018085600160a060020a0316600160a060020a0316815260200184600160a060020a0316600160a060020a0316815260200183815260200180602001828103825283818151815260200191508051906020019080838360005b8381101561333c578181015183820152602001613324565b50505050905090810190601f1680156133695780820380516001836020036101000a031916815260200191505b5095505050505050602060405180830381600087803b15801561338b57600080fd5b505af115801561339f573d6000803e3d6000fd5b505050506040513d60208110156133b557600080fd5b50517bffffffffffffffffffffffffffffffffffffffffffffffffffffffff19167f150b7a020000000000000000000000000000000000000000000000000000000014915050949350505050565b61340d8383613574565b61341a6000848484613279565b1515610f17576040805160e560020a62461bcd02815260206004820152603260248201527f4552433732313a207472616e7366657220746f206e6f6e20455243373231526560448201527f63656976657220696d706c656d656e7465720000000000000000000000000000606482015290519081900360840190fd5b60005b82548110156134cf578183828154811015156134b157fe5b906000526020600020015414156134c7576134cf565b600101613499565b825481106134d957fe5b8254839060001981019081106134eb57fe5b9060005260206000200154838281548110151561350457fe5b60009182526020909120015582548390600019810190811061352257fe5b60009182526020822001558254611eaf84600019830161381e565b6000813f7fc5d2460186f7233c927e7db2dcc703c0e500b653ca82273b7bfad8045d85a47081158015906126a35750141592915050565b600160a060020a03821615156135d4576040805160e560020a62461bcd02815260206004820181905260248201527f4552433732313a206d696e7420746f20746865207a65726f2061646472657373604482015290519081900360640190fd5b6135dd816125a5565b15613632576040805160e560020a62461bcd02815260206004820152601c60248201527f4552433732313a20746f6b656e20616c7265616479206d696e74656400000000604482015290519081900360640190fd5b60008181526008602090815260408083208054600160a060020a031916600160a060020a0387169081179091558352600a90915290206136719061307a565b60008181526004602052604090205460ff16600114156136ca57600160a060020a03821660009081526003602052604090206136b3908263ffffffff61308316565b6136c56005600163ffffffff6137ae16565b613772565b60008181526004602052604090205460ff166002141561371e57600160a060020a038216600090815260036020526040902061370c908263ffffffff6130ab16565b6136c56005600263ffffffff6137ae16565b60008181526004602052604090205460ff16600314156110d757600160a060020a0382166000908152600360205260409020613760908263ffffffff6130d316565b6136c56005600363ffffffff6137ae16565b6040518190600160a060020a038416906000907fddf252ad1be2c89b69c2b068fc378daa952ba7f163c4a11628f55a4df523b3ef908290a45050565b8060ff16600114156137ca576002820180546001019055613022565b8060ff16600214156137e757600182810180549091019055613022565b8060ff1660031415610f7f5781546001018255613022565b6020604051908101604052806001906020820280388339509192915050565b815481835581811115610f1757600083815260209020610f179181019083016111a091905b808211156138575760008155600101613843565b509056fea165627a7a72305820179975f8cbc57cb5aa0f159befb0e1882123722dd4f90917c362770e8247dfc20029",
  "source": "pragma solidity >=0.5.0 <0.6.0;\r\n\r\nimport \"./ERC721.sol\";\r\nimport \"./ConnectChips.sol\";\r\nimport \"./debug.sol\";\r\n\r\ncontract Manager{\r\n\r\n    address public superManager = 0xAB610a9A42fa6082cf5daE2AF14a56E5b0cf4c14;\r\n    address public manager;\r\n\r\n    constructor() public{\r\n        manager = msg.sender;\r\n    }\r\n\r\n    modifier onlyManager{\r\n        require(msg.sender == manager || msg.sender == superManager, \"Is not manager\");\r\n        _;\r\n    }\r\n\r\n    function changeManager(address _new_manager) public {\r\n        require(msg.sender == superManager, \"Is not superManager\");\r\n        manager = _new_manager;\r\n    }\r\n}\r\n\r\ncontract LCT is Manager, ERC721, ConnectChips, debug{\r\n\r\n    address team = 0x89B1c05F3044Fd5dE877A0f7b273C4636fD75e1b;\r\n\r\n    mapping(address => uint) $equityBasePlayer; //()\r\n    mapping(address => uint) $received; //\r\n    mapping(address => bool) $registered;\r\n    mapping(address => address) $referrer;\r\n\r\n    uint $equityBaseReleased; //()\r\n    uint $equityBaseBurned; //()\r\n    uint $createIndex; //tokenindex\r\n\r\n    constructor() public{\r\n        $registered[team] = true;\r\n    }\r\n\r\n    function inqLCTType(uint TokenId) public view returns(uint8){\r\n        return $luckyCats[TokenId].typ;\r\n    }\r\n\r\n    function inqTeam() public view returns(address){\r\n        require(team != address(0), \"Team address is null\");\r\n        return team;\r\n    }\r\n\r\n    function inqToTLCTAmount(uint8 typ) public view returns(uint){\r\n        if(typ == 1){\r\n            return LCTAomunt.current(1);\r\n        }else if(typ == 2){\r\n            return LCTAomunt.current(2);\r\n        }else if(typ == 3){\r\n            return LCTAomunt.current(3);\r\n        }else{\r\n            revert(\"Cat type error\");\r\n        }\r\n    }\r\n\r\n    function inqRegistered(address player) public view returns(bool){\r\n        return $registered[player];\r\n    }\r\n\r\n    function inqReferrer(address player) public view returns(address){\r\n        require($referrer[player] != address(0), \"referrer is null\");\r\n        return $referrer[player];\r\n    }\r\n\r\n    function register(address referrer) external{\r\n        require($registered[msg.sender] == false, \"You have already registered\");\r\n        require($registered[referrer] == true, \"Your referrer have not registered yet\");\r\n        $referrer[msg.sender] = referrer;\r\n        $registered[msg.sender] = true;\r\n    }\r\n\r\n    function inqEquityBaseReleased() external view returns (uint){\r\n        return $equityBaseReleased;\r\n    }\r\n\r\n    function inqEquityBaseBurned() external view returns (uint){\r\n        return $equityBaseBurned;\r\n    }\r\n\r\n    function inqEquity(address player) public view returns (uint) {\r\n        return $equityBasePlayer[player];\r\n    }\r\n\r\n    function buyPrice(uint8 typ) public view returns(uint){\r\n        \r\n        uint spacing = $equityBaseReleased/10000;\r\n        if(typ == 1){\r\n            return uint(1000).percent((spacing.mul(5)).add(100));\r\n        }\r\n        else if(typ == 2){\r\n            return uint(9500).percent((spacing.mul(5)).add(100));\r\n        }\r\n        else if(typ == 3){\r\n            return uint(90000).percent((spacing.mul(5)).add(100));\r\n        }\r\n        else{\r\n            revert(\"Type is error\");\r\n        }\r\n    }\r\n\r\n    function sellPrice(uint8 typ) public view returns(uint){\r\n\r\n        uint coefficient;\r\n\r\n        if($equityBaseReleased == 0){\r\n            coefficient == 100;\r\n        }else{\r\n            coefficient = (($equityBaseBurned).div($equityBaseReleased).mul(30)).add(70);\r\n        }\r\n\r\n        if(typ == 1){\r\n            return buyPrice(1).percent(80).percent(coefficient);\r\n        }\r\n        else if(typ == 2){\r\n            return buyPrice(2).percent(80).percent(coefficient);\r\n        }\r\n        else if(typ == 3){\r\n            return buyPrice(3).percent(80).percent(coefficient);\r\n        }\r\n        else{\r\n            revert(\"Type is error\");\r\n        }\r\n    }\r\n\r\n    function buyLCT(uint8 typ, uint value) public{\r\n        //check(inqCHIPS(msg.sender));\r\n        //require(inqCHIPS(msg.sender) >= value, \"CHIPS is not enough\");\r\n\r\n        /* player => address(this) => pool */\r\n        uint base = 1e8;\r\n        payToGame(value);\r\n\r\n        require($registered[msg.sender] = true, \"You are not registered yet\");\r\n\r\n        $createIndex = $createIndex.add(1);\r\n\r\n        if(typ == 1){\r\n            require(value == buyPrice(1).mul(base), \"Value is not correct\");\r\n            $equityBaseReleased = $equityBaseReleased.add(10);\r\n            $equityBasePlayer[msg.sender] = $equityBasePlayer[msg.sender].add(10);\r\n        }\r\n        else if(typ == 2){\r\n            require(value == buyPrice(2).mul(base), \"Value is not correct\");\r\n            $equityBaseReleased = $equityBaseReleased.add(100);\r\n            $equityBasePlayer[msg.sender] = $equityBasePlayer[msg.sender].add(100);\r\n        }\r\n        else if(typ == 3){\r\n            require(value == buyPrice(3).mul(base), \"Value is not correct\");\r\n            $equityBaseReleased = $equityBaseReleased.add(1000);\r\n\r\n            $equityBasePlayer[msg.sender] = $equityBasePlayer[msg.sender].add(1000);\r\n        }else{\r\n            revert(\"Type is error\");\r\n        }\r\n\r\n        $luckyCats[$createIndex].typ = typ;\r\n        _safeMint(msg.sender, $createIndex);\r\n\r\n        \r\n        distribute(value.percent(80), false);\r\n        address referrer = $referrer[msg.sender];\r\n        \r\n        if(referrer == address(0)){\r\n            sendToPlayer(team, value.percent(20));\r\n\r\n        }else{\r\n            sendToPlayer(referrer, value.percent(10));\r\n            sendToPlayer(team, value.percent(10));\r\n        }\r\n    }\r\n\r\n    function sellLCT(uint tokenId) public{\r\n\r\n        require(ownerOf(tokenId) == msg.sender, \"It's not your token\");\r\n        _burn(msg.sender, tokenId);\r\n        uint8 typ = $luckyCats[tokenId].typ;\r\n        uint payValue = sellPrice(typ).mul(10**8);\r\n\r\n        if(typ == 1){\r\n            $equityBaseBurned = $equityBaseBurned.add(10);\r\n            $equityBasePlayer[msg.sender] = $equityBasePlayer[msg.sender].sub(10);\r\n        }\r\n        else if(typ == 2){\r\n            $equityBaseBurned = $equityBaseBurned.add(100);\r\n            $equityBasePlayer[msg.sender] = $equityBasePlayer[msg.sender].sub(100);\r\n        }\r\n        else if(typ == 3){\r\n            $equityBaseBurned = $equityBaseBurned.add(1000);\r\n            $equityBasePlayer[msg.sender] = $equityBasePlayer[msg.sender].sub(1000);\r\n        }\r\n        sendToPlayer(msg.sender, payValue);\r\n        //Ichip(chip()).transferCHIPS(address(this), msg.sender, payValue);\r\n    }\r\n\r\n}",
  "sourcePath": "C:/Users/user/Documents/smart-contract/casino/contracts/LCT.sol",
  "compiler": {
    "name": "solc",
    "version": "0.5.1+commit.c8a2cb62.Emscripten.clang"
  },
  "schemaVersion": "3.0.2",
  "updatedAt": "2020-05-28T08:52:38.455Z",
  "devdoc": {
    "methods": {}
  },
  "userdoc": {
    "methods": {}
  }
}