{
  "contractName": "Manager",
  "abi": [
    {
      "constant": true,
      "inputs": [],
      "name": "manager",
      "outputs": [
        {
          "name": "",
          "type": "address"
        }
      ],
      "payable": false,
      "stateMutability": "view",
      "type": "function"
    },
    {
      "constant": true,
      "inputs": [],
      "name": "superManager",
      "outputs": [
        {
          "name": "",
          "type": "address"
        }
      ],
      "payable": false,
      "stateMutability": "view",
      "type": "function"
    },
    {
      "inputs": [],
      "payable": false,
      "stateMutability": "nonpayable",
      "type": "constructor"
    },
    {
      "constant": false,
      "inputs": [
        {
          "name": "new_superManager",
          "type": "address"
        }
      ],
      "name": "changeSuperManager",
      "outputs": [],
      "payable": false,
      "stateMutability": "nonpayable",
      "type": "function"
    },
    {
      "constant": false,
      "inputs": [
        {
          "name": "new_manager",
          "type": "address"
        }
      ],
      "name": "changeManager",
      "outputs": [],
      "payable": false,
      "stateMutability": "nonpayable",
      "type": "function"
    },
    {
      "constant": false,
      "inputs": [],
      "name": "withdraw",
      "outputs": [],
      "payable": false,
      "stateMutability": "nonpayable",
      "type": "function"
    }
  ],
  "bytecode": "0x608060405260008054600160a060020a03191673151e1a9f5234e50cc7ffc2ad7da73a31d77cea1b17905534801561003657600080fd5b5060018054600160a060020a0319163317905561039f806100586000396000f3fe608060405260043610610066577c01000000000000000000000000000000000000000000000000000000006000350463282feef7811461006b5780633ccfd60b146100a0578063481c6a75146100b557806386ea0c9b146100e6578063a3fbbaae146100fb575b600080fd5b34801561007757600080fd5b5061009e6004803603602081101561008e57600080fd5b5035600160a060020a031661012e565b005b3480156100ac57600080fd5b5061009e6101d6565b3480156100c157600080fd5b506100ca610296565b60408051600160a060020a039092168252519081900360200190f35b3480156100f257600080fd5b506100ca6102a5565b34801561010757600080fd5b5061009e6004803603602081101561011e57600080fd5b5035600160a060020a03166102b4565b600054600160a060020a031633146101a757604080517f08c379a000000000000000000000000000000000000000000000000000000000815260206004820152601a60248201527f596f7520617265206e6f7420612073757065724d616e61676572000000000000604482015290519081900360640190fd5b6000805473ffffffffffffffffffffffffffffffffffffffff1916600160a060020a0392909216919091179055565b600154600160a060020a03163314806101f95750600054600160a060020a031633145b151561026657604080517f08c379a000000000000000000000000000000000000000000000000000000000815260206004820152601560248201527f596f7520617265206e6f742061206d616e616765720000000000000000000000604482015290519081900360640190fd5b6040513390303180156108fc02916000818181858888f19350505050158015610293573d6000803e3d6000fd5b50565b600154600160a060020a031681565b600054600160a060020a031681565b600154600160a060020a03163314806102d75750600054600160a060020a031633145b151561034457604080517f08c379a000000000000000000000000000000000000000000000000000000000815260206004820152601560248201527f596f7520617265206e6f742061206d616e616765720000000000000000000000604482015290519081900360640190fd5b6001805473ffffffffffffffffffffffffffffffffffffffff1916600160a060020a039290921691909117905556fea165627a7a72305820c55169db9ad8ee3363b224525161f5d7c6574abd26794b591110ae1dfacabfbc0029",
  "source": "pragma solidity >= 0.5.0;\r\n\r\ncontract Manager{\r\n\r\n    address public superManager = 0x151E1a9f5234E50cc7FFc2aD7da73A31d77CeA1b;\r\n    address public manager;\r\n\r\n    constructor() public{\r\n        manager = msg.sender;\r\n    }\r\n\r\n    modifier onlyManager{\r\n        require(msg.sender == manager || msg.sender == superManager,\r\n\t\t\t\"You are not a manager\");\r\n        _;\r\n    }\r\n\r\n    modifier onlySuperManager{\r\n        require(msg.sender == superManager, \"You are not a superManager\");\r\n        _;\r\n    }\r\n\r\n    function changeSuperManager(address new_superManager) public onlySuperManager{\r\n        superManager = new_superManager;\r\n    }\r\n\r\n    function changeManager(address new_manager) public onlyManager{\r\n        manager = new_manager;\r\n    }\r\n\r\n    function withdraw() external onlyManager{\r\n        (msg.sender).transfer(address(this).balance);\r\n    }\r\n}",
  "sourcePath": "C:\\Users\\user\\Documents\\smart-contract\\casino\\contracts\\Manager.sol",
  "compiler": {
    "name": "solc",
    "version": "0.5.1+commit.c8a2cb62.Emscripten.clang"
  },
  "schemaVersion": "3.0.2",
  "updatedAt": "2020-05-28T08:51:44.390Z",
  "devdoc": {
    "methods": {}
  },
  "userdoc": {
    "methods": {}
  }
}