{
  "contractName": "Tanslot",
  "abi": [
    {
      "constant": true,
      "inputs": [
        {
          "name": "player",
          "type": "address"
        }
      ],
      "name": "inqReferrer",
      "outputs": [
        {
          "name": "",
          "type": "address"
        }
      ],
      "payable": false,
      "stateMutability": "view",
      "type": "function",
      "signature": "0x0eb700c0"
    },
    {
      "constant": false,
      "inputs": [
        {
          "name": "new_superManager",
          "type": "address"
        }
      ],
      "name": "changeSuperManager",
      "outputs": [],
      "payable": false,
      "stateMutability": "nonpayable",
      "type": "function",
      "signature": "0x282feef7"
    },
    {
      "constant": false,
      "inputs": [
        {
          "name": "value",
          "type": "uint256"
        },
        {
          "name": "toPlayer",
          "type": "bool"
        }
      ],
      "name": "distribute",
      "outputs": [],
      "payable": false,
      "stateMutability": "nonpayable",
      "type": "function",
      "signature": "0x2fcea6c4"
    },
    {
      "constant": true,
      "inputs": [],
      "name": "inqTeam",
      "outputs": [
        {
          "name": "",
          "type": "address"
        }
      ],
      "payable": false,
      "stateMutability": "view",
      "type": "function",
      "signature": "0x3abfcbde"
    },
    {
      "constant": true,
      "inputs": [],
      "name": "rand",
      "outputs": [
        {
          "name": "",
          "type": "uint256"
        }
      ],
      "payable": false,
      "stateMutability": "view",
      "type": "function",
      "signature": "0x3b3dca76"
    },
    {
      "constant": false,
      "inputs": [],
      "name": "withdraw",
      "outputs": [],
      "payable": false,
      "stateMutability": "nonpayable",
      "type": "function",
      "signature": "0x3ccfd60b"
    },
    {
      "constant": true,
      "inputs": [],
      "name": "manager",
      "outputs": [
        {
          "name": "",
          "type": "address"
        }
      ],
      "payable": false,
      "stateMutability": "view",
      "type": "function",
      "signature": "0x481c6a75"
    },
    {
      "constant": true,
      "inputs": [],
      "name": "test_node",
      "outputs": [
        {
          "name": "",
          "type": "address"
        }
      ],
      "payable": false,
      "stateMutability": "view",
      "type": "function",
      "signature": "0x563de61d"
    },
    {
      "constant": false,
      "inputs": [
        {
          "name": "profit",
          "type": "uint256"
        },
        {
          "name": "bet",
          "type": "uint256"
        },
        {
          "name": "to",
          "type": "address"
        }
      ],
      "name": "checkAndSend",
      "outputs": [],
      "payable": false,
      "stateMutability": "nonpayable",
      "type": "function",
      "signature": "0x5ec3b9f2"
    },
    {
      "constant": true,
      "inputs": [],
      "name": "LCTadr",
      "outputs": [
        {
          "name": "",
          "type": "address"
        }
      ],
      "payable": false,
      "stateMutability": "view",
      "type": "function",
      "signature": "0x64ff6269"
    },
    {
      "constant": true,
      "inputs": [],
      "name": "totPool",
      "outputs": [
        {
          "name": "",
          "type": "uint256"
        }
      ],
      "payable": false,
      "stateMutability": "view",
      "type": "function",
      "signature": "0x778a6f53"
    },
    {
      "constant": true,
      "inputs": [],
      "name": "superManager",
      "outputs": [
        {
          "name": "",
          "type": "address"
        }
      ],
      "payable": false,
      "stateMutability": "view",
      "type": "function",
      "signature": "0x86ea0c9b"
    },
    {
      "constant": true,
      "inputs": [
        {
          "name": "player",
          "type": "address"
        }
      ],
      "name": "inqRegistered",
      "outputs": [
        {
          "name": "",
          "type": "bool"
        }
      ],
      "payable": false,
      "stateMutability": "view",
      "type": "function",
      "signature": "0x96e156c2"
    },
    {
      "constant": false,
      "inputs": [
        {
          "name": "new_manager",
          "type": "address"
        }
      ],
      "name": "changeManager",
      "outputs": [],
      "payable": false,
      "stateMutability": "nonpayable",
      "type": "function",
      "signature": "0xa3fbbaae"
    },
    {
      "constant": false,
      "inputs": [
        {
          "name": "newChip",
          "type": "address"
        }
      ],
      "name": "setChip",
      "outputs": [],
      "payable": false,
      "stateMutability": "nonpayable",
      "type": "function",
      "signature": "0xa43c2496"
    },
    {
      "constant": true,
      "inputs": [],
      "name": "chip",
      "outputs": [
        {
          "name": "",
          "type": "address"
        }
      ],
      "payable": false,
      "stateMutability": "view",
      "type": "function",
      "signature": "0xb61500e4"
    },
    {
      "constant": false,
      "inputs": [
        {
          "name": "to",
          "type": "address"
        },
        {
          "name": "value",
          "type": "uint256"
        }
      ],
      "name": "sendToPlayer",
      "outputs": [],
      "payable": false,
      "stateMutability": "nonpayable",
      "type": "function",
      "signature": "0xdfdeccfc"
    },
    {
      "payable": true,
      "stateMutability": "payable",
      "type": "fallback"
    },
    {
      "anonymous": false,
      "inputs": [
        {
          "indexed": true,
          "name": "_player",
          "type": "address"
        },
        {
          "indexed": false,
          "name": "slotNumber",
          "type": "uint8[9]"
        }
      ],
      "name": "slotNum",
      "type": "event",
      "signature": "0x043b80f5adc4ddbacabd4ddf8fa76ef346f3473c2d42a5727d5389bed52e207c"
    },
    {
      "anonymous": false,
      "inputs": [
        {
          "indexed": true,
          "name": "_player",
          "type": "address"
        },
        {
          "indexed": false,
          "name": "value",
          "type": "uint256"
        }
      ],
      "name": "slotResult",
      "type": "event",
      "signature": "0x2b7986f1154a45cf5e94a7c929668121ae8f58f5053cf0b763ee912bd96b4f20"
    },
    {
      "constant": false,
      "inputs": [
        {
          "name": "value",
          "type": "uint256"
        }
      ],
      "name": "slotting",
      "outputs": [],
      "payable": false,
      "stateMutability": "nonpayable",
      "type": "function",
      "signature": "0x29aff646"
    },
    {
      "constant": true,
      "inputs": [],
      "name": "inquireJackpot",
      "outputs": [
        {
          "name": "",
          "type": "uint256"
        }
      ],
      "payable": false,
      "stateMutability": "view",
      "type": "function",
      "signature": "0xcceb26d1"
    },
    {
      "constant": true,
      "inputs": [],
      "name": "inquireTAN",
      "outputs": [
        {
          "name": "",
          "type": "uint256"
        }
      ],
      "payable": false,
      "stateMutability": "view",
      "type": "function",
      "signature": "0x1d71a1fb"
    },
    {
      "constant": true,
      "inputs": [
        {
          "name": "_player",
          "type": "address"
        }
      ],
      "name": "inquire_beforeNumber",
      "outputs": [
        {
          "name": "",
          "type": "uint8[9]"
        }
      ],
      "payable": false,
      "stateMutability": "view",
      "type": "function",
      "signature": "0x48b3b4e4"
    }
  ],
  "bytecode": "0x608060405260008054600160a060020a031990811673151e1a9f5234e50cc7ffc2ad7da73a31d77cea1b1790915560048054821673083748b1666caa85c2abef2027873b0d573db3f71790556001805490911633179055611e17806100656000396000f3fe6080604052600436106100fd5760e060020a60003504630eb700c081146100ff5780631d71a1fb1461014e578063282feef71461017557806329aff646146101a85780632fcea6c4146101d25780633abfcbde146102045780633b3dca76146102195780633ccfd60b1461022e578063481c6a751461024357806348b3b4e414610258578063563de61d146102c45780635ec3b9f2146102d957806364ff626914610318578063778a6f531461032d57806386ea0c9b1461034257806396e156c214610357578063a3fbbaae1461039e578063a43c2496146103d1578063b61500e414610404578063cceb26d114610419578063dfdeccfc1461042e575b005b34801561010b57600080fd5b506101326004803603602081101561012257600080fd5b5035600160a060020a0316610467565b60408051600160a060020a039092168252519081900360200190f35b34801561015a57600080fd5b506101636104fd565b60408051918252519081900360200190f35b34801561018157600080fd5b506100fd6004803603602081101561019857600080fd5b5035600160a060020a0316610503565b3480156101b457600080fd5b506100fd600480360360208110156101cb57600080fd5b5035610594565b3480156101de57600080fd5b506100fd600480360360408110156101f557600080fd5b508035906020013515156111e7565b34801561021057600080fd5b5061013261125f565b34801561022557600080fd5b506101636112d5565b34801561023a57600080fd5b506100fd611346565b34801561024f57600080fd5b506101326113ef565b34801561026457600080fd5b5061028b6004803603602081101561027b57600080fd5b5035600160a060020a03166113fe565b604051808261012080838360005b838110156102b1578181015183820152602001610299565b5050505090500191505060405180910390f35b3480156102d057600080fd5b5061013261146d565b3480156102e557600080fd5b506100fd600480360360608110156102fc57600080fd5b5080359060208101359060400135600160a060020a031661147c565b34801561032457600080fd5b5061013261154d565b34801561033957600080fd5b50610163611592565b34801561034e57600080fd5b506101326115d7565b34801561036357600080fd5b5061038a6004803603602081101561037a57600080fd5b5035600160a060020a03166115e6565b604080519115158252519081900360200190f35b3480156103aa57600080fd5b506100fd600480360360208110156103c157600080fd5b5035600160a060020a0316611648565b3480156103dd57600080fd5b506100fd600480360360208110156103f457600080fd5b5035600160a060020a03166116f0565b34801561041057600080fd5b5061013261171f565b34801561042557600080fd5b50610163611794565b34801561043a57600080fd5b506100fd6004803603604081101561045157600080fd5b50600160a060020a0381351690602001356117a5565b600061047161154d565b600160a060020a0316630eb700c0836040518263ffffffff1660e060020a0281526004018082600160a060020a0316600160a060020a0316815260200191505060206040518083038186803b1580156104c957600080fd5b505afa1580156104dd573d6000803e3d6000fd5b505050506040513d60208110156104f357600080fd5b505190505b919050565b30315b90565b600054600160a060020a03163314610565576040805160e560020a62461bcd02815260206004820152601a60248201527f596f7520617265206e6f7420612073757065724d616e61676572000000000000604482015290519081900360640190fd5b6000805473ffffffffffffffffffffffffffffffffffffffff1916600160a060020a0392909216919091179055565b6105be6105b9600a6105ad84600963ffffffff61181f16565b9063ffffffff6118c416565b611906565b6105c661171f565b600160a060020a031663fde1c4133360006105e885600a63ffffffff6118c416565b6040805160e060020a63ffffffff8716028152600160a060020a03948516600482015292909316602483015260448201529051606480830192600092919082900301818387803b15801561063b57600080fd5b505af115801561064f573d6000803e3d6000fd5b50505050600061065d6112d5565b9050610667611cbc565b61066f611cdc565b60008080601460ff60f860020a600289901a810204160660ff908116865260149060f860020a600589901a810204160660ff908116602087015260149060f860020a600789901a810204160660ff908116604087015260149060f860020a600989901a810204160660ff908116606087015260149060f860020a600b89901a810204160660ff908116608087015260149060f860020a600e89901a810204160660ff90811660a087015260149060f860020a601089901a810204160660ff90811660c087015260149060f860020a601389901a810204160660ff90811660e087015260149060f860020a601689901a810204160660ff1661010086015233600090815260036020526040902061078790866009611cfb565b5060405133907f043b80f5adc4ddbacabd4ddf8fa76ef346f3473c2d42a5727d5389bed52e207c908790808261012080838360005b838110156107d45781810151838201526020016107bc565b5050505090500191505060405180910390a26107f78560005b6020020151611999565b60ff1685526108078560016107ed565b60ff16602086015261081a8560026107ed565b60ff16604086015261082d8560036107ed565b60ff1660608601526108408560046107ed565b60ff1660808601526108538560056107ed565b60ff1660a08601526108668560066107ed565b60ff1660c08601526108798560076107ed565b60ff1660e086015261088c8560086107ed565b60ff1661010086015260005b60098160ff1610156108dd578560ff8216600981106108b357fe5b602002015160ff1615156108d5576108d283600163ffffffff611a6b16565b92505b600101610898565b50600782106109865760006108f26000611ac8565b90506108fc61171f565b604080517ffde1c413000000000000000000000000000000000000000000000000000000008152600060048201819052336024830152604482018590529151600160a060020a03939093169263fde1c4139260648084019391929182900301818387803b15801561096c57600080fd5b505af1158015610980573d6000803e3d6000fd5b50505050505b6020850151855160ff90811691161480156109af57506040850151602086015160ff9081169116145b15610a4c57845160ff1615156109d6578360005b60200201805160010160ff169052610a4c565b845160ff16600114156109eb578360016109c3565b845160ff1660021480610a025750845160ff166003145b15610a0f578360026109c3565b845160ff1660041480610a265750845160ff166005145b80610a355750845160ff166006145b15610a4c5783600360200201805160010160ff1690525b6080850151606086015160ff9081169116148015610a78575060a0850151608086015160ff9081169116145b15610b3957606085015160ff161515610aa2578360005b60200201805160010160ff169052610b39565b846003602002015160ff1660011415610abd57836001610a8f565b846003602002015160ff1660021480610add5750606085015160ff166003145b15610aea57836002610a8f565b846003602002015160ff1660041480610b0d5750846003602002015160ff166005145b80610b225750846003602002015160ff166006145b15610b395783600360200201805160010160ff1690525b60e085015160c086015160ff9081169116148015610b66575061010085015160e086015160ff9081169116145b15610c275760c085015160ff161515610b90578360005b60200201805160010160ff169052610c27565b846006602002015160ff1660011415610bab57836001610b7d565b846006602002015160ff1660021480610bce5750846006602002015160ff166003145b15610bdb57836002610b7d565b846006602002015160ff1660041480610bfe5750846006602002015160ff166005145b80610c10575060c085015160ff166006145b15610c275783600360200201805160010160ff1690525b6080850151855160ff9081169116148015610c515750610100850151608086015160ff9081169116145b15610cee57845160ff161515610c78578360005b60200201805160010160ff169052610cee565b845160ff1660011415610c8d57836001610c65565b845160ff1660021480610ca45750845160ff166003145b15610cb157836002610c65565b845160ff1660041480610cc85750845160ff166005145b80610cd75750845160ff166006145b15610cee5783600360200201805160010160ff1690525b6080850151604086015160ff9081169116148015610d1a575060c0850151608086015160ff9081169116145b15610ddb57604085015160ff161515610d44578360005b60200201805160010160ff169052610ddb565b846002602002015160ff1660011415610d5f57836001610d31565b604085015160ff1660021480610d7f5750846002602002015160ff166003145b15610d8c57836002610d31565b846002602002015160ff1660041480610daf5750846002602002015160ff166005145b80610dc45750846002602002015160ff166006145b15610ddb5783600360200201805160010160ff1690525b6060850151855160ff9081169116148015610e04575060c0850151606086015160ff9081169116145b15610ea157845160ff161515610e2b578360005b60200201805160010160ff169052610ea1565b845160ff1660011415610e4057836001610e18565b845160ff1660021480610e575750845160ff166003145b15610e6457836002610e18565b845160ff1660041480610e7b5750845160ff166005145b80610e8a5750845160ff166006145b15610ea15783600360200201805160010160ff1690525b6080850151602086015160ff9081169116148015610ecd575060e0850151608086015160ff9081169116145b15610f8e57602085015160ff161515610ef7578360005b60200201805160010160ff169052610f8e565b602085015160ff1660011415610f0f57836001610ee4565b846001602002015160ff1660021480610f325750846001602002015160ff166003145b15610f3f57836002610ee4565b846001602002015160ff1660041480610f625750846001602002015160ff166005145b80610f775750846001602002015160ff166006145b15610f8e5783600360200201805160010160ff1690525b60a0850151604086015160ff9081169116148015610fbb575061010085015160a086015160ff9081169116145b1561107c57604085015160ff161515610fe5578360005b60200201805160010160ff16905261107c565b846002602002015160ff166001141561100057836001610fd2565b604085015160ff16600214806110205750846002602002015160ff166003145b1561102d57836002610fd2565b846002602002015160ff16600414806110505750846002602002015160ff166005145b806110655750846002602002015160ff166006145b1561107c5783600360200201805160010160ff1690525b835160ff16156110e8576110b360146110a78660005b60200201518a9060ff1663ffffffff61181f16565b9063ffffffff61181f16565b6040805182815290519194503391600080516020611dcc8339815191529181900360200190a26110e483883361147c565b5060015b602084015160ff161561113a57611105600a6110a7866001611092565b6040805182815290519194503391600080516020611dcc8339815191529181900360200190a261113683883361147c565b5060015b604084015160ff161561118c5761115760086110a7866002611092565b6040805182815290519194503391600080516020611dcc8339815191529181900360200190a261118883883361147c565b5060015b606084015160ff16156111de576111a960026110a7866003611092565b6040805182815290519194503391600080516020611dcc8339815191529181900360200190a26111da83883361147c565b5060015b50505050505050565b6111ef61171f565b600160a060020a0316632fcea6c483836040518363ffffffff1660e060020a028152600401808381526020018215151515815260200192505050600060405180830381600087803b15801561124357600080fd5b505af1158015611257573d6000803e3d6000fd5b505050505050565b600061126961154d565b600160a060020a0316633abfcbde6040518163ffffffff1660e060020a02815260040160206040518083038186803b1580156112a457600080fd5b505afa1580156112b8573d6000803e3d6000fd5b505050506040513d60208110156112ce57600080fd5b5051905090565b60006112df611d8e565b60208160008073c327ff1025c5b3d2deb5e3f0f161b3f7e557579a600019fa151561130957600080fd5b425a915160408051602081810194909452808201949094526060808501929092528051808503909201825260809093019092528151910120919050565b600154600160a060020a03163314806113695750600054600160a060020a031633145b15156113bf576040805160e560020a62461bcd02815260206004820152601560248201527f596f7520617265206e6f742061206d616e616765720000000000000000000000604482015290519081900360640190fd5b6040513390303180156108fc02916000818181858888f193505050501580156113ec573d6000803e3d6000fd5b50565b600154600160a060020a031681565b611406611cbc565b600160a060020a03821660009081526003602052604080822081516101208101928390529290916009918390855b825461010083900a900460ff16815260206001928301818104948501949093039092029101808411611434575094979650505050505050565b600454600160a060020a031681565b8183106114c55761148d81846117a5565b6000611498336115e6565b156114b4576114af6114a933610467565b826117a5565b6114bf565b6114bf6114a961125f565b50611548565b6114cf81846117a5565b60006114e1838563ffffffff611b5c16565b905060006114f682600a63ffffffff611b9e16565b9050600061150b83605a63ffffffff611b9e16565b90506115188160016111e7565b611521336115e6565b1561153d5761153861153233610467565b836117a5565b611257565b61125761153261125f565b505050565b600061155761171f565b600160a060020a03166364ff62696040518163ffffffff1660e060020a02815260040160206040518083038186803b1580156112a457600080fd5b600061159c61171f565b600160a060020a031663778a6f536040518163ffffffff1660e060020a02815260040160206040518083038186803b1580156112a457600080fd5b600054600160a060020a031681565b60006115f061154d565b600160a060020a03166396e156c2836040518263ffffffff1660e060020a0281526004018082600160a060020a0316600160a060020a0316815260200191505060206040518083038186803b1580156104c957600080fd5b600154600160a060020a031633148061166b5750600054600160a060020a031633145b15156116c1576040805160e560020a62461bcd02815260206004820152601560248201527f596f7520617265206e6f742061206d616e616765720000000000000000000000604482015290519081900360640190fd5b6001805473ffffffffffffffffffffffffffffffffffffffff1916600160a060020a0392909216919091179055565b6002805473ffffffffffffffffffffffffffffffffffffffff1916600160a060020a0392909216919091179055565b600254600090600160a060020a03161515611784576040805160e560020a62461bcd02815260206004820152601760248201527f706f6f6c2061646472657373206973206e6f7420736574000000000000000000604482015290519081900360640190fd5b50600254600160a060020a031690565b60006117a06000611ac8565b905090565b6117ad61171f565b604080517ffde1c413000000000000000000000000000000000000000000000000000000008152306004820152600160a060020a038581166024830152604482018590529151929091169163fde1c4139160648082019260009290919082900301818387803b15801561124357600080fd5b6000821515611830575060006118be565b82820282848281151561183f57fe5b04146118bb576040805160e560020a62461bcd02815260206004820152602160248201527f536166654d6174683a206d756c7469706c69636174696f6e206f766572666c6f60448201527f7700000000000000000000000000000000000000000000000000000000000000606482015290519081900360840190fd5b90505b92915050565b60006118bb83836040805190810160405280601a81526020017f536166654d6174683a206469766973696f6e206279207a65726f000000000000815250611bb5565b61190e61171f565b604080517ffde1c413000000000000000000000000000000000000000000000000000000008152336004820152306024820152604481018490529051600160a060020a03929092169163fde1c4139160648082019260009290919082900301818387803b15801561197e57600080fd5b505af1158015611992573d6000803e3d6000fd5b5050505050565b600060ff821615156119ad575060006104f8565b8160ff16600114806119c257508160ff166002145b156119cf575060016104f8565b60038260ff16101580156119e7575060058260ff1611155b156119f4575060026104f8565b60068260ff1610158015611a0c575060088260ff1611155b15611a19575060036104f8565b60098260ff1610158015611a315750600d8260ff1611155b15611a3e575060046104f8565b600e8260ff1610158015611a56575060128260ff1611155b15611a63575060056104f8565b506006919050565b6000828201838110156118bb576040805160e560020a62461bcd02815260206004820152601b60248201527f536166654d6174683a206164646974696f6e206f766572666c6f770000000000604482015290519081900360640190fd5b6000611ad261171f565b600160a060020a03166358fc647c836040518263ffffffff1660e060020a0281526004018082600160a060020a0316600160a060020a0316815260200191505060206040518083038186803b158015611b2a57600080fd5b505afa158015611b3e573d6000803e3d6000fd5b505050506040513d6020811015611b5457600080fd5b509092915050565b60006118bb83836040805190810160405280601e81526020017f536166654d6174683a207375627472616374696f6e206f766572666c6f770000815250611c5e565b60006118bb60646105ad858563ffffffff61181f16565b600081818411611c465760405160e560020a62461bcd0281526004018080602001828103825283818151815260200191508051906020019080838360005b83811015611c0b578181015183820152602001611bf3565b50505050905090810190601f168015611c385780820380516001836020036101000a031916815260200191505b509250505060405180910390fd5b5060008385811515611c5457fe5b0495945050505050565b60008184841115611cb45760405160e560020a62461bcd02815260040180806020018281038252838181518152602001915080519060200190808383600083811015611c0b578181015183820152602001611bf3565b505050900390565b610120604051908101604052806009906020820280388339509192915050565b6080604051908101604052806004906020820280388339509192915050565b600183019183908215611d7e5791602002820160005b83821115611d4f57835183826101000a81548160ff021916908360ff1602179055509260200192600101602081600001049283019260010302611d11565b8015611d7c5782816101000a81549060ff0219169055600101602081600001049283019260010302611d4f565b505b50611d8a929150611dad565b5090565b6020604051908101604052806001906020820280388339509192915050565b61050091905b80821115611d8a57805460ff19168155600101611db356fe2b7986f1154a45cf5e94a7c929668121ae8f58f5053cf0b763ee912bd96b4f20a165627a7a7230582008cdddc218b93f2a156f0500faf0f9d0924661431be5165d15f95f4caf4a67390029",
  "source": "pragma solidity >=0.5.0 <0.6.0;\r\n\r\nimport \"./ConnectChips.sol\";\r\nimport \"./Manager.sol\";\r\n\r\nlibrary Address {\r\n    \r\n    function isContract(address account) internal view returns (bool) {\r\n\r\n        bytes32 codehash;\r\n        bytes32 accountHash = 0xc5d2460186f7233c927e7db2dcc703c0e500b653ca82273b7bfad8045d85a470;\r\n        \r\n        assembly { codehash := extcodehash(account) }\r\n        return (codehash != 0x0 && codehash != accountHash);\r\n    }\r\n    \r\n    function toPayable(address account) internal pure returns (address payable) {\r\n        return address(uint160(account));\r\n    }\r\n    \r\n}\r\n\r\ncontract Tanslot is Manager, ConnectChips{\r\n    \r\n    using SafeMath for uint256;\r\n    using SafeMath16 for uint16;\r\n    using SafeMath8 for uint8;\r\n    using Address for address;\r\n    mapping(address => uint8[9]) beforeSlotNum;          //\r\n    // mapping(address => uint8[9]) afterSlotNum;        //\r\n    event slotNum(address indexed _player, uint8[9] slotNumber); //\r\n    event slotResult(address indexed _player, uint value);\r\n    \r\n    address public test_node = 0x083748b1666caa85c2AbEF2027873b0d573DB3F7;\r\n\r\n    \r\n    //uint jackpot;\r\n    \r\n    function() external payable{}\r\n    \r\n    function slotting(uint value) public{\r\n\r\n        payToGame(value.mul(9).div(10));\r\n        Ichip(chip()).transferCHIPS(msg.sender, address(0), value.div(10)); //jackpot\r\n        //require((address(this).balance.sub(jackpot)) > msg.value.mul(160),\"you need to pay more value\");\r\n\r\n        //uint _money = value;\r\n        \r\n        bytes32 random = bytes32(rand());\r\n        uint8[9] memory slot;               //9\r\n        uint8[4] memory odds;               //\r\n        uint payTAN;\r\n        uint cnt = 0;\r\n        bool isLotto = false;\r\n        \r\n        slot[0] = uint8(random[2]) % 20;\r\n        slot[1] = uint8(random[5]) % 20;\r\n        slot[2] = uint8(random[7]) % 20;\r\n        slot[3] = uint8(random[9]) % 20;\r\n        slot[4] = uint8(random[11]) % 20;\r\n        slot[5] = uint8(random[14]) % 20;\r\n        slot[6] = uint8(random[16]) % 20;\r\n        slot[7] = uint8(random[19]) % 20;\r\n        slot[8] = uint8(random[22]) % 20;\r\n        \r\n        beforeSlotNum[msg.sender] = slot;\r\n        emit slotNum(msg.sender,slot);\r\n         \r\n        slot[0] = transferParm(slot[0]);\r\n        slot[1] = transferParm(slot[1]);\r\n        slot[2] = transferParm(slot[2]);\r\n        slot[3] = transferParm(slot[3]);\r\n        slot[4] = transferParm(slot[4]);\r\n        slot[5] = transferParm(slot[5]);\r\n        slot[6] = transferParm(slot[6]);\r\n        slot[7] = transferParm(slot[7]);\r\n        slot[8] = transferParm(slot[8]);\r\n        \r\n        \r\n        for(uint8 i=0; i < slot.length; i++){                //90\r\n        \r\n            if(slot[i] == 0){\r\n                cnt = cnt.add(1);\r\n            }\r\n        }\r\n\r\n        if(cnt >= 7){\r\n            uint jackpotValue = inqCHIPS(address(0));\r\n            Ichip(chip()).transferCHIPS(address(0), msg.sender, jackpotValue); //jackpot\r\n        }\r\n        \r\n        if( slot[0] == slot[1] && slot[1] == slot[2]){\r\n            if(slot[0] == 0 ){\r\n                odds[0]++;\r\n            }else if(slot[0] == 1){\r\n                odds[1]++;\r\n            }else if(slot[0] == 2 || slot[0] == 3){\r\n                odds[2]++;\r\n            }else if(slot[0] == 4 || slot[0] == 5 || slot[0] == 6){\r\n                odds[3]++;\r\n            }\r\n        }\r\n         \r\n        if( slot[3] == slot[4] && slot[4] == slot[5]){\r\n            if(slot[3] == 0 ){\r\n                odds[0]++;\r\n            }else if(slot[3] == 1){\r\n                odds[1]++;\r\n            }else if(slot[3] == 2 || slot[3] == 3){\r\n                odds[2]++;\r\n            }else if(slot[3] == 4 || slot[3] == 5 || slot[3] == 6){\r\n                odds[3]++;\r\n            }\r\n        }\r\n        \r\n        if( slot[6] == slot[7] && slot[7] == slot[8]){\r\n            if(slot[6] == 0 ){\r\n                odds[0]++;\r\n            }else if(slot[6] == 1){\r\n                odds[1]++;\r\n            }else if(slot[6] == 2 || slot[6] == 3){\r\n                odds[2]++;\r\n            }else if(slot[6] == 4 || slot[6] == 5 || slot[6] == 6){\r\n                odds[3]++;\r\n            }\r\n        }\r\n        \r\n        if( slot[0] == slot[4] && slot[4] == slot[8]){\r\n            if(slot[0] == 0 ){\r\n                odds[0]++;\r\n            }else if(slot[0] == 1){\r\n                odds[1]++;\r\n            }else if(slot[0] == 2 || slot[0] == 3){\r\n                odds[2]++;\r\n            }else if(slot[0] == 4 || slot[0] == 5 || slot[0] == 6){\r\n                odds[3]++;\r\n            }\r\n        }\r\n         \r\n        if( slot[2] == slot[4] && slot[4] == slot[6]){\r\n            if(slot[2] == 0 ){\r\n                odds[0]++;\r\n            }else if(slot[2] == 1){\r\n                odds[1]++;\r\n            }else if(slot[2] == 2 || slot[2] == 3){\r\n                odds[2]++;\r\n            }else if(slot[2] == 4 || slot[2] == 5 || slot[2] == 6){\r\n                odds[3]++;\r\n            }\r\n        }\r\n         \r\n        if( slot[0] == slot[3] && slot[3] == slot[6]){\r\n            if(slot[0] == 0 ){\r\n                odds[0]++;\r\n            }else if(slot[0] == 1){\r\n                odds[1]++;\r\n            }else if(slot[0] == 2 || slot[0] == 3){\r\n                odds[2]++;\r\n            }else if(slot[0] == 4 || slot[0] == 5 || slot[0] == 6){\r\n                odds[3]++;\r\n            }\r\n        }\r\n         \r\n        if( slot[1] == slot[4] && slot[4] == slot[7]){\r\n            if(slot[1] == 0 ){\r\n                odds[0]++;\r\n            }else if(slot[1] == 1){\r\n                odds[1]++;\r\n            }else if(slot[1] == 2 || slot[1] == 3){\r\n                odds[2]++;\r\n            }else if(slot[1] == 4 || slot[1] == 5 || slot[1] == 6){\r\n                odds[3]++;\r\n            }\r\n        }\r\n        \r\n        if( slot[2] == slot[5] && slot[5] == slot[8]){\r\n            if(slot[2] == 0 ){\r\n                odds[0]++;\r\n            }else if(slot[2] == 1){\r\n                odds[1]++;\r\n            }else if(slot[2] == 2 || slot[2] == 3){\r\n                odds[2]++;\r\n            }else if(slot[2] == 4 || slot[2] == 5 || slot[2] == 6){\r\n                odds[3]++;\r\n            }\r\n        }\r\n        \r\n        \r\n        if(odds[0] !=0){\r\n            payTAN = value.mul(odds[0]).mul(20);\r\n            emit slotResult(msg.sender, payTAN);\r\n            checkAndSend(payTAN, value, msg.sender);\r\n            isLotto = true;\r\n        }\r\n        \r\n        if(odds[1] !=0){\r\n            payTAN = value.mul(odds[1]).mul(10);\r\n            emit slotResult(msg.sender, payTAN);\r\n            checkAndSend(payTAN, value, msg.sender);\r\n            isLotto = true;\r\n        }\r\n        \r\n        if(odds[2] !=0){\r\n            payTAN = value.mul(odds[2]).mul(8);\r\n            emit slotResult(msg.sender, payTAN);\r\n            checkAndSend(payTAN, value, msg.sender);\r\n            isLotto = true;\r\n        }\r\n        \r\n        if(odds[3] !=0){\r\n            payTAN = value.mul(odds[3]).mul(2);\r\n            emit slotResult(msg.sender, payTAN);\r\n            checkAndSend(payTAN, value, msg.sender);\r\n            isLotto = true;\r\n        }\r\n        \r\n\r\n        // afterSlotNum[msg.sender] = slot;\r\n        \r\n    }\r\n    \r\n    function transferParm(uint8 _parm) private pure returns(uint8 newSlot){\r\n        if(_parm == 0){\r\n            newSlot = 0;\r\n        }else if(_parm == 1 || _parm == 2){\r\n            newSlot = 1;\r\n        }else if(_parm >=3 && _parm <= 5){\r\n            newSlot = 2;\r\n        }else if(_parm >=6 && _parm <= 8){\r\n            newSlot = 3;\r\n        }else if(_parm >=9 && _parm <= 13){\r\n            newSlot = 4;\r\n        }else if(_parm >=14 && _parm <= 18){\r\n            newSlot = 5;\r\n        }else{\r\n            newSlot = 6;\r\n        }\r\n    }\r\n\r\n    function inquireJackpot() public view returns(uint){            //\r\n        return inqCHIPS(address(0));\r\n    }\r\n\r\n    function inquireTAN() public view returns(uint){                //\r\n        return address(this).balance;\r\n    }\r\n    \r\n    function inquire_beforeNumber(address _player) public view returns(uint8[9] memory){    //()\r\n        return beforeSlotNum[_player];\r\n    }\r\n \r\n    // function inquire_afterNumber(address _player) public view returns(uint8[9]){    //()\r\n    //     return afterSlotNum[_player];\r\n    // }\r\n    \r\n}",
  "sourcePath": "C:/Users/user/Documents/smart-contract/casino/contracts/Slot.sol",
  "compiler": {
    "name": "solc",
    "version": "0.5.1+commit.c8a2cb62.Emscripten.clang"
  },
  "schemaVersion": "3.0.2",
  "updatedAt": "2020-05-28T08:52:38.581Z",
  "devdoc": {
    "methods": {}
  },
  "userdoc": {
    "methods": {}
  }
}