{
  "contractName": "tool",
  "abi": [
    {
      "constant": true,
      "inputs": [
        {
          "name": "_addr",
          "type": "address"
        }
      ],
      "name": "addressToString",
      "outputs": [
        {
          "name": "",
          "type": "string"
        }
      ],
      "payable": false,
      "stateMutability": "pure",
      "type": "function"
    },
    {
      "constant": true,
      "inputs": [
        {
          "name": "u",
          "type": "uint256"
        }
      ],
      "name": "uintToString",
      "outputs": [
        {
          "name": "str",
          "type": "string"
        }
      ],
      "payable": false,
      "stateMutability": "pure",
      "type": "function"
    },
    {
      "constant": true,
      "inputs": [
        {
          "name": "_a",
          "type": "string"
        },
        {
          "name": "_b",
          "type": "string"
        }
      ],
      "name": "strConcat",
      "outputs": [
        {
          "name": "",
          "type": "string"
        }
      ],
      "payable": false,
      "stateMutability": "pure",
      "type": "function"
    }
  ],
  "bytecode": "0x608060405234801561001057600080fd5b506106c8806100206000396000f3fe608060405260043610610050577c010000000000000000000000000000000000000000000000000000000060003504635e57966d8114610055578063e93956791461010a578063ff74927b14610134575b600080fd5b34801561006157600080fd5b506100956004803603602081101561007857600080fd5b503573ffffffffffffffffffffffffffffffffffffffff1661026e565b6040805160208082528351818301528351919283929083019185019080838360005b838110156100cf5781810151838201526020016100b7565b50505050905090810190601f1680156100fc5780820380516001836020036101000a031916815260200191505b509250505060405180910390f35b34801561011657600080fd5b506100956004803603602081101561012d57600080fd5b503561047e565b34801561014057600080fd5b506100956004803603604081101561015757600080fd5b81019060208101813564010000000081111561017257600080fd5b82018360208201111561018457600080fd5b803590602001918460018302840111640100000000831117156101a657600080fd5b91908080601f01602080910402602001604051908101604052809392919081815260200183838082843760009201919091525092959493602081019350359150506401000000008111156101f957600080fd5b82018360208201111561020b57600080fd5b8035906020019184600183028401116401000000008311171561022d57600080fd5b91908080601f01602080910402602001604051908101604052809392919081815260200183838082843760009201919091525092955061058b945050505050565b604080518082018252601081527f303132333435363738396162636465660000000000000000000000000000000060208201528151602a808252606082810190945273ffffffffffffffffffffffffffffffffffffffff8516929184916020820181803883390190505090507f300000000000000000000000000000000000000000000000000000000000000081600081518110151561030a57fe5b906020010190600160f860020a031916908160001a9053507f780000000000000000000000000000000000000000000000000000000000000081600181518110151561035257fe5b906020010190600160f860020a031916908160001a90535060005b60148110156104755782600485600c84016020811061038857fe5b1a60f860020a02600160f860020a031916908060020a820491505060f860020a900460ff168151811015156103b957fe5b90602001015160f860020a900460f860020a0282826002026002018151811015156103e057fe5b906020010190600160f860020a031916908160001a9053508284600c83016020811061040857fe5b1a60f860020a02600f60f860020a021660f860020a900460ff1681518110151561042e57fe5b90602001015160f860020a900460f860020a02828260020260030181518110151561045557fe5b906020010190600160f860020a031916908160001a90535060010161036d565b50949350505050565b60408051606480825260a08201909252606091839183908260208201818038833901905050905060005b83156104f2578151600a8086049560018401939190069160f860020a603084010291859181106104d457fe5b906020010190600160f860020a031916908160001a905350506104a8565b6060816001016040519080825280601f01601f191660200182016040528015610522576020820181803883390190505b50905060005b828111610580578381840381518110151561053f57fe5b90602001015160f860020a900460f860020a02828281518110151561056057fe5b906020010190600160f860020a031916908160001a905350600101610528565b509695505050505050565b6060808390506060839050606081518351016040519080825280601f01601f1916602001820160405280156105c7576020820181803883390190505b509050806000805b855181101561062d5785818151811015156105e657fe5b90602001015160f860020a900460f860020a02838380600101945081518110151561060d57fe5b906020010190600160f860020a031916908160001a9053506001016105cf565b5060005b845181101561068f57848181518110151561064857fe5b90602001015160f860020a900460f860020a02838380600101945081518110151561066f57fe5b906020010190600160f860020a031916908160001a905350600101610631565b509197965050505050505056fea165627a7a7230582014957cad265dea0bcb9b156fb16c28e20444e64216240c922f4f55017e2f49050029",
  "source": "pragma solidity >= 0.5.0;\r\n\r\n//debug 0.2.0\r\n\r\ncontract tool{\r\n    function addressToString(address _addr) public pure returns(string memory) {\r\n        bytes32 value = bytes32(uint256(_addr));\r\n        bytes memory alphabet = \"0123456789abcdef\";\r\n    \r\n        bytes memory str = new bytes(42);\r\n        str[0] = \"0\";\r\n        str[1] = \"x\";\r\n        for (uint i = 0; i < 20; i++) {\r\n            str[2+i*2] = alphabet[uint(uint8(value[i + 12] >> 4))];\r\n            str[3+i*2] = alphabet[uint(uint8(value[i + 12] & 0x0f))];\r\n        }\r\n        return string(str);\r\n    }\r\n\r\n    function uintToString(uint u) public pure returns (string memory str) {\r\n        uint _u = u;\r\n        uint maxlength = 100;\r\n        bytes memory reversed = new bytes(maxlength);\r\n        uint i = 0;\r\n        while (_u != 0) {\r\n            uint remainder = _u % 10;\r\n            _u = _u / 10;\r\n            reversed[i++] = byte(uint8(48 + remainder));\r\n        }\r\n        bytes memory s = new bytes(i + 1);\r\n        for (uint j = 0; j <= i; j++) {\r\n            s[j] = reversed[i - j];\r\n        }\r\n        str = string(s);\r\n    }\r\n\r\n    function strConcat(string memory _a, string memory _b) public pure returns (string memory){\r\n        bytes memory _ba = bytes(_a);\r\n        bytes memory _bb = bytes(_b);\r\n \r\n        string memory ret = new string(\r\n            _ba.length + _bb.length);\r\n        bytes memory bret = bytes(ret);\r\n        uint x = 0;\r\n        for (uint i = 0; i < _ba.length; i++) bret[x++] = _ba[i];\r\n        for (uint j = 0; j < _bb.length; j++) bret[x++] = _bb[j];\r\n\r\n        return string(ret);\r\n    }\r\n\r\n}\r\n\r\ncontract debug is tool{\r\n\r\n    function check(uint a, uint b, uint c) internal pure{\r\n        string memory str = strConcat(strConcat(strConcat(strConcat(strConcat(\r\n            \"[debug]\", uintToString(a) ), \",\"), uintToString(b)), \",\"), uintToString(c));\r\n\r\n        revert(str);\r\n    }\r\n\r\n    function check(address x, uint b, uint c) internal pure{\r\n        string memory str = strConcat(strConcat(strConcat(strConcat(strConcat(\r\n            \"[debug]\", addressToString(x) ), \",\"), uintToString(b)), \",\"), uintToString(c));\r\n\r\n        revert(str);\r\n    }\r\n\r\n    function check(uint a) internal pure{\r\n        check(a, 0, 0);\r\n    }\r\n\r\n    function check(uint a, uint b) internal pure{\r\n        check(a, b, 0);\r\n    }\r\n\r\n    function check(address x) internal pure{\r\n        check(x, 0, 0);\r\n    }\r\n\r\n    function check(address x, uint b) internal pure{\r\n        check(x, b, 0);\r\n    }\r\n\r\n}",
  "sourcePath": "C:\\Users\\user\\Documents\\smart-contract\\casino\\contracts\\debug.sol",
  "compiler": {
    "name": "solc",
    "version": "0.5.1+commit.c8a2cb62.Emscripten.clang"
  },
  "schemaVersion": "3.0.2",
  "updatedAt": "2020-05-28T08:51:44.546Z",
  "devdoc": {
    "methods": {}
  },
  "userdoc": {
    "methods": {}
  }
}